:020000022000DC
:1060000000000420155506008F94020045F7020099
:106010008F9402008F9402008F9402000000000011
:106020000000000000000000000000008F9402004B
:106030008F940200000000008F94020015040300FA
:1060400091E902008F9402005D170300E5A00200B1
:10605000F5A002008F940200650C03008F940200EB
:106060008F940200E9010300D9010300B50E03007B
:106070008F9402008F9402008F9402008F9402008C
:106080008F940200C50E03008F9402008F940200CB
:106090008F9402008F940200B18805008F94020053
:1060A0008F9402008F9402008F9402008F9402005C
:1060B0008F9402008F940200000000000000000096
:1060C0008F9402008F9402008F94020075080300E1
:1060D000D50E03008F9402008F940200596B0300C9
:1060E0006D170300F1A202008F940200E90A030079
:0860F000000000008F94020083
:1070000040F8044B40F8045B40F8046B40F8047B04
:1070100040F8048B40F8049B40F804AB40F804BBF4
:1070200040F804CB40F804DB6846704781F000412B
:1070300002E000BF83F0004330B54FEA41044FEA5D
:10704000430594EA050F08BF90EA020F1FBF54EAF8
:10705000000C55EA020C7FEA645C7FEA655C00F094
:10706000E2804FEA5454D4EB5555B8BF6D420CDD65
:107070002C4480EA020281EA030382EA000083EAE8
:10708000010180EA020281EA0303362D88BF30BD88
:1070900011F0004F4FEA01314FF4801C4CEA1131DE
:1070A00002D0404261EB410113F0004F4FEA03333D
:1070B0004CEA133302D0524263EB430394EA050FC8
:1070C00000F0A780A4F10104D5F1200E0DDB02FA37
:1070D0000EFC22FA05F2801841F1000103FA0EF2CB
:1070E000801843FA05F359410EE0A5F120050EF191
:1070F000200E012A03FA0EFC28BF4CF0020C43FAC2
:1071000005F3C01851EBE37101F0004507D54FF0CE
:10711000000EDCF1000C7EEB00006EEB0101B1F51E
:10712000801F1BD3B1F5001F0CD349085FEA300064
:107130004FEA3C0C04F101044FEA445212F5800F6F
:1071400080F09A80BCF1004F08BF5FEA500C50F10C
:10715000000041EB045141EA050130BD5FEA4C0CEF
:10716000404141EB0101013C28BFB1F5801FE9D24C
:1071700091F0000F04BF01460020B1FA81F308BF6F
:107180002033A3F10B03B3F120020CDA0C3208DD3B
:1071900002F1140CC2F10C0201FA0CF021FA02F116
:1071A0000CE002F11402D8BFC2F1200C01FA02F186
:1071B00020FA0CFCDCBF41EA0C019040E41AA2BFAB
:1071C00001EB0451294330BD6FEA04041F3C1CDA73
:1071D0000C340EDC04F11404C4F1200220FA04F093
:1071E00001FA02F340EA030021FA04F345EA03013D
:1071F00030BDC4F10C04C4F1200220FA02F001FAFF
:1072000004F340EA0300294630BD21FA04F0294680
:1072100030BD94F0000F83F4801306BF81F4801119
:107220000134013D4EE77FEA645C18BF7FEA655C8C
:1072300029D094EA050F08BF90EA020F05D054EA5E
:10724000000C04BF1946104630BD91EA030F1EBF63
:107250000021002030BD5FEA545C05D14000494167
:1072600028BF41F0004130BD14F580043CBF01F55A
:10727000801130BD01F0004545F0FE4141F4700140
:107280004FF0000030BD7FEA645C1ABF194610461B
:107290007FEA655C1CBF0B46024650EA013406BF1C
:1072A00052EA033591EA030F41F4002130BD00BFDB
:1072B00090F0000F04BF0021704730B54FF4806498
:1072C00004F132044FF000054FF0000150E700BF19
:1072D00090F0000F04BF0021704730B54FF4806478
:1072E00004F1320410F0004548BF40424FF0000165
:1072F0003EE700BF42004FEAE2014FEA31014FEAA8
:1073000002701FBF12F07F4393F07F4F81F06051F6
:10731000704732F07F4208BF704793F07F4F04BF41
:1073200041F40021704730B54FF4607401F000451E
:1073300021F000411CE700BF50EA010208BF70477E
:1073400030B54FF000050AE050EA010208BF70476F
:1073500030B511F0004502D5404261EB41014FF4D8
:10736000806404F132045FEA915C3FF4D8AE4FF0E0
:1073700003025FEADC0C18BF03325FEADC0C18BFC3
:10738000033202EBDC02C2F1200300FA03FC20FA14
:1073900002F001FA03FE40EA0E0021FA02F1144461
:1073A000BDE600BF4FEA4102B2F1E04324BFB3F5AE
:1073B000001CDCF1FE5C0DD901F0004C4FEAC0026C
:1073C0004CEA5070B2F1004F40EB830008BF20F050
:1073D0000100704711F0804F21D113F13872BCBF0A
:1073E00001F00040704741F480114FEA5252C2F15F
:1073F0001802C2F1200C10FA0CF320FA02F018BFA8
:1074000040F001004FEAC1234FEAD32303FA0CFCFA
:1074100040EA0C0023FA02F34FEA4303CCE77FEA89
:10742000625307D150EA01331EBF4FF0FE4040F4D3
:107430004000704701F0004040F0FE4040F4000082
:10744000704700BF024B1A6912681A61704700BF8B
:10745000804F0120C460056146618761C0F81C80CF
:10746000C0F82090C0F824A0C0F828B0C0F82CD0F4
:1074700080ED0C8B80ED0E9B80ED10ABC0F808E02A
:107480000AF056BC2DE9F0412A4C00250326D4F819
:10749000E8700021013143189A0803F00303BA5C35
:1074A0005B0042FA03F303F00303022BF2D0D4F89B
:1074B000F43009018A0803EB001089B300EB820263
:1074C0000368190729D1D4F8F410994225D8D4F8C3
:1074D000F8709F4221D95B1A48BF0F331B11D4F8B3
:1074E000E8E04FEA930C03F003011EF80C8049001A
:1074F00048FA01F707F00307012F0ED106FA01F150
:1075000041EA080104EB85083F2D0EF80C109ABFE4
:107510000135C8F80431C4F8007104309042CFD16D
:107520002DB1013D04EB8503D3F80401AFE7BDE8BD
:10753000F08100BF804F01202DE9F0473B4CD4E99A
:107540003D120023C0E90233C0E90433521AC0E9F6
:1075500000231D4683619C461F4619461A469A46DB
:1075600099469E46D4F8E86016F80A304FEA490971
:1075700043FA09F303F00303012B4DD0022B47D04C
:10758000002B3ED0D4F8EC600132B2EB860F4FEA0C
:1075900086080FD0D4F8E8604FEA920A02F0030997
:1075A00016F80A304FEA4906334113F0030301D0BD
:1075B000012BD7D1012911D0022902BF466901361A
:1075C000466186698E4238BF816190450FD0012B9C
:1075D00026D04FEA920A02F00309C3E70669013692
:1075E000066186698E4238BF81619045EFD177454B
:1075F00000D9C7602D014FEA0C13C0E90153BDE863
:10760000F0870CF1010CC0F808C001371946B9E742
:10761000013545600131B5E7013545601946B1E7EF
:10762000BE4501D2C760BE460027D2E7804F012089
:1076300050F8310010B1043818BF01207047000025
:10764000054B5B695A68824204D8801A043053F8AB
:10765000200070471B68F5E7804F0120014441F28C
:107660000553884204D3D8B2012838BF012070479F
:1076700010F8012B03EB43135340F2E708B5FFF773
:10768000DFFF023008BD08B5FFF7DAFF43780B6073
:10769000023008BD43688B422CBF591A002141605B
:1076A000704700002DE9F74F89469DF830101746C6
:1076B0000D9A11F0DF0F0646A2EB07023DD03029EC
:1076C00025490CA813BF804688464FF0100A4FF09A
:1076D000010A13F0800535D002EBD2746510A2EBDD
:1076E0006404002D35DDAB46DA45524673683068D8
:1076F000A8BF5A46414601929847019AABEB020B4C
:10770000BBF1000FF0DC2FB1736830683A46494690
:1077100098473D44002C0CDD2544A2455746A8BFA0
:107720002746736830683A464146E41B9847002C68
:10773000F3DC284603B0BDE8F08FDFF820804FF07F
:10774000100AC6E713F0010401D11546C9E7144633
:10775000D9E70025D7E700BF695C0700585C070040
:107760002DE9F04389B006460020119D9DF8488020
:10777000139F8DF80F000AB381421ADA2D228DF87B
:107780000F204942109A08ACA2F10A000DF110092D
:10779000B1FBF3FC03FB1C12092A8CBF1218303218
:1077A00004F8012D4C458E4661460ED07345EFD945
:1077B0000BE0A80727D52B228DF80F200029E1D157
:1077C00030238DF81F300DF11F0415F040099DF88E
:1077D0000F301CD023B30122CDE900822B460DF1DE
:1077E0000F013046FFF75EFF013F814608AACDE951
:1077F00000872B46121B21463046FFF753FF4844B3
:1078000009B0BDE8F0836A07D8D52022D4E7002B61
:10781000ECD004AA9442E9D904F8013C013CE5E724
:107820009946E3E790F9001003780029024601DB4E
:107830001846704703F07F004023184206D112F823
:10784000013F03F0C001802904D0704720EA030003
:107850005B08F2E703F03F0343EA8010EFE7431CC5
:1078600018460133027802F0C002802AF8D070472F
:1078700001440346002099421A4600D87047127806
:1078800002F0C002802A03F1010318BF0130F2E7C1
:107890007F289DBF024B185CC0F34000002070475A
:1078A000C4DF06007F289DBF024B185CC0F3C000F8
:1078B00000207047C4DF06007F289DBF024B185C84
:1078C000C0F3800000207047C4DF06007F289DBF02
:1078D000024B185CC0F3001000207047C4DF0600A4
:1078E0007F289DBF024B185CC0F3401000207047FA
:1078F000C4DF060008B50246FFF7E8FF00B12032FA
:10790000104608BD08B50246FFF7EAFF00B1203A6D
:10791000104608BD10B501440246E52400209142FE
:1079200003D8B0FA80F0400915E012F8013B20B10D
:107930001B0611D5431ED8B2F1E7BF2B09D9F72B8F
:1079400009D8DB0803F0060344FA03F303F003004D
:10795000E5E71B06E3D510BD0020FCE702398142B4
:107960000B4603D20233181A401070471A880239A6
:10797000002AF4D0F6E7B2EB131F70B54FEA1314E8
:1079800015D9121B03F00F0301EB440115460E46F7
:10799000012D31F8024B18BF3468DC40A4B2013D20
:1079A00020F8024BF3D104B9013A104670BD002211
:1079B000FBE7F0B5059F0024D21B2646A74210D155
:1079C00000EB470C01EB47010024A24214D10CEB61
:1079D00042031EB101212CF812100233181A401074
:1079E000F0BD31F8145033F814C06544354420F824
:1079F00014502E0C0134E1E731F8145035442CF8C2
:107A000014502E0C0134E0E7F0B4049F0025D21B83
:107A10002C46AF420BD100EB470601EB4705002394
:107A20009A420FD106EB4201F0BCFFF797BF31F845
:107A30001560344433F81560A41B20F81540241455
:107A40000135E6E735F813100C4426F813402414EA
:107A50000133E5E710B500EB410002EB410209B943
:107A6000084610BD30F8023D32F8024D1B1B002BBA
:107A700002DB04D10139F2E74FF0FF30F1E70120DA
:107A8000EFE710B5D0E90121034601EB42020020E7
:107A9000914204D31B78DB0748BF404210BD32F847
:107AA000024D44EA0040F3E72DE9F04371B19F181D
:107AB000D0E901940025A4F102084FF0010EAC4674
:107AC0001A44B9F1000F03D1BDE8F0831F46EFE778
:107AD00038F8024F0CF1100C44EA0545BCF1070FD1
:107AE00002DC09F1FF39ECE70678ACB2F60742BFD9
:107AF000E4435EFA84FE1FFA8EF4E4B248BFCEF38C
:107B0000072E49B17E1E07F8014CB342DCD0ACF120
:107B1000080C2D0A3746E1E73E4606F8014B96422F
:107B2000F4E70000D0E901329FED0C0A9FED0C7ADA
:107B300002EB43039A4205D30378DB0748BFB1EE5B
:107B4000400A704733F8021D07EE901AF8EEE77A04
:107B5000E0EE077AB0EE670AECE700BF0000000035
:107B600000008047D0E9023293423DBF5A1C826038
:107B700018784FF0FF30704790F8703083B1036988
:107B8000C3614369036283694362836E1A78026149
:107B90005A7842619B7883610323A0F87230704762
:107BA000C2690261026A4261426A82614366F4E725
:107BB00010B502690A2A04463BD1836A0133836205
:107BC0000123E36263692361A369636194F8703000
:107BD000002B36D0B4F87230626E93421FBF591C2E
:107BE000A26EA4F87210D35C08BF0023A36163697E
:107BF0000D2B08D1A3690A229342626103D1D4E913
:107C000001039847A061A369013306D163695A1C37
:107C100003D00A2B1CBF0A23A36194F87030ABB1C8
:107C200023699BB984F870302046BDE81040FFF707
:107C3000A3BFC36A092A04BF073323F00703013334
:107C4000BFE7D4E901039847A061D0E710BD70B544
:107C500004460D4600262269531C01D1304670BDF2
:107C60000A2A08D115B1636B002BF7D02046FFF725
:107C70009FFF0126EFE71046FFF70AFE18B12046E6
:107C8000FFF796FFE7E7232A08D12046FFF790FF8A
:107C900023695A1CDFD00A2BF7D1DCE75C2ADDD13F
:107CA00063690A2BDAD12046FFF782FFE7E7D0E9C4
:107CB0000432013B036152F8230070470369C94352
:107CC0001944436953F821007047B0F59F7F07D0EE
:107CD00010F0010306D043080CBF012000207047BC
:107CE0000120704718467047B0F5AF7F07D010F0FD
:107CF000010306D0430814BF012000207047012073
:107D0000704718467047000010F0010204D040F0A0
:107D10000100086001207047A8B110F003030FD1E3
:107D20000279372A0ED183680B6013F00100F1D17C
:107D30009A0708D11868044BC31A58425841704733
:107D40001046704718467047BC52070010B50368CC
:107D500013B91360184610BD9C0702D010600120B3
:107D6000F9E71C798C42F9D103F1080111605868D8
:107D7000000AF0E730B5058D04460022954201D88F
:107D8000002030BDE36A03EBC20043688B42F8D0A9
:107D90000132F3E7838B426A01339BB28383918C78
:107DA000994238BF93847047F7B51E4659B111F018
:107DB000030511D14F68FCB294420DD13F0A01F185
:107DC0000804BD4201DB03B0F0BD54F8041B019070
:107DD0000135B0470198F4E7334603B0BDE8F04001
:107DE00018470000024B89689722FFF7DDBF00BFEC
:107DF000C5980400024B89686722FFF7D5BF00BF12
:107E0000E762050031B1026801F00303134304BFC8
:107E10000B680360704770B504460D46104619465E
:107E2000FFF7A8FF037833B96D681A4620462B4642
:107E3000BDE870401847012BF6D02D684288022B10
:107E40002046AC4608BF0023BDE8704018BF0123A0
:107E5000604737B50DF105040B46214602F07F055A
:107E6000D20904F8015DF9D1091B984701AD01461B
:107E70002346AB4205D19DF804201B1BC25403B01E
:107E800030BD13F8012B62F07F0201F8012BF0E7FF
:107E90004379026A032B88BF036B114494BF0346E6
:107EA0009B1801621846704710B50C460121FFF778
:107EB000EFFF047010BD4279836A032A88BF426ACB
:107EC000194484BFD218036B816294BF03469B1888
:107ED0001846704710B50C460121FFF7ECFF0470FF
:107EE00010BD000013B504460192FFF7F3FF019A9D
:107EF0000349204602B0BDE81040FFF7AABF00BF0B
:107F0000B77E020030B4C36815465C8B9A8B038F32
:107F10001444C28E14445A1C02871A194379042B44
:107F200004BFC36B43F8225030BCFFF7DBBF2833DC
:107F3000D9B2FFF7D7BF38B50D4603211446FFF776
:107F4000BAFF4470240A0570847038BD38B543798F
:107F5000032B81BF846AC369C4F1FF2404F57F0445
:107F600084BF53F82230FD340D464FF003018CBF1F
:107F7000E4180024FFF79FFF4470240A0570847002
:107F800038BD38B54379032B81BF846AC369C4F512
:107F9000FF4453F8223088BF7D340D464FF0030173
:107FA0008CBFE4180024FFF786FF4470241205708C
:107FB000847038BD4379012B09D083681944C368A4
:107FC00081605A8C9142C8BF5984002383717047E5
:107FD00070B501211D4606461446FFF7EBFF45B973
:107FE0000F2C06D8A4F15001C9B2BDE87040FFF7CC
:107FF00071BF05F1190122463046C9B2BDE8704093
:10800000FFF770BF70B514460E461B340121FFF711
:10801000D1FF3246E1B2BDE87040FFF78CBF70B5CA
:108020004FF0FF311D4606461446FFF7C3FF45B922
:108030000F2C06D8A4F14001C9B2BDE87040FFF78B
:1080400049BF05F1220122463046C9B2BDE8704061
:10805000FFF748BF70B514460E4624344FF0FF3189
:10806000FFF7A8FF3246E1B2BDE87040FFF763BFFB
:1080700070B514460E462A340021FFF79BFF3246A6
:10808000E1B2BDE87040FFF756BFF7B5DDE908760D
:10809000C91AD4B243EA07220546A1EB470101926F
:1080A0005EB10239FFF786FF611C019AC9B228460A
:1080B00003B0BDE8F040FFF715BFFFF77BFF019A63
:1080C0002146F4E713B501910021FFF773FF019AF0
:1080D0001D2102B0BDE81040FFF72DBF10B54FF0D5
:1080E000FF31FFF767FFBDE810402121FFF7F2BE27
:1080F00038B50D460021FFF75DFF4379012B05D010
:10810000032B9EBFC369826A43F8252038BD13B58F
:1081100001910121FFF74EFF019A162102B0BDE83F
:108120001040FFF708BF10B50121FFF743FFBDE87E
:1081300010401821FFF7CEBE10B50121FFF73AFF1E
:10814000BDE810403021FFF7C5BE10B54FF0FF313C
:10815000FFF730FFBDE810403221FFF7BBBE10B57E
:108160000021FFF727FFBDE810403321FFF7B2BE23
:1081700010B50021FFF71EFFBDE810403421FFF7C6
:10818000A9BE13B501910021FFF714FF019A352113
:1081900002B0BDE81040FFF7F4BE10B54FF0FF315C
:1081A000FFF708FFBDE810404121FFF793BE38B547
:1081B0000C1E14BF03210021FFF7FCFE002C18BF8A
:1081C0004721BDE8384008BF4221FFF783BE10B504
:1081D0000021FFF7EFFEBDE810404421FFF77ABE13
:1081E000302937B50C461AD031291BD10125072477
:1081F0004FF0FF310190FFF7DDFEA4F12901019856
:10820000C9B2FFF767FE019875B10021FFF7D2FEF2
:108210000198D32103B0BDE83040FFF75BBE0125D4
:108220000624E5E70025E3E703B030BD70B5032A77
:108230000D46144614BFC5F1010101215034FFF76A
:10824000B9FE2A46E1B2BDE87040FFF74BBE10B55B
:108250006FF00101FFF7AEFEBDE810405421FFF7BB
:1082600039BE2DE9F74F05460C46904699461BB19D
:108270000B7E43F008030B76A4F81E806B6A1B7814
:10828000002B4DD159EA0803A86A4CD10121FFF710
:1082900091FE6269602103B0BDE8F04FFFF732BE86
:1082A000DB6A03EBC70B13F83730033B012B1AD8FB
:1082B0004FF0000A14E0E36A03EBCA0213F83A3005
:1082C000042B0BD1DBF804105368994206D1BBF89C
:1082D0000220A86A0023FFF77BFE01360AF1010A9B
:1082E000238D5345E7DC01376B6A1A8DBA42D7DC20
:1082F000002EC7D059EA0803A86AF5B21AD1C6F110
:1083000001010190FFF756FE626962210198FFF7B3
:10831000F9FD0198294603B0BDE8F04FFFF7DABD3B
:1083200000273E46E0E74FF0FF31FFF743FE62696A
:108330006121B0E7F1430190FFF73CFE62696321E0
:10834000E4E70000F8B504460E4611461A4600233D
:1083500085794769837143610D4BFFF725FDA3685C
:10836000A3B9E18A39B1A28A2AB9A06AFFF75EFFF0
:10837000A06AFFF7D8FEA38AE28A31462046FFF7BB
:1083800070FF003D18BF0125A5716761F8BD00BFF2
:10839000099A040007B5CDE900230B4664220021A9
:1083A000FFF773FE03B05DF804FB10B54FF0FF312B
:1083B000FFF700FE0123BDE8104083715B21FFF74A
:1083C00089BD38B50C464942FFF7F4FDC268137EFB
:1083D00043F0040304F15D011376BDE83840C9B2EF
:1083E000FFF778BD2DE9F74F10EE104A002C9DF8ED
:1083F0003050044624DAB4EE400AF1EE10FA1FD6EB
:108400002D2504F8015BB1EE400A9FEDC47AF0EE31
:10841000C07AF4EE477AF1EE10FA02F0200E14DD85
:108420008EF0490323708EF046058EF04E03637084
:10843000A570E31C00221A70181A03B0BDE8F08F73
:10844000002DE2D004F8015BDFE7B4EE400AF1EE64
:1084500010FA08D74EF04E028EF04105227065707A
:10846000E31CA270E6E7002B42F02002B8BF06230F
:10847000672A02D1002B08BF0123251A491B10EEE1
:10848000105A002D01F1FF3748D1662A38D15D1C02
:10849000AF424FF00006D8BFCB1E591C6627B4462A
:1084A0003546652F23EAE37840F0098108F10101A0
:1084B000002301934FF02E0BB2EE047A019B8B4206
:1084C000C0F20681662A40F03381A94280F286819B
:1084D00096B10A2195FBF1F301FB135593FBF1F2E1
:1084E00001FB12324EF0450E3032303584F800E098
:1084F0006670A270E570043400232370201A9CE794
:108500005D1DAF42D8BFCB1F652A17464FF0000153
:1085100040F0CF802B268C460D46C2E7B5F17E5F3A
:108520006FD2DFED7F7ADFF80082DFF800A2B4EED1
:10853000E70AF1EE10FA4FF00006ACBF4FF0310938
:108540004FF030094FF0200C3546B8EC017AB4EE0C
:10855000C07AF1EE10FAC4BF0AEB060B9BED007A6D
:1085600006F10406C4BF654420EE070A182E4FEA40
:108570006C0CEAD110EE106AB6F17E5F27D2B4EE31
:10858000E70AF1EE10FA1DDB002D14BF2D262B2675
:10859000B7EE000A662A03D0672A28D1042D26DC0C
:1085A000672A04BF05F1FF369B195E1CB742D8BF8E
:1085B000CB1E84F8009063B9013419461E464FF073
:1085C000FF3C58E0F2EE047A20EE270A01352D2612
:1085D000E0E72E216170302619460234013D6AD051
:1085E00009B90E46EBE704F8016B0139F6E78F1F76
:1085F000BB4202DB672A60D0CB1F174600218C46A6
:108600004FE70026DFF82481DFF81C914FF0200CA3
:108610003546F8EC017AF4EEC07AF1EE10FA9CBF20
:1086200009EB060ADAED007A06F104069CBF654400
:1086300020EE270A182E4FEA6C0CEAD1FDEEC07A24
:1086400017EE906A092EC2BFDFED367A013520EEB3
:10865000270A662A11D1AF4217DD591901318F421D
:1086600005DC7F1B012FA7F1020308BF0023E918D7
:108670000131AC460026662713E7652A05D0672A34
:108680000CD0174600212B26B9E78E1FB34200DB22
:10869000CB1F00212B268C46652702E71E1DB74203
:1086A00000DC8B1F9D4201DB6727EBE7691C5B1A2F
:1086B000DDE70E462FE72E4681E73B469DE7672F15
:1086C0007FF4F6AE002BDABF012188464146EFE683
:1086D000FDEEC07A04F1010A17EE903A002BA8BF14
:1086E00003F13009019BACBF5FFA89F94FF0300903
:1086F000634584F8009006D1B8F1000F03D004F16F
:10870000020A84F801B0F8EEE77A019B30EE670ABE
:10871000013320EE070A01935446CFE6FFFF7F7F27
:10872000F8FF7F3FCDCCCC3DBC1C0700D41C07001C
:10873000F1EE047AB4EEE70AF1EE10FA28DB611EDE
:108740004FF030090B782E2B8C4601F1FF31F9D018
:10875000A3F1300ABAF1090F2CD90CF1010C9CF8E5
:108760000030302B14D19CF801102E292FD1662F08
:108770002DD02D2E8CF800108CF8013025D1013D24
:1087800008BF2B2623469C4523D331238CF8003089
:10879000672A7FF49DAEB8F1000F3FF499AE2346EF
:1087A0001C46013B14F8012C302AF9D02E2A08BFB0
:1087B0001C468DE6392B03D001338CF80030CEE710
:1087C000604581F80190BDD1C9E70135DAE7013490
:1087D000D8E713F8011C03F80119D4E7F1EE047A85
:1087E000B4EEE70AF1EE10FAA9DA71E600F003033D
:1087F000022B05D1034B0340981F18BF012070477F
:1088000000207047070080FF50F8210010B10438A5
:1088100018BF01207047704708B5C307024608D447
:10882000074B0340062B06D0FFF7E0FF28B910687E
:1088300008BD0448FCE70448FAE70448F8E700BF2D
:10884000070080FFBC520700405607006450070035
:1088500038B5816804460846FFF7DEFF43690546E0
:1088600005209847E168B1EB600F0ADA49002B6AEE
:10887000A068042241F001019847E3680133E360F6
:1088800038BD0020FCE708B5FFF7C6FFBDE808408B
:10889000C088FEF7F3BE7047044B0B60044BC1E980
:1088A00001300023CB600846704700BF60540700CA
:1088B0005188020013B504460192FFF7ADFFC36A69
:1088C0003BB1019A20469847B0FA80F0400902B0C7
:1088D00010BD1846FBE7062806BF480040F001001F
:1088E00000207047042803D0052808D000207047D6
:1088F0008A68054B0548002A08BF184670478868F3
:10890000400040F0010070477429070080290700EB
:10891000074BC1E900300023C1E90233054B02686F
:108920009A4202BF4368C3F317238B60084670471F
:1089300048DF060070530700136870B56BB94468D0
:10894000A51C50F825509C4207D055F82360B14231
:1089500004D1023350F82330136070BD0133F2E7C5
:10896000136853B9B1F54E7F08D1436823F0030370
:1089700043F00203A3F1FF431360704740F27123F9
:108980009942FAD18368F1E7044B0B60037A0B71CB
:1089900043688B600023CB60084670473C030700A8
:1089A000044B0B6001230B7100238860CB600846E9
:1089B000704700BF3C03070038B585680B68024666
:1089C0000C46AB4201D3002009E01946D068FEF7FF
:1089D0002FFE591C20B12160D06800EBC30038BDC8
:1089E0000B46EEE7042803D0052809D00020704785
:1089F0004B68074833F00F03064B08BF1846704713
:108A00004868C0F31B10400040F00100704700BFF1
:108A1000802907007429070010B4C4680023A44605
:108A20005DF8044B604700221146FFF7F5BF0000D8
:108A300038B504461546FFF7EFFE074BC2689A4269
:108A400018BF2469A36813B90B602B6038BDE38895
:108A50000B60A368F9E700BF5D82030001F1FF43EB
:108A600023F0030307EE903A072805D8DFE800F06B
:108A7000051D04040704101800210846704710481B
:108A80001049F5EE407AF1EE10FA08BF0146F4E71E
:108A9000FDEEE77A17EE901A490041F00101ECE78C
:108AA000F5EEC07AF1EE10FAE7D5F1EE677A17EE3F
:108AB000901A21F0030141F00201A1F1FF41DCE72E
:108AC0007429070080290700C30706D54010002835
:108AD0000DDB14BF012000207047836853B1037978
:108AE00013F0010F14BF4FF0FF30012070474FF01B
:108AF000FF30704718467047044B0B60044BC1E9C8
:108B000001300023CB600846704700BF6054070067
:108B1000158B0200D0E9022391688B423BBFD268DB
:108B200052F823200022013338BFC360104670473B
:108B3000004870477C29070043681847C268002A2C
:108B400005DDD0E90113994206DB00230AE0FCD0E1
:108B5000D0E901139942F8DD41684B000A4443F023
:108B6000010342601846704710B5D0E90142C3685E
:108B70000348C1E90223C1E90004084610BD00BF53
:108B8000CC640700820708D10068064B984206D0E3
:108B9000054BC31A584258417047002070470120C6
:108BA000704700BF50550700A0500700044B0B60F2
:108BB000044BC1E901300023CB600846704700BF79
:108BC00060540700C98B020038B58268C1685568D7
:108BD0000346A94201D3002008E0D068FFF714FE45
:108BE0004C1C20B1DC60D36853F8210038BD21460D
:108BF000EFE7000010F0030203D10168084B99422F
:108C000009D010F0010306D13AB90068054BC31A28
:108C1000584258417047012070471846704700BFBE
:108C2000944D0700BC52070010B50446FFF7E2FF61
:108C300028B92046FFF7DAFD00F0010010BD012041
:108C4000FAE70000044B0B60044BC1E9013000233C
:108C5000CB600846704700BF60540700AD8C02002F
:108C6000884230B513D20378303B092B0FD800234C
:108C700013600A2510F8014B1368303C05FB0343D1
:108C80008142136003D00378303B092BF2D930BD09
:108C9000054A0240062A02D1C008FEF7F4BC8268E9
:108CA0000A60C068704700BF070080FF13B5044624
:108CB00001A98068FFF7ECFFE268019B9A423FBF81
:108CC000835C5B0043F0010001322CBF0020E260B6
:108CD00002B010BD73B50546084601A9FFF7D8FFDD
:108CE000019B064613B3134B9D4221D0124B9D426C
:108CF0004FF0000405D1224613E0305DA847A8B12B
:108D00000134019BA342F8D80C4802B070BD315D1C
:108D10000846FEF7C7FD18B10846A847024628B125
:108D20000134019BA342F2D8002AEDD10448ECE7BC
:108D30000024E0E7CD780200E178020080290700F6
:108D40007429070001460148FFF7C4BF917802006B
:108D500001460148FFF7BEBFA57802000146014861
:108D6000FFF7B8BFB978020001460148FFF7B2BF6C
:108D7000CD78020001460148FFF7ACBFE178020060
:108D8000012A13B50C460AD101A9FFF781FF019B07
:108D9000636042232060A360002002B010BD002366
:108DA000C1E900334FF0FF338B600120F5E700008D
:108DB000044B0B60044BC1E901300023CB60084633
:108DC000704700BF60540700B56B050013B504463B
:108DD000084601A9FFF75CFF042C04D0052C09D03C
:108DE000002002B010BD019A0648074B002A08BFB8
:108DF0001846F6E70199FEF73BFD400040F0010000
:108E0000EFE700BF8029070074290700D0E902239B
:108E100051688B4237BF991C002252F82120013340
:108E200038BFC36010467047044B0B60044BC1E968
:108E300001300023CB600846704700BF6054070034
:108E40000D8E0200F8B50E46114C1249124B8842A5
:108E50001AD0C268A24203D0306001242046F8BD77
:108E6000406B98B102689A42F1D1476800F1080559
:108E700005EB87070024BD42F0D255F8040B3146BC
:108E8000FFF7E0FF0444F6E70024E7E70446E5E7E0
:108E900029280500E8530700F4560700F0B50C46F2
:108EA00085B054F8046B019200220392054603A991
:108EB0003068FFF7C7FF0398019BC7682246691E09
:108EC000B8473061014805B0F0BD00BF7C290700FC
:108ED0002DE9F041134E144F0D46A8421CD010F05E
:108EE00003031BD10268B2421AD1406B90B10368F0
:108EF000BB42F2D1044654F8043F00EB830000F17A
:108F0000040854F8040FA045E7D92946FFF7E0FF0D
:108F10000028F6D0BDE8F0810120FBE70020F9E74A
:108F20001846F7E730570700F4560700830707D1C4
:108F30000268064B9A4203D1C268054B9A4202D09E
:108F40000449FFF7C5BF0120704700BF3057070035
:108F50005D820300D845070008B5FFF75DFCBDE85A
:108F60000840FFF7E3BF38B504460D46FFF7F4FFAE
:108F700018B12046FFF750FC044629462046BDE8BC
:108F80003840FFF7A5BF70B504460D46FFF744FC17
:108F90000646FFF79DFF20B1AE4200D0246920466F
:108FA00070BD0446FBE7000010B5044608460A49B8
:108FB000FFF7E9FF042C03D0052C08D0002010BDDA
:108FC0008268064B0648002A08BF1846F7E7806803
:108FD000400040F00100F2E7F85207007429070052
:108FE000802907000C4970B5FFF7CDFF836803EBBC
:108FF000D37149109B0000229142A3F1040301DCCC
:10900000064870BDC468E65854F8225044F82260FF
:10901000C4680132E550EFE7F85207007C290700E9
:1090200010B50446FFF7F8FB0422036A2046BDE8AA
:109030001040184713B504460192FFF7EDFB019A63
:10904000036A204602B0BDE81040184710B5044638
:10905000FFF7E2FB0022036A2046BDE810401847F4
:1090600013B504460191FFF7D7FB019A83692146A6
:109070002E2002B0BDE81040184710B5044608463F
:10908000FFF7CAFB006B18B10388A34218BF00208A
:1090900010BD01464FF44870FFF7EFBF2DE9F047D0
:1090A0001E4681468A461546FFF7F3FF9DF820705D
:1090B000D0E9018317F0020F4FF0000418BF984663
:1090C000346007F001076DB133462A4651464846E1
:1090D000C04738B1431C08D133680B2B02D10CB107
:1090E000002333602046BDE8F0871FB982442D1A63
:1090F0000444E8E70446F5E7014BD868704700BF31
:10910000804F0120014B9868704700BF804F0120BD
:10911000024B0348002283F806227047804F01204B
:109120007C290700024B0348012283F8062270477E
:10913000804F01207C290700044B054A93F8060262
:10914000044B002814BF104618467047804F01207A
:10915000802907007429070000B589B001A8FEF72F
:10916000EBF90398400040F0010009B05DF804FB02
:1091700000B589B001A8FEF7DFF90298400040F081
:10918000010009B05DF804FB034A0448B2F8043258
:10919000013BA2F804327047804F01207C29070070
:1091A000034A0448B2F804320133A2F8043270478B
:1091B000804F01207C29070010B50268002312F8B7
:1091C000011B01F07F04090644EAC313F7D40260CF
:1091D000184610BD0138013910F8012F11F8013F70
:1091E0008AB163B97F2A07D80B4B9B5C13F00C0F35
:1091F0000FD15F3A53425341C3F1010306E09A4253
:10920000EAD000207047B3FA83F35B0903F0010052
:1092100070470123F0E700BFC4DF0600002813DD1C
:10922000002908DD6FF0404393FBF1F18142ACBFB0
:109230000020012070474FF0404393FBF0F088423C
:10924000D4BF002001207047002905DD4FF04043C6
:1092500093FBF1F18142F3E70028EBD06FF040433C
:1092600093FBF0F0E2E7782820D86D2807D8622831
:1092700017D0662817D0612808BF07207047A0F1D3
:109280006E030A2B12D8DFE803F01011111106113A
:10929000111108110A000D2070470B2070475C2047
:1092A0007047082070470C2070470A2070471FB590
:1092B0008388C2889A42044610D3172B15D90123FC
:1092C000009300F1080103AB00681822FFF7E6FEE7
:1092D000039B80B2A08043B938B1E380E088431C8F
:1092E000E3800444207A04B010BD4FF0FF30FAE769
:1092F000BFF34F8F0549064BCA6802F4E06213437F
:10930000CB60BFF34F8F00BFFDE700BF00ED00E073
:109310000400FA052DE9F04F00228578DFF8A4C09B
:10932000DFF8A4E0072416461746038803F1FF3848
:10933000424505DB0B44084603F8017CBDE8F08F8D
:109340004FF00009CA46C8464B465B0015F0800F37
:1093500008F1010818BF43F001035FFA88F884B9E7
:10936000741CE6B250FA84F4A5780724BAF1000F11
:1093700001D053450AD31CF808B00BEB4A0AD94474
:10938000E3E76D00013CEDB2E4B2EFE74B44A3EB41
:109390000A0301EB02081EF803307F2B04DC8B5418
:1093A00001231A4492B2C0E74FEAA31903F03F0326
:1093B00063F07F0369F03F0901F8029088F80130FB
:1093C0000223EEE7A41F070019B00700034B1B6838
:1093D000DB0700D500BE0020704700BFF0ED00E0C5
:1093E0000120704708B50B7803F06003202B0FD1E4
:1093F000084B8A88187890420AD14A78202A05D1E9
:10940000054A1AB1991D0020AFF30080012000E049
:10941000002008BD802601200000000000207047C9
:109420004DDF70474EDF70474FDF704750DF7047AA
:1094300012DF704748B9064BD3F8D40030B1034669
:10944000C0680028FBD1986870470020704700BFB3
:10945000804F0120012808B50BD8FFF7EBFF38B18A
:10946000836943B1808800F03000203818BF0120A4
:1094700008BD0020FCE71846FAE7807A400040F07B
:1094800001007047C07A400040F001007047FEE7DD
:1094900061DF70474BDF704730B5084A52F8CC3F68
:1094A0003BB19C6884421C6804D15D688D4201D147
:1094B000146030BD1A462346F2E700BF804F0120FA
:1094C000B1DF7047B2DF704730B5124D044600205F
:1094D000E8B14378FF2B18D0C388033323F003038C
:1094E00008331844A84210D84378002BF0D04378B2
:1094F0008B42EDD1FF2907D0037803F00103A3428B
:10950000E6D143889342E3D130BD0020FCE7024816
:10951000EDE700BFFB1F0F0004A00E004288437858
:10952000007843EA022340EA032070470B0A0170E7
:1095300043700B0C090E8370C1707047036A0239C7
:10954000023B8B4283BFC389406B01FB03000020B9
:109550007047836A02680433D289490AB1FBF2F189
:10956000186830B1814202D3091A0833F8E7586805
:109570000844704700F10B010022D30143EA520373
:1095800010F8012B52FA83F38842DAB2F5D1104673
:109590007047CA7E8B7E032843EA022301BF487DC1
:1095A0000A7D42EA002243EA024318467047C2F3AA
:1095B00007238A76CB760378032B01BF120C0A753A
:1095C000120A4A757047000010B50749002331F8A8
:1095D000024B84429AB203D00133802BF7D11A4652
:1095E00002F18000C0B210BDC8D0060070B51E4B9D
:1095F0001E4AB0F5805F28BF1346191D31F8043CA0
:109600000A46ABB1984213D331F8024C250AE6B2B0
:1096100053FA84F4A04221DA082D09D8DFE805F0D6
:1096200005090F11131517191B00C01A31F8100086
:1096300070BDC31A03F00103C01A80B2F8E71038F6
:10964000FBE72038F9E73038F7E71A38F5E7083054
:10965000F3E75038F1E7A0F5E350EEE70431002DD1
:10966000CCD102EB4603C8E74EFE060040000700DF
:10967000830705D16422B0FBF2F302FB13034BB95D
:109680004FF4C872B0FBF2F302FB1300B0FA80F0A3
:109690004009704701207047084B4A1E10B533F847
:1096A000114033F812300229A4EB030403D1FFF771
:1096B000DFFF00B10134204610BD00BF08010700E4
:1096C0004B4BA0F59E00A0F5D05070B590FBF3F485
:1096D00003FB14000028BCBF00F5A83004F1FF34E0
:1096E0004FF03C02B8BF00F5C0704FF46163B0FBAF
:1096F000F3F30B71B0FBF2F302FB1300B3FBF2F5D3
:1097000002FB1535A31C072293FBF2F2C2EBC20247
:109710009B1A48BF0733002CB8BF04F50E34CB7139
:10972000BABF04F2B1244FF0FF330023887148F62A
:10973000AC623048B4FBF2F2042A08BF032200FBFB
:10974000024440F2B5562C4894FBF6F6192E08BF99
:10975000182600FB06444D7140F26D1594FBF5F59B
:10976000042D08BF03256FF4B67000FB05409C0074
:10977000234402EB820203EB830302EB82021B0110
:1097800003EB820303EB86032B449BB203F5FA62DF
:109790001A4D0A80002215F9014B844224DDD2B211
:1097A000941CE4B20B2C8ABF0A3A8C708A708A78B7
:1097B000134C02F10102D2B202F1FF3588BF03F26D
:1097C000D17300F1010034F8154088BF0B80C3B29B
:1097D000022A0888CB708A701C4403D9FFF748FF1F
:1097E00000B101340C8170BD001B0132D3E700BF12
:1097F000805101005471FFFF4BFAFFFFFC0007008E
:1098000008010700002910B514680CDA2144036828
:10981000002BBCBF1B19036003688B42D4BFC91A5D
:109820000021116010BDA14228BF2146EFE70129A8
:109830001DBF16224FF0FF301A6000207047000055
:10984000004870477C290700064B1B68082B06D18F
:10985000054B1B68032B02D8044AD05C70470020DC
:10986000704700BF3001001034010010A0CF060087
:1098700041DF704729DF704728DF704707B50023B5
:109880000DF107008DF80730FFF7D2FD9DF80700B6
:10989000003818BF012003B05DF804FB10B5FFF7D6
:1098A000EDFF054C18B9207004E0FFF7E1FF2378C5
:1098B000012BFAD0207810BD3D520120074B10B586
:1098C00001241C70FFF7D6FF28B9FFF7E7FF023825
:1098D00018BF012010BD0020FCE700BF3D52012051
:1098E000F0B508B3204E002133463546984204D0E7
:1098F00001310C2903F10803F8D11C4A04681768E8
:109900004368BC4223F00303234415D14C1C05EBF0
:10991000C105136000210B2C02DC55F8086F26B13D
:1099200001B1136000230360F0BD696821F00301F9
:109930000B4401340121EEE70D4A17689F42F1D133
:1099400005EBC10314600021B34202D053F8085D57
:109950001DB10029E6D01460E4E7596821F0030145
:10996000641A0121F0E700BFD4460120884B012092
:109970009C4B012010B5084C206858B1FFF7B0FF90
:10998000064B93F85010002262F3C301226083F863
:1099900050105A6210BD00BF50520120F422012025
:1099A0002DE9F0431A4B1B4CD3F800C0D4F800E06B
:1099B000AEEB0C0282420646994611DB82070FD1BC
:1099C000154F00290BBF01204FF0FF3000230B2360
:1099D000B84657F833207AB11D18EBB20B2BF8D9E3
:1099E000002007E0AEEB020247F83320226008EBCC
:1099F000C3035E60BDE8F08307EBC30026F00302FB
:109A00000029EFD1624447F833C0C9F80020EEE7DF
:109A10009C4B0120884B0120D4460120054B064A6F
:109A20001B681068834203D00021C01AFFF7B8BF3B
:109A3000002070479C4B0120884B0120064B186882
:109A4000082802D104331B6823B9A0F10D03584242
:109A500058417047012070473001001042DF7047C5
:109A600043DF704744DF7047024B1B68DB0700D5BC
:109A700000BE7047F0ED00E007B5FFF7FFFE48B10C
:109A800001A8FFF7EFFF0198003818BF012003B0CD
:109A90005DF804FB4FF08043D3F80C0400F0011094
:109AA000A0F1011358425841F1E700004209012397
:109AB00000F01F0003FA00F0014B43F8220070474A
:109AC00000E100E04309012200F01F0002FA00F06B
:109AD0002033024A42F82300704700BF00E100E053
:109AE0000028ACBF00F16040064B4FEA4111B4BF03
:109AF00000F00F0000F56140C9B2B4BF195480F8FE
:109B00000013704714ED00E00121420900F01F032B
:109B100001FA03F36032024941F82230FFF7C6BF71
:109B200000E100E003681F2B83BF03F01F03036005
:109B300001484FF0A04070470003005007B5019066
:109B400001A8FFF7EFFF019B03F5E073032240F844
:109B5000232003B05DF804FB07B5019001A8FFF7CF
:109B6000E1FF019B03F5E073022240F8232003B0DC
:109B70005DF804FB07B5019001A8FFF7D3FF019A38
:109B800001239340C0F8083503B05DF804FB07B526
:109B9000019001A8FFF7C6FF019A01239340C0F886
:109BA0000C3503B05DF804FB10B5014690F82000B9
:109BB000FF2805D08B7F1BB9CB7F5BB1FFF7E7FF99
:109BC000002308464B770B72BDE8104050F8083B65
:109BD00049681847FFF7CEFFF2E7000038B504796F
:109BE0001D4924236343CA180546127F92B3CB58FC
:109BF00023B1006840F30730FFF764FF2423634379
:109C0000CA18CB582D687BB1144BC5F80833537F65
:109C100053B101236B61D5F80431002BFBD0242311
:109C200003FB041300225A77242303FB041393F845
:109C30002100FF2801D0FFF78FFF0023C5F8003572
:109C4000074B9D4204BF01225A60242303FB0411E9
:109C500000230B7738BD00BFD04D01205201080012
:109C600000F002400023435082B043580193019B0F
:109C700002B070470B7B032B2DD8DFE803F02529BA
:109C80001D028A68154B9A4204D1D0F84C350A69F6
:109C90009A4209D18A6840F202239A421BD1D0F835
:109CA0004C354A699A4216D000230622C0F8003586
:109CB000C0F8002518467047D0F84C350A699A421A
:109CC000F2D1D0F83C35ECE7D0F84C350A69E9E739
:109CD000D0F83C35FAE70120704700BF00020400CD
:109CE0002DE9F8439846002380F82E30D36803F01E
:109CF0006043B3F1005F06460C46154603D0824F21
:109D00003846BDE8F883814BC1F8083390F82F300E
:109D100003F0FF0923B183687D4FC1F80433EFE7F7
:109D2000012380F82F30944600F10C07BCE80F00A7
:109D30000FC7DCF800303B6086F830906B78C4F8D1
:109D400088354FF482712046FFF78CFF4FF49271F3
:109D5000FFF788FFC4F85095C4F840952B78032B83
:109D600000F2B180DFE803F07A9C5E022B6903F019
:109D70006043B3F1005FC2D14FF48073C4F8003286
:109D80006B68EA68C4F844254FF4A871C4F84835F4
:109D9000FFF768FF4FF4B071FFF764FF4FF4A47151
:109DA000FFF760FF01232362A360D4F85031002B3A
:109DB000FBD04FF4A8712046FFF754FFAB682A6927
:109DC000C4F84425C4F84835524BB3604FF482734D
:109DD0000822514F297803291CBF0121A150326864
:109DE000002A75D1012223441968002974D0D4F8BF
:109DF000C434C4F8C434002286F82F20002B79D054
:109E0000464A474F13F0010F18BF174613F0020FD1
:109E100002F1010218BF174613F0040F414B18BF9F
:109E20001F466DE76B68EA68C4F84425C4F84835F6
:109E30002B6903F06042B2F1005F7FF460AFAA6863
:109E4000C4F834354FF48453C4F83825C4F80032CC
:109E500040F20223B36001232362B7E76B68EA682C
:109E6000C4F84425C4F84835B8F1000F0ED04FF4BB
:109E70008073C4F80032274BB3604FF4A471FFF72E
:109E8000F1FE4FF4A47301222262A1E74FF40073A4
:109E9000C4F8003240F20223B3604FF48273F2E759
:109EA0006B68EA68C4F83425C4F838354FF4805339
:109EB000C4F8003240F20223B3600123236200227F
:109EC0004FF4827385E7184F4FF48273082281E7BD
:109ED000B368C4F8043313E7D4F82411002983D0FD
:109EE0004FF492712046FFF7BDFE4FF48273226259
:109EF000626178E731462046FFF7BCFE084B002838
:109F000008BF1F46FCE600BF0A00AD0B02029C0121
:109F10000B00AD0B000204000000AD0B0000AE0B07
:109F20000100AD0B0200AE0B0400AD0BF0B5D0F894
:109F3000243187B004460D46ABB14FF49271FFF760
:109F400091FED0F8043173B9AB68C0F8083302232E
:109F5000AB60AB68C0F8043301230362436185F84A
:109F60002E3007B0F0BDD4F804316BB34FF48271DA
:109F7000204605F10C07FFF775FE0FCF01AE0FC6A7
:109F80003B68336095F82E303BB929462046FFF7F1
:109F900071FE80F0010085F82E004FF4B07120466C
:109FA000FFF760FE4FF4AE71FFF75CFE95F83030BE
:109FB00013B195F82E30CBB10023C4F80032AB605A
:109FC000224BC4F8083311E04FF4A4712046FFF788
:109FD00049FE2B7BEBB905F10C070FCF01AE0FC685
:109FE0003B68336095F83030002BE6D0D4F8C434A9
:109FF000C4F8C4349A071ED501238DF8003095F8B3
:10A0000030300BB985F82F30D5E9003168469847D4
:10A01000A7E74FF40073C4F8003240F20223AB60AC
:10A0200003F1CE73C4F80833AB68C4F804330123DA
:10A03000A360236295E713F0050F01D00223DCE74C
:10A0400095F82E30002BD8D00423D6E702029C01CD
:10A0500003790B490268342000FB031309490020EF
:10A060009860C2F80813D2F8001221F4BC51C2F86B
:10A070000012C2F80005012283F82D20704700BFAE
:10A08000304E012002029C0170B50679144D342334
:10A090007343EA18044692F82D20FAB1EB5823B125
:10A0A000006840F30730FFF70DFD2046FFF7D0FFB3
:10A0B000342303FB065393F832304BB92368D3F8AB
:10A0C0000805FFF749FD2368D3F80C05FFF744FDA9
:10A0D000342303FB0655002385F82D3070BD00BFE7
:10A0E000304E012001490248FFF720BF304E0120C9
:10A0F0000030004002494FF04020FFF717BF00BF7B
:10A10000644E01200023435082B043580193019BC9
:10A1100002B070471FB50123CDE901218DF8003051
:10A12000D0E900136846984705B05DF804FB0000CD
:10A130002DE9F0412F4E0579242303FB05630446E6
:10A1400093F82020002A52D05B6843B103682A4A62
:10A15000C3F80823006840F30730FFF7B3FC226818
:10A16000D2F8003223F02003C2F800322368012223
:10A170005A6020684FF4AC71FFF7C4FF2368DA60BF
:10A180002368D3F85821002AFBD00022C3F8002509
:10A1900023684FF0FF32D3F80C05D3F81485D3F8B9
:10A1A0000815D3F81075C3F80C25C3F814252368D7
:10A1B0009042C3F80825C3F8102501D0FFF7CCFC66
:10A1C000B8F1FF3F02D04046FFF7C6FC7A1C02D030
:10A1D0003846FFF7C1FC4B1C02D00846FFF7BCFC19
:10A1E000242303FB0565002385F820306B60BDE860
:10A1F000F08100BF984E01201003420007B5019086
:10A2000001A8FFF78FFC019B00EB8300D0F800371B
:10A2100023F4403343EA0141C0F8001703B05DF86E
:10A2200004FB07B5019001A8FFF77CFC019BD0F867
:10A230001005D84000F0010003B05DF804FB0000F9
:10A24000054B4FF0FF32072843F8202084BFC01889
:10A2500080F84C20704700BFE04E01200E4B0344B5
:10A2600093F92420072A02DD0021FFF7C7BFD3B2EC
:10A27000072B10D8930003F1804303F5C043D3F8B4
:10A28000101521F00101C3F81015012303FA02F2A1
:10A29000024BC3F808237047E04E012000600040E5
:10A2A00010B50E4A537903F0FF01A3B90C4B1960A6
:10A2B000116821B1012454710A4AC2F8044300F123
:10A2C000804000F524300122026011B91A68002A8A
:10A2D000FCD0054800E0054810BD00BF484F0120F4
:10A2E00000910240009002400000AD0B0B00AD0B4E
:10A2F000054A136833B1054B0020587110601A6885
:10A3000099681047704700BF00910240484F0120F4
:10A310006DDF704772DF704773DF704774DF70471F
:10A3200075DF704778DF70477ADF70477BDF7047F3
:10A330007CDF70477DDF70478ADF70478BDF7047B7
:10A340008CDF70478FDF704790DF7047A5DF704765
:10A3500060DF704769DF704767DF704710DF704765
:10A3600011DF70470388102B03D01B2B03D0002074
:10A37000704783880B8001208870704721290DD099
:10A3800005D811290AD0122908D039B170473129CE
:10A3900004D0412902D0222900D0704701707047B3
:10A3A000A3DF7047ABDF7047ADDF7047AEDF7047AC
:10A3B00070B5EFF3108672B60D4A94680123A4B904
:10A3C00093600C4B0C4DD3F8801029401160C3F8FA
:10A3D0008050D3F8841051604FF0FF32C3F88420CE
:10A3E000047006B962B6002070BD0370F9E700BFC3
:10A3F000D051012000E100E0FC06FFBDC3880289C6
:10A400009A420BD05A1C92B20168C280CB5C818800
:10A4100091429CBF0022C280184670474FF0FF3027
:10A42000704710B502898488531C9C4298BF002352
:10A43000C4889C421DBF0468A15403814FF0FF30C3
:10A4400018BF002010BDC288038982B09B1A0193F7
:10A45000019B002BBFBF019A83889B180193019831
:10A4600080B202B07047000010B5084B9A685AB12C
:10A4700050B9EFF3108172B6054A1C6814605C682D
:10A480005460986001B962B6002010BDD05101201F
:10A4900000E100E0F7B504460DF107000F4616464F
:10A4A000FFF786FF00250C34AE4205D89DF8070063
:10A4B000FFF7DAFF03B0F0BD795D2046FFF7B1FF8B
:10A4C0000135F1E7034610B51A88392A08460DD040
:10A4D000502A1AD14A68D988928A914204D11A8A9C
:10A4E00003F11201FFF7D6FF01200FE01C7B012CC6
:10A4F000FAD14A685989928A914204D1DA8903F1E2
:10A500001001FFF7C7FF204600E0002010BD00004B
:10A510004368014613B10248FEF7BEBF704700BF53
:10A52000C5A4020076DF70477EDF70477FDF70478B
:10A5300086DF70479BDF70479DDF70479EDF704767
:10A54000B5DF7047406878B1406868B1837953B12E
:10A55000C06848B1406838B100884FF6FF73C01A30
:10A5600018BF012070470120704718B143680BB134
:10A57000188870474FF6FF707047A4DF704770B5BA
:10A5800005460C468E18B44200D170BD217828468D
:10A59000FFF747FF002806DA2846FFF72FFF21784C
:10A5A0002846FFF73EFF0134EDE770B506460C463E
:10A5B0008D18AC4200D170BD3046FFF71FFF04F884
:10A5C000010BF6E7F0B5838B002187B0044680F8D5
:10A5D0002310002B3CD0626894F82250978A94F89C
:10A5E0002020C08B94F821600432F5B104EB820284
:10A5F000CDF8091052688DF80D1002A98DF8086089
:10A60000ADF80A70ADF80E300492FFF7C9FE50B9EC
:10A6100094F82030A083013303F0010384F8203044
:10A62000012384F8233007B0F0BD04EB8202ADF8BB
:10A6300006300DF10603049302A95368ADF80870C3
:10A640008DF80A60ADF80C500593FFF7AFFEDEE71A
:10A650001846E8E7F0B585B08389ADF806200232E8
:10A660009A4205460E4620D80DF10D00FFF7A0FED8
:10A6700005F108042046A989FFF7E5FEBDF806307C
:10A68000081A023398424FF0020210DB0DF1060166
:10A690002046FFF774FF20469DF806203146FFF75D
:10A6A0006EFF9DF80D00FFF7DFFE05B0F0BD0DF168
:10A6B0000E012046FFF779FF0027BDF80E20BBB240
:10A6C0009A42D7D92046FFF799FE0137F5E738B50A
:10A6D0000446CD8BA3889D42084606D12388392B9A
:10A6E00005D023F00403382B15D0002005E04B687B
:10A6F00062899B8A9A4201D0012038BDE28904F127
:10A700001001FFF7A7FF237B022BF5D161892846B3
:10A71000FFF733FFF0E7FFF755FFEDE738B50346E6
:10A72000084619889A88502905D0572929D0112917
:10A7300021D0002038BD4468D988A58A8D420FD128
:10A74000C18B4FF6FF74A14207D1C2831A8A03F16D
:10A750001201FFF77FFF0120ECE79142E9D1F5E715
:10A76000648C8C42F7D15B8ADB0756BF4FF6FF73D0
:10A77000C283C383EFE7C38B934204BF4FF6FF73DB
:10A78000C383FFF71FFFD4E7A8DF7047AADF704736
:10A7900062DF704764DF7047A1DF7047ACDF70474E
:10A7A000012070471020704790F8203033B982683C
:10A7B000D2F8041111B18377C2F80431807F704759
:10A7C0000C4B984211D00AD8A3F57F43F73B98422F
:10A7D0000DD0013398420CBF102000207047064B6B
:10A7E00098420CBF052000207047132070470520B9
:10A7F000704700BF0100AE0B0200AE0BFF280CD06B
:10A800004109064A012300F01F0003FA00F052F844
:10A81000213023EA000342F821307047EC4901203F
:10A8200010B54368044643B11879FFF795F963689A
:10A830001879FFF7E3FF0023636010BD70B50E4B7E
:10A840000122002604465A60C3F80065FF2590F8EF
:10A850002100FFF7D3FF94F8220084F82150FFF77E
:10A86000CDFF94F8230084F82250FFF7C7FF034B75
:10A8700084F823501E6070BD005002408C4B0120B4
:10A8800010B5837AFF2B04460ED04068FFF7FCFB1F
:10A89000A07AFFF7B3FF607AFFF7B0FFFF23A37240
:10A8A0006372636800221A7210BD10B5437AFF2BE1
:10A8B00004460DD04068FFF791F9607AFFF79EFFDC
:10A8C000A07AFFF79BFFE07ABDE81040FFF796BF44
:10A8D00010BD00004109064A012300F01F0003FAE1
:10A8E00000F052F82130184342F82100704700BFB1
:10A8F000B85101200079FFF7EDBF00000379064948
:10A90000580903F01F020123934051F820201343FC
:10A9100041F82030704700BFEC4901204CDF704700
:10A9200020B1034B800143F001031847704700BF7B
:10A930002002070010B5094C2046FEF779FD237868
:10A9400023B1BDE810400648FFF732BD72B6BFF331
:10A950005F8F044A13680133136010BD3E5201201B
:10A96000904B0120B051012030DF704731DF70473C
:10A97000184B53F820300022022110B5C3F80025EF
:10A98000C3F80425C3F810154FF4FA41C3F8142591
:10A99000C3F80C25C3F808150F4901EBC004C3F830
:10A9A00020450424C3F82445C3F82825C3F82C25E2
:10A9B000C3F84025C3F84425C3F84825C3F84C25FF
:10A9C0004FF4004321F8303001EBC0004380838016
:10A9D000C38010BD78640700F451012001F5AC710B
:10A9E0004FF0FF3340F82130002303F5AC7250F8EC
:10A9F0002220013205D10133042BF6D10023C0F807
:10AA00000035704710B5436804467BB1007AFFF704
:10AA1000A3F8617A60680023636001F07F01FFF7AB
:10AA2000DDFF207AFFF7EAFEFF23237210BD30B569
:10AA300043684181D3F82055447AD3F8082504F0BF
:10AA40007F0451434FF6FF73B1FBF3F36FEA4343C7
:10AA50006FEA534325F81430436801229A6030BDF1
:10AA60002DE9F84F002516469DF828B004460F46FC
:10AA70002A469A46002B7CD04949A946012347F62D
:10AA8000FB70B1FBF3F8B8FBFAF8A8F1040C8445AD
:10AA900068D8DFF814C100215CF8040BD0F8003549
:10AAA00013F00F036FD0BBF1000F67D1D0F808355A
:10AAB000984563D1D0F80C354B455FD15B4603F523
:10AAC000AC7E50F82EE0BEF1FF3F54D15AB20125C2
:10AAD0006060002861D0637A62F3060363723B7999
:10AAE00023723846FFF70AFF637A207AC4F80CA075
:10AAF0006BF3C7136372FFF721F863680022C3F892
:10AB00000025DDB96368274A93420CD002F5A042C4
:10AB100093423BD002F58052934239D002F5304245
:10AB2000934237D10325E8B2FFF722FF6368002282
:10AB3000C3F80C95C3F80425C3F80885637A6268E6
:10AB4000397903F07F0303F5AC73204642F82310F4
:10AB500063680122C3F800253146FFF768FF002033
:10AB6000BDE8F88F09F10109B9F1080F4FEA430375
:10AB700087D10220F4E70133042BA0D1013104294D
:10AB80008AD10020A4E71A461D46A1E70125CAE79D
:10AB90000225C8E74FF0FF35C5E70420E0E700BF16
:10ABA0000024F40000C001407864070003685B687B
:10ABB0004FF0FF32C3F860250368187AFEF7E7BF4D
:10ABC00010B5174B53F82020FAB11079FFF729FB85
:10ABD000C1B250794C00FFF724FBE4B241409379B5
:10ABE00054FA81F1C9B2CB1A03F00303012B0DD142
:10ABF000D3790133D37192F907309171032B0ADDB8
:10AC00009368013393600023D37110BD032BF2D1FD
:10AC1000D379013BEEE70333F7DA9368013BF1E7C1
:10AC2000CC440120052801BF024A136803F5001334
:10AC300013607047385201201FB5134BD3F8040539
:10AC4000124B1B6801A903EBD000FEF739FD9DF8FC
:10AC500007309DF806001B0443EA40539DF80800A6
:10AC600043EAC0239DF8090043EA40139DF80A0017
:10AC700043EA5003BDF80400A0F2BC7043EA406010
:10AC800005B05DF804FB00BF0040024038520120CF
:10AC9000807D400040F00100704700008068024B5A
:10ACA000002808BF184670477C29070008B5FFF741
:10ACB0002FFC014808BD00BF7C29070043683BB159
:10ACC00093F85A200348044B022A08BF18467047DD
:10ACD0000048704774290700802907008068024BEC
:10ACE000002808BF184670477C2907004068704755
:10ACF00008B54368014613B10248FEF7CDFB024890
:10AD000008BD00BFCFA602007C2907008079034A56
:10AD1000034B002814BF10461846704780290700CF
:10AD200074290700C079034A034B002814BF10465A
:10AD30001846704780290700742907008068024B75
:10AD4000002808BF184670477C290700C30747BF83
:10AD5000401007EE900A00F1FF4020F003034CBFC3
:10AD6000F8EEE77A07EE903A9FED337AF4EEC77A81
:10AD7000F1EE10FA82B00EDDDFED306A67EEA66A02
:10AD8000FCEEE66A16EE903A1B0206EE903AF8EEFA
:10AD9000666A77EEE67ADFED2A5AF4EEE57AF1EEAE
:10ADA00010FAF0EE086A13D567EEA67A37EE677AE6
:10ADB000FCEEE77ABCEEC77A8DED017A9DF804309F
:10ADC000CDED017A9DF80400000440EA03201AE06A
:10ADD0009FED1C6AF4EEC67AF1EE10FA18D577EE04
:10ADE000E57A67EEA67A37EE677AFCEEE77ABCEE94
:10ADF000C77A8DED017A9DF80430CDED017A9DF88A
:10AE0000040040EA0340400040F0010002B07047F7
:10AE100077EEC67A67EEA67AFCEEE76A77EE677A97
:10AE2000CDED016AFCEEE77A9DF80430CDED017AB4
:10AE30009DF80400C9E700BF00007F430000803B8D
:10AE40000000AA4200002A4308B5FFF7E9FC0148C8
:10AE500008BD00BF7C29070008B50868FFF7E0FCC3
:10AE6000004808BD7C29070008B5086890F8233021
:10AE7000FF2B01D0FFF7E2FC004808BD7C2907004A
:10AE800038B5084B0C681B680025C3F800552079BD
:10AE9000FFF7B4FC60792571FFF7B0FC65710248DB
:10AEA00038BD00BF442201207C29070008B5FFF708
:10AEB000E7FC014808BD00BF7C29070008B5086809
:10AEC000FFF7DEFC004808BD7C29070008B5FFF746
:10AED000ECFC014808BD00BF7C29070008B50868E4
:10AEE000FFF7E3FC004808BD7C290700064BD3F8B8
:10AEF000B83093F8250093F824204000D2B283F8AC
:10AF0000252040F001007047804F0120F0B5134D1F
:10AF10003524013C14F0FF0411D1114D3124013CC2
:10AF200014F0FF0419D02E466F68B84205F10805E9
:10AF3000F5D140F2CA20086040F2063109E02E4601
:10AF40006F68874205F10805E3D10020086040F2F0
:10AF5000A31111603268D2081A60F0BD70F60600C5
:10AF60007822070008B5FFF7E5FC014808BD00BFDF
:10AF70007C29070000487047F85B070008B508689F
:10AF8000FFF740FD004808BD7C29070008B5FFF722
:10AF900039FD014808BD00BF7C290700102070471B
:10AFA00001207047FA2070470B46910702D50269CD
:10AFB000120605D5083007C883E80700002070474F
:10AFC0000120704710B50446FFF798FC2046BDE805
:10AFD0001040FFF78FBC0000024BC3F8B4000248DA
:10AFE000704700BF804F01207C290700024B0348B7
:10AFF00000221A70704700BF384701207C290700E3
:10B0000080687047C06870470079034A034B002886
:10B0100014BF10461846704780290700742907009E
:10B020004079034A034B002814BF10461846704766
:10B030008029070074290700F7B587689DF820600C
:10B040009DF82440042F04D1857C15B1E40844F018
:10B05000E004456A79435DB1042F08BF077C0D44C5
:10B0600008BFEC55477BEA55877BEB55C77BEE5510
:10B07000056A29448568042D11D1857C6DB907EED8
:10B08000904A90ED067AF8EEE77A67EE877AFCEE62
:10B09000E77ACDED017A9DF80440057C4C5507EE2A
:10B0A000902A90ED067A447BF8EEE77A67EE877A8D
:10B0B000FCEEE77A17EE902A07EE903A0A55F8EE82
:10B0C000E77A90ED067A827B67EE877AFCEEE77A84
:10B0D00017EE903A07EE906A8B54F8EEE77A90ED0F
:10B0E000067AC27B67EE877AFCEEE77A17EE903A33
:10B0F0008B5403B0F0BD000000234360004870474C
:10B100007C29070000697047007B7047807B70478F
:10B11000704730B5039C85682560446849B1857BDC
:10B12000B2FBF5F105FB1122017BD2B2C90802FB8B
:10B1300001441C60002030BD10B501241470427B16
:10B140001A70029B82681A6001B1847B039B1C7099
:10B1500010BD000000234360C3600148704700BF7A
:10B160007C290700806A7047807E704790F8240031
:10B17000704710B500241470827E082A94BF002204
:10B1800001221A70029B4FF400721A6021B190F8EC
:10B190002430039A137010BD0123FAE70023C0E99D
:10B1A00001330148704700BF7C29070040697047A0
:10B1B000C07C7047007C704710B500241470827CFE
:10B1C0001A70029BC2681A6019B1C37C039A13708B
:10B1D00010BD0123FAE7008B07EE900AFBEEE87A38
:10B1E00017EE900A20F0030040F00200A0F1FF40AB
:10B1F000704700008068034A034B002814BF1046C4
:10B20000184670478029070074290700406A704774
:10B2100090F82D00704710B50024147001221A70A8
:10B22000029B046A1C6009B190F82D20039B1A70E0
:10B2300010BD30B5838899422CDA00292ADBC388F7
:10B240009A4227DA002A25DB838984685A43837B64
:10B25000DD080FD1C57B41FA05F52A440569008C4C
:10B26000294001FB0333C3F1200154F82230CB40C5
:10B27000184030BD012D04EB820201D1505CF8E78B
:10B28000022D02D132F81100F3E7042D02D152F859
:10B290002100EEE70020ECE7C1EB0141084480EA21
:10B2A00050310C4B9FED0C7A01FB01F04EF64D42F4
:10B2B00002FB0030094B01FB003020F0004307EE99
:10B2C000903AFAEEE07A67EE877AFCEEE77A17EECC
:10B2D000900A70471F07310100007F430DDD0852BF
:10B2E000020C13235343C2B2FF213632B3FBF1F3F6
:10B2F000B2FBF1F2C0F307201344B6225043B0FB77
:10B30000F1F01844C0B27047C2B2030C9342194620
:10B3100010B538BF1146C0F30724A14238BF2146FB
:10B320009342184628BF1046A04294BF081A081B33
:10B3300010F0FF0010D0C9B28B420ED1A21AF02338
:10B340002824624392FBF0F292FBF3F003FB1020FF
:10B35000002800DAF030C0B210BD8C4207D1D21AFA
:10B3600002EB40022823534393FBF0F0F0E78A42BC
:10B3700003D11A1B02EB8002F4E70020EBE7000088
:10B380000079034A034B002814BF10461846704743
:10B39000802907007429070043681A7A12B901202E
:10B3A0001872704700207047C088400040F00100CC
:10B3B00070478088400040F001007047042806D0A4
:10B3C000052806D18868400040F001007047024817
:10B3D00070470020704700BF8029070090F9503067
:10B3E000816A30B5002BB4BFB0F91240B0F91040FB
:10B3F000B0F90C30858923449CB28B7BC3B191F9A1
:10B4000005204B8812FB05F21A4412B2A0F8462020
:10B4100091F90530498813FB04F30B441BB29A429F
:10B42000D2BFA0F84A30A0F84A20A0F8463030BD7C
:10B4300091F904200B8812FB05F21A4412B2A0F80D
:10B44000442091F90430098813FB04F30B441BB228
:10B450009A42D2BFA0F84830A0F84820A0F8443063
:10B46000E5E790F95030816A30B5002BB4BFB0F9F0
:10B470001040B0F91240B0F90E30C58923449CB297
:10B480008B7BC3B191F904200B8812FB05F21A449F
:10B4900012B2A0F8442091F90430098813FB04F398
:10B4A0000B441BB29A42D2BFA0F84830A0F8482003
:10B4B000A0F8443030BD91F905204B8812FB05F20D
:10B4C0001A4412B2A0F8462091F90530498813FBBE
:10B4D00004F30B441BB29A42D2BFA0F84A30A0F842
:10B4E0004A20A0F84630E5E72DE9F04190F82E30EB
:10B4F0009A07044622D4BDE8F081636853F835000A
:10B50000830710D10368B34212D190F85030C0F8CD
:10B51000288023F0140343F0140380F85030FFF721
:10B520005DFFFFF79EFF0135638D9D42E5D3E2E7A6
:10B53000BB42F8D1414600F00BF8F4E7024E034F4E
:10B54000002500F10808EFE7680F0700440B07002B
:10B550000A1E90F82E3018BF012262F3410380F8D2
:10B560002E309B0730B428D58C7BB0F92420B0F95D
:10B57000263014B114461A4623460C8891F904501B
:10B5800005FB024202814A8891F9054004FB03232E
:10B5900043810B7990F8282013FB02F303734B7956
:10B5A00013FB02F343738B7B83750B7B03754B7B20
:10B5B00043758B7913FB02F3837330BCFFF794BFA1
:10B5C000B1F90030B0F900209A42C8BF0380B1F948
:10B5D0000230B0F902209A42C8BF4380B1F904306A
:10B5E000B0F904209A42B8BF8380B1F90630B0F9AF
:10B5F00006209A42B8BFC380704710B5B0F900303A
:10B600001380B1F90040A342B8BF23461380B0F9BC
:10B6100004309380B1F90440A342A8BF2346B2F995
:10B62000004093809C4218DAB0F902305380B1F99F
:10B630000240A342B8BF23465380B0F90600D08031
:10B64000B1F906309842A8BF1846B2F90230D0804E
:10B650008342ACBF0020012010BD0020FCE702881F
:10B6600083889B1AC2884088101A9BB280B25843C4
:10B6700070474FF4B473F0B591FBF3F505FB13116C
:10B6800000250123B0F84220066CB0F84040A0F835
:10B690004410456280F82A30058680F8325021B186
:10B6A000B42920D140F201130386002390F832C060
:10B6B0004363C36340F20113038590F8301090F8A0
:10B6C000313025B217B2BCF1000F16D0078745877D
:10B6D00019B18284FF2280F828201BB1C484FF2383
:10B6E00080F82930F0BDB1F5877F80F832300CBF8B
:10B6F00080F8313080F83030D7E7866319B1FF2108
:10B70000848480F82810002BECD0C284E7E7000086
:10B7100038B5054643680C4619BB174A92F82E10F7
:10B72000C1F3400089071BD5934222D138BD33B104
:10B7300093F82E206FF3410283F82E2054B105F1C7
:10B7400024012046FFF704FF94F82E3043F0020353
:10B7500084F82E3001236C6085F858300120E5E72D
:10B7600014469C42FAD094F82E209207DFD5002090
:10B77000DCE7002BDCD1D9E78C210120836900684C
:10B780001847036A006818472DE9F04F8DB004464A
:10B790000593BDF858300693199B07925A88029278
:10B7A00090F84A20B3F800A0B3F80490DB889DF825
:10B7B0005C809DF860600393072A0D460ED808232D
:10B7C000B3FBF2F290F84B30534390F85020002A2C
:10B7D00000F0B780BAFBF3FAB9FBF3F92046FFF7A4
:10B7E000CDFF002E08BF46468DF828500125B8F140
:10B7F000000F40F0AF800095E76920680AAB424631
:10B800004146B847AB464546AA1C0492B4F84620C8
:10B81000B4F95430FF2A00F2A080DAB25AFA83FA5F
:10B820000CAB2B4403F808AC531E99446A1C0CABB8
:10B83000134403F8089C05F102090AAB2068E76984
:10B84000CDF8009032465946B8472046FFF799FF99
:10B85000059BB3F5807F1BD04FF0010A20468DF881
:10B860002730FFF78BFF2068E769CDF800A00DF1C6
:10B87000270332460021B847C9F3470320680093E5
:10B88000E7690AAB32465146B8472046FFF779FFD1
:10B890002046FFF773FF079B8DF82830B8F1000FA3
:10B8A00007D1012300932068E7690AAB424641466D
:10B8B000B847B4F84820B4F95630FF2A0CAA0CA9AE
:10B8C00002EB050005F101020A44114663D8029D0E
:10B8D000DAB255FA83F300F8083C531E039A134476
:10B8E00001F8083C049B2068009332460AAB594695
:10B8F000E569A8472046FFF744FF069BB3F5807F24
:10B900001CD04FF0010820468DF82730FFF736FF96
:10B91000E5692068CDF800800DF12703324600214B
:10B92000A847049B2068E569C3F3470300933246A8
:10B930000AAB4146A8472046FFF723FF0DB0BDE8FC
:10B94000F08F029AB2FBF3F20292039AB2FBF3F386
:10B95000039343E74FF0000B56E79AB21AFA83FAC3
:10B96000531E0CAA2A44CAF3072102F8081C691CBA
:10B970000CAA0A44A81C02F808AC0CAA4B440244C6
:10B98000C3F3072102F8081C0CAA2A4405F1040994
:10B9900002F8053C51E7029F9AB217FA83F3C3F30A
:10B9A000072C039F00F808CC013A01F8083CA91CB9
:10B9B0000CAB0B441744C7F3072103F8081C2B1DDD
:10B9C00004930CAB1D4405F8057C8BE738B50546A0
:10B9D00034301446FFF711FE10B395F84A20072AB9
:10B9E0001ED80823B3FBF2F395F84B2095F850507E
:10B9F00013FB02F3DBB2A5B1B4F9002092FBF3F123
:10BA000003FB112109B1521A2280B4F9042092FBE0
:10BA1000F3F103FB112119B113445B1AA3802846EB
:10BA200038BDB4F9022092FBF3F103FB112109B1F7
:10BA3000521A6280B4F9062092FBF3F103FB112144
:10BA40000029EDD013445B1AE380E9E740687047B2
:10BA5000A1F120035E2B2DE9F0410E4602D8D8B2A9
:10BA6000BDE8F081C568078A4FF000082F44BD4249
:10BA70005FFA88F401D3FF20F2E72846FBF7D2FEF5
:10BA800001462846FBF7EBFE8E42054608F1010809
:10BA9000EDD104F15F00C0B2E2E70000064A0023E6
:10BAA00052F83310884203D102EBC300FDF718BFF0
:10BAB00001330C2BF4D17047D446012010B5044655
:10BAC0000078FF2801D0FEF799FEFF23237010BDF8
:10BAD00090F8B33090F8B4000322B3FBF2F303FA0A
:10BAE00000F070470268034610783E2805D83B28CE
:10BAF00005D8212806D0402070474028FBD10132CC
:10BB00001A6070473E20FAE710B50C68606818B1FB
:10BB1000FEF786FE00236360004810BD7C29070005
:10BB200010EE102A6F4822F00043834282B04FEAA1
:10BB3000D27111D9B3F1FF4F79D8002940F0CF80ED
:10BB4000DFED697AB4EEE70AF1EE10FA47DDDFEDDA
:10BB5000677A20EE270A6AE0654883425CD9654A25
:10BB600093423CD89FED647A91BB30EE477ADFED8B
:10BB7000637A012337EE670A37EE407A37EE677A49
:10BB8000B6EE005A60EE054A9FED5D6ADFED5D6A34
:10BB900060EE247AE7EE866AB7EE006AF0EE465A67
:10BBA000E6EEA75AF0EE656AF0EE085AE4EEE65AC1
:10BBB000F1EE084AE0EE654A76EEE56AC6EEA45A72
:10BBC00065EEA75ABBBBD0EE257A30EE670A2EE0B1
:10BBD00030EE077ADFED4C7A4FF0FF33CAE7B6EE6E
:10BBE000007A0029FEEE007A08BFF0EE477A9FED5A
:10BBF000477ADFED426A40EE077A9FED3F7AFDEE2D
:10BC0000E77A17EE903AF8EEE77AA7EEC70A67EE02
:10BC1000A67AB0EE407AADE7B3F14C5F09D212F0EC
:10BC2000FF4F04D160EE007ACDED017A019B02B0A6
:10BC300070470023A4E775EEC75A5A1C90EE257A88
:10BC400077EE677A06D170EE676ABEEE000AA6EE5E
:10BC5000850AECE7012B16D1BDEE007AB4EEC70AD7
:10BC6000F1EE10FA06D530EE050A37EEC00AF8EE0E
:10BC7000007A6EE730EE670AF0EE007AA0EE276AEF
:10BC8000B0EE460AD3E703F17F02D205382B06EE69
:10BC9000902A10D930EE670A802B70EE067A05BF25
:10BCA0009FED120A77EEA77A26EEA70A27EE800A02
:10BCB00030EE460ABBE7C3F17F02D20507EE102A39
:10BCC000162BCDBF37EE877A30EE670A36EE476A1D
:10BCD00030EE470A30EE060A20EE260AA7E7BFEE4E
:10BCE000000AA4E743B895418071B1420000007F8B
:10BCF0001872B13E9115853F8071313FD1F71737EA
:10BD00001030CF3A688808BDD1F717B73BAAB83FC3
:10BD100010EE103AA3F50002B2F1FF4F59D35A00CA
:10BD200006D160EE007ABFEE007A87EE270A7047F0
:10BD3000002B04DA30EE407ADFED2B7AF5E7DFED09
:10BD40002B7A60EE277A6FF0180117EE903A284AA6
:10BD50009FED285A9FED284A1A44D30D7F3B0B4490
:10BD600006EE903A254BC2F31602134407EE903AC2
:10BD7000B7EE000A77EEC07AB0EE007A37EE877A37
:10BD8000F8EEE66AC7EE875A9FED1D7A9FED1D0A11
:10BD900065EEA54A26EE800A24EEA46AA6EE075AAE
:10BDA0009FED197AA6EE047A27EE247AA5EE067A9C
:10BDB000B6EE006A27EE866AA6EE277AA7EE250A77
:10BDC000A6EE670A30EE270ADFED107AA6EEA70A84
:10BDD0007047B3F1FF4F06D2B3F17E5F01D000216F
:10BDE000B5E79FED010A7047000000000000004C1D
:10BDF0000DFB4A0013CECC3EEEE9913EF304353FF5
:10BE0000269E783ED1F71737AAAA2A3F8071313F84
:10BE100008B5FFF77DFFDFED027A80EE270A08BD47
:10BE20008E5D134008B5FFF773FFDFED027A80EEF9
:10BE3000270A08BD1872313F10EE103AC3F3C752FB
:10BE4000A2F17F01162982B013DC002913DB124A0C
:10BE50000A411A420DD0DFED117A30EE270A002B8D
:10BE60008DED000AA8BF9B18009923EA020300EE9B
:10BE7000103A02B07047DFED097A30EE270A002B46
:10BE80008DED010A019A04DB5A0018BF4FF07E5372
:10BE9000EDE74FF00043EAE7FFFF7F000000807B03
:10BEA00010EE103AC3F3C752A2F17F01162982B0F7
:10BEB00013DC002913DB124A0A411A420DD0DFEDD0
:10BEC000117A30EE270A002B8DED000AB8BF9B18BF
:10BED000009923EA020300EE103A02B07047DFED4A
:10BEE000097A30EE270A002B8DED010A019A04DA57
:10BEF0005A00054A18BF1346EDE70023EBE700BFE1
:10BF0000FFFF7F000000807B000080BF10EE103A32
:10BF100023F00042B2F1FF4F70B502D3A0EE000A49
:10BF200070BD002AFCD0002B04DA70EE407A87EE58
:10BF3000A70AF5E713F0FF424FEAE35129D0C3F314
:10BF4000160242F40002CB07A1F17F0058BF520055
:10BF500000234010520019241E464FF080717518BE
:10BF60009542DEBF6E18521B5B18013C4FEA42023D
:10BF70004FEA5101F3D112B1013323F001035B10F9
:10BF800003F17C5303EBC05300EE103AC8E75B00AB
:10BF900001321802FBD5013A891AD0E710EE103AA7
:10BFA00023F00043B3F1485F04DAFDEEC07A17EEE8
:10BFB000903A5BB320EE007ADFED157A9FED156ABB
:10BFC000A7EE276ADFED147AE6EE077A9FED136A93
:10BFD000A7EE876ADFED127A60EE076AE6EE077A6F
:10BFE00030B99FED106AA7EE276AA6EE260A7047C1
:10BFF00067EEE67AB6EE006AE0EE867AD7EE870A5A
:10C00000DFED097AE6EEA70A30EE600A704700BF5E
:10C01000D3C92E2F342FD7B21BEF3836010D50B9AC
:10C020008988083CABAA2ABEABAA2A3E10EE103A79
:10C0300023F00043B3F1485FB7EE006A05DAFDEE86
:10C04000C07A17EE902A002A3DD060EE005ADFED4C
:10C050001F7A9FED1F7ADFED1F6A1F4AA5EEA77AB0
:10C060009342DFED1E7AE7EE257A9FED1D7AA7EE6B
:10C07000A57ADFED1C7AE7EE257AB0EE667AA7EEB8
:10C08000A57AF6EE006A65EEA67A67EE256A20EEDE
:10C09000C07AA5EEA67A04DC37EEC77A36EE470AF8
:10C0A0007047114A9342DABF03F17F4306EE903A9C
:10C0B000F5EE026A77EEE67A36EE660A77EEC77A32
:10C0C00030EE670A7047B0EE460A70474ED747AD6C
:10C0D000F6740F31ABAA2A3D9999993E7CF293B43C
:10C0E000010DD037610BB6BA0000483F10EE103A90
:10C0F00023F00042B2F1465F16DAFDEEC07A17EE89
:10C10000901A39BB431C134306D1F0EEC07AB7EE48
:10C11000007A87EE270A7047012800F0A080FFEE22
:10C12000007A87EE800A70474D498A4212DBDFEDC4
:10C130004D7A002BB8BFB1EE400A37EEC00ADFEDF2
:10C140004A7AB8BFF1EE600A77EEE00A30EE800A74
:10C15000DFED460A9FED466ADFED466ADFED465A9F
:10C160003F4920EE007A8A4267EE077AE7EE866A58
:10C170009FED426AA6EEA76ADFED416AE6EE276A06
:10C180009FED406AA6EEA76ADFED3F6AE6EE276AFA
:10C190009FED3E6AA7EEA56ADFED3D5AE6EE275A0F
:10C1A0009FED3C6AA5EEA76ADFED3B5AE6EE275A03
:10C1B0009FED3A6AA5EEA76AF0EE467AE7EE876A47
:10C1C00020EE076AF0EE667AF0EE606AE7EE866AC5
:10C1D000DFED337AE6EE870AE6EE270A30EE207AC4
:10C1E0001DDB07EE900AF8EEE77A27EE076A37EED6
:10C1F000277A9B17C6EE076A03F00203C3F1010317
:10C20000B0EE007A76EEE00A70EE600A00EE103AC8
:10C21000E0EEC77AB8EEC00A20EE270A7047012880
:10C220001BD0FFEE007AC7EE876A1E4B17EE102A6E
:10C230001A4006EE102A16EE902A36EE400A1340F7
:10C2400070EEC00A00EE103AF7EE007AE6EE007AE1
:10C25000E0EE807AA7EEA60A7047B0EE470A704774
:10C2600040A12C3FDA0F493F682122330000000033
:10C270005FAE9BB745F4A3388453D937C8261A3A22
:10C2800016696B3BA427B33C8988083E7AC0953871
:10C29000B937813948DEBE3A1F37113CD10D5D3DBB
:10C2A000ABAAAA3E00F0FFFFDFED0A7A9FED0A7A03
:10C2B000DFED0A6AA0EE277ADFED097AE7EE007A71
:10C2C000B7EE007AA0EE267A67EE807A87EE870ACC
:10C2D000704700BF6BD30DBCBA132FBDAEE534BFA2
:10C2E00075AA2A3E10EE102A08B522F00043B3F1D9
:10C2F0007E5FB0EE406A12D319BF76EE467A9FEDAC
:10C300001F7ADFED1F7A9FED1F7A12BF87EE276A33
:10C31000E0EE077AB0EE676AB0EE460A08BDB3F108
:10C320007C5F0BD2A3F50003B3F1645FF4D320EE7E
:10C33000000AFFF7B9FFA6EE006AEDE7B0EEC06AAB
:10C34000B7EE000A30EE466AB6EE000A26EE000AA4
:10C35000B1EEC06AFFF7A8FF002AF0EE007AA0EE67
:10C36000066A9FED090AA6EE270A9FED066A36EED9
:10C37000406AB8BFB1EE466ACEE700BF00000000D9
:10C3800000008003DA0FC93F6821A2B308B510EEA0
:10C39000103A23F00042B2F17E5FF0EE405A10D323
:10C3A00008D19FED300A9FED306A002BA8BFB0EE98
:10C3B000460A08BD70EE405ADFED2B7A87EEA50ADB
:10C3C000F7E7B2F17C5F11D2B2F14A5F9FED276AC5
:10C3D00044D920EE000AFFF767FFDFED257AE0EE93
:10C3E000657A35EEE70A36EE400AE2E7002BB7EE53
:10C3F000000AF6EE007A14DA35EE800A20EE270AFB
:10C40000F1EEC05AFFF750FF9FED1A6AA0EE256AC1
:10C410009FED160A75EE865A30EE650A30EE000A78
:10C42000C7E730EE650A20EE270AB1EEC05AB0EE3B
:10C43000407A15EE103A23F47F6323F00F0306EEE3
:10C44000103AA6EE467A75EE067AC7EE275AFFF73F
:10C450002BFFE0EE055A36EE250ADFE7B0EE460A7E
:10C46000A7E700BFDA0F494000000000DA0FC93F1C
:10C470006821A2336821A2B310EE102A22F00043F3
:10C48000B3F1994F82B04FEAD2700ED3B4EE400AA6
:10C49000F1EE10FA07D69FED410ADFED417A002850
:10C4A00008BFB0EE670A02B070473E498B420BD816
:10C4B000B3F1665F5AD212F0FF4FF4D160EE007A0A
:10C4C000CDED017A019BEEE7374A9342F0EEC07A58
:10C4D00037D8A2F5D002934229D8F0EE006ABFEE19
:10C4E000007AA7EEA67A002377EEA67A87EE270ACF
:10C4F0005A1C60EE006A9FED2D6ADFED2D7ADFEDAC
:10C500002D5A26EEA67AE7EE067A9FED2B6AA7EE65
:10C51000876ADFED2A7AE7EE257A67EE877AE6EE1C
:10C52000267A60EE277A24D130EE670ABBE7B7EEB1
:10C53000007A77EEC76A77EE877A012386EEA70A3C
:10C54000D6E71F4A93420BD8F7EE086AB7EE007A97
:10C55000A7EEA67A022337EEE66A86EE070AC7E759
:10C56000BFEE007A87EE270A0323C1E74FF0FF33BF
:10C57000BEE7144A144902EB830201EB830393EDF7
:10C58000007A77EEC77A37EEC00AD2ED007A37EE3E
:10C59000C00A002887D0B1EE400A84E7DA0FC9BF8D
:10C5A000DA0FC93FFFFFDF3EFFFF973F25AC7C3D21
:10C5B0000DF5113E4712DABDA9AAAA3E98CA4CBE93
:10C5C000FFFF1B40A4DF0600B4DF060070B510EECD
:10C5D000105A25F000440123B4F1FF4FB0EE403A69
:10C5E0000646036004DB60EE003AB0EE630A70BDFD
:10C5F00034B9DFEDCA7AB7EE007AC7EE273AF4E72E
:10C60000B4F1E45F0BDA002DBEBF4FF0FF330360DF
:10C61000B1EE400AFFF77CFBF1EE403AE5E7002D72
:10C6200080F2C082B4F1964FE3DAB4F17A5F9FED05
:10C63000BC5A78DADFEDB90A20EE050A0020FFF7D0
:10C64000ADFCF0EE403AF5EE403AF1EE10FAD0D003
:10C6500023EE230AB0EEC00A85EE000AFFF758FB6E
:10C66000F5EEC03AF1EE10FA4CBF4FF0FF33012364
:10C67000B4F17E5FF0EE402A336000F08D82B4F1B9
:10C68000804FB1EE433A00F087826B0000F1D28117
:10C69000A44B9C4200F3F380B0EE430AFFF738FB53
:10C6A000A14B9C42F1EE407A40F39B80F7EE003ABA
:10C6B00033EEC33A23EE037ADFED9C6A9FED9C6A6A
:10C6C000DFED9C3AA7EE266ADFED9B6AE6EE076A8D
:10C6D0009FED9A6AA6EE876ADFED996AE6EE076A31
:10C6E0009FED986AE6EE873ADFED976AE7EE066A15
:10C6F0009FED966AA6EE876ADFED956AE6EE076A19
:10C700009FED946AA6EE876ADFED936AE6EE076A0C
:10C7100063EE833AE6EE873AB6EE007AE3EE473A06
:10C7200073EEA73AF5E1B1EE407AB0EE470AFFF7B3
:10C73000B7FBB4EE407AF1EE10FA19D0B6EE000A6B
:10C7400027EE007AB0EE470AFFF7AAFB37EE400A61
:10C7500030EE000AF0EE407AFEEECF7A17EE903A15
:10C76000062B39D8DFE803F02312121F1F2B2B00F2
:10C77000DFED7A7A77EEC37A17EE903A03F0010391
:10C7800007EE903A9B00B8EEE70AE9E7F6EE007A8A
:10C7900037EEC00ADFED610A20EE050AFFF746FC1E
:10C7A000F1EE403A4FE7F7EE007A37EEC00ADFEDE0
:10C7B0005B0A20EE050A0020FFF7F0FBF0E7F7EE3A
:10C7C000087A30EE670ADFED550A20EE050AFFF71A
:10C7D0002DFCB1EE400AE3E7F0EE007A30EE670A96
:10C7E000E5E75F4B9C4264DDDFED5E3A73EE633A52
:10C7F00063EEA34A9FED5C6ADFED5C6ADFED5C5A95
:10C800009FED5C5A9FED5C0A24EEA37AE7EE066A80
:10C810009FED5A6AA6EE876ADFED596AE6EE076A6F
:10C820009FED586AA6EE876ADFED576AE7EE265A53
:10C83000DFED566AE5EE876ADFED555AE6EE875A78
:10C84000DFED546AE5EE876ADFED535AA7EE255A0D
:10C85000DFED525AE5EE075A9FED515AA5EE875A81
:10C86000DFED505AE5EE075AE5EEA36ADFED4E3AEA
:10C87000E6EEC73AD4EE863A73EEC03A50E74B4B39
:10C880009C4206DDF0EE003A33EEC33ADFED237A48
:10C8900010E7474B9C4206DDDFED463ADFED1F7A9D
:10C8A00073EE633AA4E7F7EE007A33EE673ADFED12
:10C8B0001B7ADFED416A9FED417A9FED416AA3EE5D
:10C8C000267ADFED406AE7EE036A9FED3F7AA6EE37
:10C8D000837ADFED3E6AE7EE036A9FED487AA6EEC3
:10C8E000837ADFED3B6AE3EE066A9FED3A6AA6EED5
:10C8F000836ADFED396AE6EE036A9FED386AA6EED9
:10C90000836AF7EE006AE6EE036A27EE037AC7EE63
:10C91000263ABEEE007AE3EE073A01E70000000097
:10C92000DB0F49406666663F1F4A3B3FA283D33711
:10C93000679767393F239E3DA1549C3A7E02F23BA4
:10C9400001F0893D752C3C384584E23834B6053A0F
:10C95000C66E3D3B1599A83C661AA53E0000004BEB
:10C9600007336D3E0C5BEC3E6B7BA53976F4B7BAB2
:10C9700067F8663A85300DBACDCDF83D07E7C73B7D
:10C98000474D06BD5EB9F73E27F9A3B9FE7771BBE7
:10C990003D37933C3C2117BEF7E9AF399916143B5C
:10C9A000FEFC28BC155A843D521CE63117A6DD3F1B
:10C9B0001FA69D3FC316BB3F5E3C5B3C78756A3E3D
:10C9C000DBD5523BB24B7A3FE73ABA3FF400223F05
:10C9D000AF72D53DDFEF443F2D390840BE2E1D40DC
:10C9E00067FF0538B435F13ABDD7F536E440DA3C97
:10C9F000E6DC153E7ACCA63E5A245C3E3F239EBD23
:10CA0000D6EE4B3A54BF983C6E0F303EC5D0383FFF
:10CA10003B2DB23FE8C4D5BAD23D5B3A1D7FD63E2E
:10CA20005C061CBAFD0C503A610B36BBABAAAA3DA2
:10CA300000000000B4F1824FB7EE002A7BDABDEEB1
:10CA4000C36A5FED197A1FED197A5FED196AF8EE86
:10CA5000C63A16EE103A33EE633A033BA3EE277A5A
:10CA60005FED1E7AE7EE037A1FED1F7AA7EE837A59
:10CA70005FED207AE7EE037A1FED217AA7EE837A45
:10CA80005FED227AE7EE037A1FED237AA3EE267A92
:10CA90005FED246AE7EE036A1FED257AA6EE837A3E
:10CAA0005FED266AE7EE036A1FED277AA6EE837A2A
:10CAB00067EE837AA7EE032AC7EE823AF6EE007A93
:10CAC000E3EE273A042B24D8DFE803F0322F2C2999
:10CAD0000300F1EE087A33EE270AF1EE047A73EEE2
:10CAE000277A67EE807AB1EE000A33EE000A60EE34
:10CAF000277AB0EE080A33EE000A20EE270AF0EE9D
:10CB0000007A33EE273A23EE000AFFF701F973EEBD
:10CB1000803A002DBFF669AD72EEE33A65E5B7EEF7
:10CB2000000ADAE7F7EE007ADDE7F7EE007AE0E7F1
:10CB3000B7EE000AE3E7B0EE430AFFF7E9F8B4F115
:10CB4000B94F30EE420A24DA82EE037A1FED4F6AC3
:10CB50005FED4F6A5FED4F3A67EE077AE7EE866A60
:10CB60001FED516AA6EEA76A5FED526AE6EE276AEC
:10CB70001FED536AA6EEA76A5FED546AE6EE276AD8
:10CB8000F6EE007AE6EE873A33EE673AE3EE003AE5
:10CB9000BFE763EE003ABCE75FED5B3ABCE75FEDF1
:10CBA0005C3A22E5B4F17E5FF9D0B4F1804FF6D063
:10CBB0005FED612A69E500BF07B501A8FFF706FD33
:10CBC00003B05DF804FB422905D1835C00EE103A06
:10CBD000B8EE400A7047622905D1835600EE103A3C
:10CBE000B8EEC00A7047482902D130F81230EDE79C
:10CBF000682902D130F91230F0E700EB820090EDA5
:10CC0000000A7047044B0B60044BC1E9013000235C
:10CC1000CB600846704700BF60540700C58A040017
:10CC200008B50069FBF746FE80F00100C0B208BD00
:10CC300082070ED10068094B98420CD0084B9842ED
:10CC400009D0084B984206D0074BC31A58425841A6
:10CC50007047002070470120704700BF60800700C8
:10CC6000F4560700F8520700D8540700F0B501F059
:10CC70001F014368C1F11F0523FA05F58B4043608E
:10CC800083685E1A002E4FEA550586602CDAC2686A
:10CC9000032AA1EB030129DD04682746631C036016
:10CCA00017F8023B1B06C0E90073677843EA0743A5
:10CCB000E71C43600760A77843EA0723271D43600A
:10CCC0000760E47823434360043A20238360C26012
:10CCD000436806F1200223FA02F21543826803FA40
:10CCE00001F11644866041602846F0BD0023436090
:10CCF000144647684CB9C2F10303DB0007FA03F39B
:10CD0000D200C0E902244360E2E7036803F1010CAA
:10CD1000C0F800C01B783B431B02013C4360E8E7BE
:10CD2000F0B510B94FF0FF30F0BD0368002BF9D01B
:10CD30000A78FF2AF6D14C7804F0E002E02AF1D11B
:10CD4000E20814F0180F1ABFD24302F001020222C7
:10CD50001A704C78C4F34104C4F104045C604D784B
:10CD6000ED4305F001059D608F783F09DF608E7807
:10CD7000C6F381061E618D78C5F340055D618D782F
:10CD800005F001059D61CD78AD091D7791F803C0CF
:10CD9000CCF3011CC3F820C091F803C0CCF3C00C45
:10CDA000C3F824C091F803C0CCF3800CC3F828C0AA
:10CDB00091F803C0032E0CF0030CC3F82CC0B1D0C3
:10CDC000042CAFD00F2FADD0DE2454434A2212FBE7
:10CDD0000642384E012D16445E6303D00022032D17
:10CDE0001A6262D00222C0F8BC271A781C6902EBD2
:10CDF00042022244304C54F82220C0F8C0271A784E
:10CE0000002A0CBF02250125C0F8C4571A785C68B7
:10CE100002EB4202013C2244284C34F9122092FBDE
:10CE2000F5F2C0F8C8275A68C0F8D0271C7880F8F7
:10CE3000D447DE68002E30D05A68013AC2EB0215A2
:10CE40002D2202FB045434441D4D35F814404FF498
:10CE50007A7514FB05F4C0F8B8471D691C78C5EB5A
:10CE6000051502FB0452DD682A44164D35F91220DF
:10CE70001D7F6400032D18BF0134134D35F9144094
:10CE80005D69121B9C68002C18BF0224043A121B17
:10CE9000002D18BF0132C0F8CC279A683AB18A88B1
:10CEA00052BA92B21A6306203EE701229BE71A6348
:10CEB000042039E752DD07001CDD070040DD0700D4
:10CEC000A8B20700F8DF0700ECDF07002DE9F04FFC
:10CED00087B0CDE90323109B052B8C4600F3078315
:10CEE000C3F1060E00F17C01031F53F8042F42FA30
:10CEF0000EF299421A60F8D1C56F0368D0E90F1499
:10CF00005A195B1B7D4D85FB03630D195B00091BE3
:10CF10007B4C84FB0161541904604901794C521B1C
:10CF200084FB02525200C2635A1802645B1A84FBEB
:10CF300003235B00856FC3674368816B446C5A1998
:10CF40005B1B714D85FB03630D195B00091B6F4C67
:10CF500084FB016154194460C9006D4C521B84FB71
:10CF60000252520082635A1842645B1A84FB032304
:10CF70005B00456F83678368416B846C5A195B1B48
:10CF8000644D85FB03630D195B00091B624C84FB38
:10CF9000016154198460C900604C521B84FB025229
:10CFA000520042635A1882645B1A84FB03235B00BD
:10CFB000056F4367C368016BC46C5A195B1B584DFE
:10CFC00085FB03630D195B00091B564C84FB016153
:10CFD0005419C4608900544C521B84FB0252520005
:10CFE00002635A18C2645B1A84FB03235B00C56E9C
:10CFF00003670369C16A046D5A195B1B4B4D85FBBE
:10D0000003630D195B00091B494C84FB0161541932
:10D0100004618900474C521B84FB02525200C262D9
:10D020005A1802655B1A84FB03235B00856EC36696
:10D030004369816A446D5A195B1B3F4D85FB03634D
:10D040000D195B00091B3D4C84FB016154194461BF
:10D0500049003B4C521B84FB0252920082625A18D8
:10D0600042655B1A84FB03239B00456E83668369DC
:10D07000416A846D5A195B1B324D85FB03630D19A0
:10D080005B00091B304C84FB016154198461490029
:10D090002E4C521B84FB0252920042625A18826547
:10D0A0005B1A84FB03239B00056E4366C369016A18
:10D0B000C46D5A195B1B264D85FB03630D195B007C
:10D0C000091B244C84FB01615419C4614900224CA2
:10D0D000521B84FB0252120102625A18C2655B1A8B
:10D0E00084FB03231B0103661C4FDFF874B000F1BF
:10D0F000A00300F12002059334E000BF51C21340A9
:10D10000FB22855172464F40BD45B340CF200B6D89
:10D11000103CE1426D2DFA419057D941449F91480E
:10D120002134F943968DFC5E630ECB52C41BCC4672
:10D13000971AD84A2E40E264F09C9D4AB31D7D7C2C
:10D14000A924E2431137AE4F26CF6F6BC1923C6EDC
:10D15000A71E6056EBF64C5F044E9E51240107005B
:10D160009A79825A52F8203C52F8044C3E6E1919B2
:10D1700052E905851B1B86FB034308EB05067C6E05
:10D180005B00A8EB050884FB08584FEAC804BD6E95
:10D1900001EB0608891B85FB01611E1949000091FE
:10D1A00001961B1B85FB03435B0052F8089C02930E
:10D1B00052F81C3C52F8185C52F80C6CF96E03EBF8
:10D1C0000904A3EB090381FB039305EB0609396FFF
:10D1D0005B00AD1B81FB05A504EB0906D7F874A025
:10D1E0006D00A4EB09048AFB049403EB0509A40079
:10D1F0005B1B8AFB03539B00A8EB06058BFB05A575
:10D200000099A1EB040A8BFB0A1A4FEA4A0142F883
:10D21000141C0099214401EB4A0142F8181C0199A1
:10D2200046446D0042F8206C42F81C5CA1EB0901F9
:10D230008BFB0141029C029D1C444900EB1A8BFBB5
:10D240000353019E04EB43045D00B14401EB43032F
:10D2500042F80C3C09EB0406059B42F8106C0C44A8
:10D2600042E902452032934207F118077FF47AAF72
:10D27000DDE903329C1A002A04F0070404F58064F7
:10D2800014BF4FF000084FF4885808EB84050CEBEE
:10D29000050703683B624CF80530039B466814BFE2
:10D2A0004FF48852002202EB83020CEB02031E6251
:10D2B0004CF80260466E426F3244466C1644C3F826
:10D2C0002061C3F80061416B466A0E44C3F82062D6
:10D2D000C3F80062416D0A44C3F82023C3F8002359
:10D2E000466FC26E32444669C3F82064C3F80064D6
:10D2F000466D1644C3F82065C3F80065C16A466BE5
:10D300000E44C3F82066C3F80066C16C0A44C3F833
:10D310002027C3F80027C66EC26F3244C668C3F820
:10D320002068C3F80068C66C1644C3F82069C3F8C7
:10D330000069C16BC66A0E44C3F8206AC3F8006A6C
:10D34000C16D0A44C3F8202BC3F8002BC269C66F15
:10D35000C3F8202CC3F8002CC26D3244C3F8202D32
:10D36000C3F8002DC26BC3F8202EA5F57C61C3F86D
:10D37000002EC3F8206F0CEB0102C3F8006F446865
:10D3800014624CF80140446E816F466C21440E4497
:10D39000C2F82061C2F80061466A846B3444C2F866
:10D3A0002042C2F80042866D3144C2F82013C2F810
:10D3B00000138169C2F82014C2F80014846F816ED2
:10D3C000866D21440E44C2F82065C2F80065866B64
:10D3D000846A3444C2F82046C2F80046866C314460
:10D3E000C2F82017C2F800178168C2F82018C2F8E6
:10D3F0000018846E016F866C21440E44C2F82069C7
:10D40000C2F80069866A046B3444C2F8204AC2F844
:10D41000004A066D3144C2F8201BC2F8001B0169A6
:10D42000C2F8201CC2F8001C046F016E066D214476
:10D430000E44C2F8206DC2F8006D046A066B3444D5
:10D44000C2F8204EC2F8004E046C2144C2F8201FDE
:10D45000C2F8001FBEF1000F46D05CF80510CEF1F7
:10D460001F044FF0004041FA04F820FA0EF0CE17E6
:10D47000B8EBE17F00F1FF3018BF80EA060101FA46
:10D480000EF139624CF8051003F1200503F58153C4
:10D4900055F8201C41FA04F7B7EBE17F4FEAE1763B
:10D4A00018BF80EA060101FA0EF1296045F8201C38
:10D4B00005F58075AB42EBD102F1200102F58152F6
:10D4C00051F8203C43FA04F6B6EBE37F4FEAE375EC
:10D4D00018BF80EA050303FA0EF30B6041F8203C05
:10D4E00001F580718A42EBD107B0BDE8F08F4FF0B3
:10D4F000000E01E538B10023002801DA1846704714
:10D5000001334000F8E72023F8E700002DE9F04F51
:10D510000446594D5948DFF89091884603F00301BD
:10D520009B1089B01F2B05EB81159C4650F82110EC
:10D530000291A8BF4FF01F0C1C2B1946A8BF1C213D
:10D540006E68033121EAE1710E410596AE680E4125
:10D550000696EE68002046FA01F104EB8202049080
:10D5600007910392019054F8046B454A164226F045
:10D57000004114D108AA02EB810151F8102C019945
:10D58000002E41EA0201B8BF524248F8042B039A28
:10D590000191A242E7D1019809B0BDE8F08F394A64
:10D5A00016420AD1002B55F82110BABFCCF1000267
:10D5B00001FA02F241FA0CF2E1E7334A164214D1C1
:10D5C0001039324A029F52F8212082FB0717ACF132
:10D5D000030100294DDA49426FF0004242FA01FE90
:10D5E000BE45CCDB07FA01F2C9E74A04B2F1006F8D
:10D5F000B6BF4A0500210421B2F1005FBCBF920012
:10D600000231234F2348B2F1804FBCBF5200013199
:10D61000BA42214FC8BF38468346204F2048D4BF66
:10D62000BE4686469246584680FB0ABADEF804702B
:10D630005744924687FB0ABADEF808705744924670
:10D6400087FB0ABADEF80C70574487FB02A2DEF8AB
:10D6500010703A4459F8217082FB07E74FEAC70E71
:10D66000029F8EFB07270F4A52F82110ACEB0101F5
:10D67000AFE747FA01F282E79C6007008C5F070082
:10D68000FCFFFF7FF0FFFF7FC0FFFF7FDC5F070035
:10D690009979825AA9BDA02963218510585F070096
:10D6A000445F07009C5F0700BC5F07002DE9F74F50
:10D6B0000368816982680469066AD0F80CC05B1A45
:10D6C0000193C1694369591A131BA3EB060B02EBC3
:10D6D000040E364B83FB0C5C45684769EF1BC5693C
:10D6E0007F1B83FB0757324DF04685FB0838314BD3
:10D6F000324483FB0292361B85FB0646744683FB4D
:10D700000454DFF8B4A08E468AFB0E3E4368C56918
:10D71000DFF8A8902B4489FB0353456800934369C5
:10D720001D448AFB053589FB01A10368994683697D
:10D7300009EB630A019B0AEB4C09AAEB4C0C03EBC7
:10D740006B0A009B520002EB48025B00490003EBAE
:10D750004E0EC1EB450509EB020171446400C4EBB8
:10D76000460601600AEB470141600CEB0601941983
:10D770002944A5EB0E038160ACEB0401C91AC1601A
:10D780000199A9EB04044E446244A1EB0B011C4433
:10D79000751BAAEB4707A2EB0E020161446185618C
:10D7A000C761026203B0BDE8F08F00BFA1EBD96E84
:10D7B0008BBE0D627E1A3A1649DD4652322E0E7E1F
:10D7C0002DE9F0410568C4688269436A066BC06B45
:10D7D000DFF87CC0361A9B1BD21AA41A1B1A2D1B09
:10D7E000E41A6D1064108CFB027205EB6607AD1B2A
:10D7F00007EB4206A7EB42078CFB032304EB600216
:10D800004FEA430CDFF84CE002EB43038EFB03834B
:10D81000201A9B000C4C84FB00E00C4C8000A2EB17
:10D820000C0284FB02C2F4180C602C184C60281AFD
:10D8300007EB8204F31AA7EB82028C60CA600861CE
:10D840004B61BDE8F08100BF9A79825A83FB2021A9
:10D85000A1EBD96E1D75A37B022A2DE9F0415AD1A7
:10D860003B4B826883FB02423A4E846986FB045438
:10D8700022440A60384C426884FB0252374FC56923
:10D8800087FB05C52A444A60026883FB0252056A89
:10D8900086FB05752A448A60314F026887FB025275
:10D8A000304D066A85FB06C63244CA604FF06046BA
:10D8B000426886FB02C2D0F81CC086FB0CEC6244B6
:10D8C0000A61826885FB02C2D0F818C087FB0CECA5
:10D8D00062444A61426983FB02C28A61026984FB35
:10D8E00002C2CA61C26883FB02420A62C36887FB44
:10D8F00003234B62036986FB03238B62436985FB29
:10D900000323CB620023C1E91033C1E90E33C1E91F
:10D910000C33BDE8F081144B902404FB023202F179
:10D92000480C01F144058C3200F1240E50F8043B00
:10D9300052F804695CF8047B1C4687FB048441F8B8
:10D94000044B86FB0343864545F80439EED1E0E7F6
:10D95000D8E3CEB8281C310733C3BEB2CD3C410D4D
:10D960009A615FC9669EA0F65CD607002DE9F04774
:10D9700002F001028BBB6AB3D0F88020D0F880722D
:10D98000D0F88063D0F88054D0F88045D0F8801665
:10D990005242C0F88020D0F880215242C0F8802145
:10D9A000D0F880275242C0F88027D0F880287F42E4
:10D9B000524276426D4264424942C0F88028C0F823
:10D9C0008072C0F88063C0F88054C0F88045C0F809
:10D9D00080161A461046BDE8F0874FF00044DC4040
:10D9E000013C00F51067C3F11F06002A3DD000225C
:10D9F00094469646056845FA06F94FEAE578B9EB8C
:10DA0000E57F18BF88EA04059D400560E04685EA89
:10DA1000E578A8EBE578D0F880506D4245FA06FA33
:10DA20004FEAE579BAEBE57F18BF89EA04059D4026
:10DA3000C0F88050F14685EAE579A9EBE5790D68F3
:10DA400048EA090845FA06F9B9EBE57F42EA080217
:10DA50004FEAE57818BF84EA080500F580709D401C
:10DA6000B84241F8045BC5D1B4E7944696460568D0
:10DA700045FA06F94FEAE578B9EBE57F18BF84EA85
:10DA800008059D400560E04685EAE578A8EBE57865
:10DA9000D0F8805045FA06FA4FEAE579BAEBE57F0F
:10DAA00018BF84EA09059D40C0F88050F14685EA18
:10DAB000E579A9EBE5790D6848EA090845FA06F920
:10DAC000B9EBE57F42EA08024FEAE57818BF84EA3D
:10DAD000080500F580709D40874241F8045BC6D17F
:10DAE00078E730B570B930BD21F813500133D0F864
:10DAF000C827D0F8C4475443D0F8BC2762439342A8
:10DB0000F2DBF0E700231D46F1E703460139002070
:10DB1000814202DC4FF0FF30704713F8012BFF2ADF
:10DB200004D11A7802F0E002E02AF5D00130EFE7E4
:10DB300010B5014691F86B2002F0FF03002AF9D1DD
:10DB40000A68012050601064D2F840258A6B086C86
:10DB5000106091F860205C1C02EB4202DBB2B3EB78
:10DB6000420F0ADB0024B1F85C309C420BD38A6A76
:10DB70000B6B1360CA6A136010BD0A69D05CFCF7B6
:10DB800006F82346E5E791F85F00FBF7F3FF00BFD7
:10DB900000BF91F85F00FBF7FAFF0134E3E72DE9DE
:10DBA000F04F90F864404569466A89B0544301EBF0
:10DBB0004403009390F8653033B190F86730C76C38
:10DBC000C3F1010307FB0366D31DDB10DF00C2EBCB
:10DBD000C30356FA83FB90F863300797062B1AD0DD
:10DBE000C3F10503DBB24FF400669E400396402666
:10DBF0009E400496012606FA03F305935300029310
:10DC00004FF0000990F864605FFA89F39E4261D892
:10DC100009B0BDE8F08F20231024CDE904344FF47F
:10DC200000430393EAE731F81780009B33F817A00D
:10DC300018EA060318BF2B7818EA0E0F1CBF6C7881
:10DC4000234318EA0C0F1CBF95F8028043EA08032F
:10DC50001AEA060F1CBF95F8038043EA08031AEA84
:10DC60000E0F1CBF95F8048043EA08031AEA0C0F54
:10DC70001CBF95F8058043EA08030BF8073001370D
:10DC8000BBB29A42CFD8069C90F863304FEA4E0E52
:10DC90000CB9052B19D876004FEA4C0C079B9B4416
:10DCA000019B013301939DF804300693069C90F884
:10DCB0006330A34207D8029B009C1C441944009483
:10DCC00009F101099EE70027DAE74FF0010C4FF454
:10DCD0000066E3E7DDE904EC039E0023E2E790F849
:10DCE000653033B1012380F86B3090F86B30002B36
:10DCF000FBD1704738B590F8633090F86420013B51
:10DD0000DBB280F86830531EDBB280F86930012A3C
:10DD100088BF90F86930026886BF03F1FF33DBB239
:10DD2000012380F86A30002380F86B300146836558
:10DD30001C4882420FD01C4B9A422DD003F58053D1
:10DD40009A422BD003F580339A4229D003F58053B1
:10DD50009A4217D10423154850F833200024012596
:10DD600000EBC3035560C2F80445D560C2F808450E
:10DD7000C2F810454FF4803493F90400C2F804430C
:10DD8000FBF794FE0B6801224FF47A715A60DA6057
:10DD9000C3F840151A6038BD0123DCE70223DAE737
:10DDA0000323D8E7008000400090004084790700FA
:10DDB00038B5044690F8B7300D4631B113B9143078
:10DDC000FFF7B6FE84F8B75038BD002BFAD01430F8
:10DDD000FFF790FFF6E708B5B5EEC00AF1EE10FACE
:10DDE00094BF01210021FFF7E3FF012008BD0000DF
:10DDF0002DE9F04F87B000264FF0007C00900A68B4
:10DE0000CB6D64463546C2FB06456FF0730EC3FB0F
:10DE10000E45D1F8DC70D1F8800062463346C0FB75
:10DE20000623C7FB0E234FF4557A4868C0FB0A450A
:10DE3000834F886DC0FB0745D1F88400C0FB0A23DF
:10DE4000D1F8D800C0FB072341F6D4798868C0FB1D
:10DE500009457C4F486DC0FB0745D1F88800C0FBE1
:10DE60000923D1F8D400C0FB072346F2B86EC86876
:10DE7000C0FB0E45744F086DC0FB0745D1F88C0000
:10DE8000C0FB0E23D1F8D000C0FB07236F4F0869F9
:10DE9000C0FB07456E4FA046AB46CC6CC4FB078B5E
:10DEA0006A48D1F89050D1F8CC40C5FB0023C4FBA0
:10DEB00007238F6C486944465D46C0FB0E4545F21A
:10DEC0008408C7FB0845D1F8C870D1F89400C0FB9E
:10DED0000E23C7FB08234F6C8869C0FB094540F23D
:10DEE0002C7EC7FB0E45D1F8C470D1F89800C0FB5A
:10DEF0000923C7FB0E230F6CC869C0FB0A454FF00E
:10DF0000740EC7FB0E45D1F8C070D1F89C00C0FB61
:10DF10000A23C7FB0E234FEA946444EA8514009851
:10DF200004804FEA926242EA831201F580534280F4
:10DF30001B684FF4D07465463246C3FB045201F5AA
:10DF400084536746D3F800E03346CEFB047341F2B6
:10DF5000040451F804E041F67C04CEFB045241F283
:10DF6000840E51F80EE0CEFB047341F2080451F820
:10DF700004E049F2FC74CEFB045241F2880E51F8E1
:10DF80000EE0CEFB047341F20C0451F804E0314C76
:10DF9000CEFB045241F28C0E51F80EE0CEFB04731E
:10DFA00041F2100451F804E02B4CCEFB045241F234
:10DFB000900E51F80EE0CEFB047341F2140451F8B8
:10DFC00004E06FF0B304CEFB045241F2940E51F81A
:10DFD0000EE0CEFB047341F218044FF4127E51F8A8
:10DFE00004801446C8FB0E5441F2980251F8028096
:10DFF0003A46C8FB0E2341F21C0751F807E06FF0C8
:10E000001307CEFB075441F29C0E51F80EE0CEFBF5
:10E0100007234FEA956545EA8415A0F840504FEA7A
:10E02000926242EA8312034608330193CDE902C6A5
:10E0300003464433DFF824E0A0F8422005930FE0C4
:10E04000D4F8FFFF7CAFFFFF3CB6FDFF78940400DF
:10E05000C44902004CE803002464FFFF9CD8070079
:10E06000DEE91089DDE9024CD1F80001D1F85C311C
:10E07000C0FB084CDDE90226C0FB0926C9F1000AF5
:10E08000C3FB0A4CC3FB0826DDE90207D1F880B1C7
:10E090000492CBFB0807DDE90235CBFB0935D1F84B
:10E0A000DC21C2FB0A07C2FB0835DEE912B8D1F851
:10E0B00004A1D1F85891CAFB0B4C049ACAFB08265C
:10E0C000C8F1000AC9FB0A4CC9FB0B260492D1F81F
:10E0D000D891D1F88421C2FB0B07C2FB0835C9FBDC
:10E0E0000A07C9FB0B35DEE914B8D1F808A1D1F84D
:10E0F0005491CAFB0B4C049ACAFB0826C8F1000ACB
:10E10000C9FB0A4CC9FB0B260492D1F8D491D1F873
:10E110008821C2FB0B07C2FB0835C9FB0A07C9FBF4
:10E120000B35DEE916B8D1F80CA1D1F85091CAFB35
:10E130000B4C049ACAFB0826C8F1000AC9FB0A4C1A
:10E14000C9FB0B260492D1F8D091D1F88C21C2FBE7
:10E150000B07C2FB0835C9FB0A07C9FB0B35DEE913
:10E1600018B8D1F810A1D1F84C91CAFB0B4C049A05
:10E17000CAFB0826C8F1000AC9FB0A4CC9FB0B26DA
:10E180000492D1F8CC91D1F89021C2FB0B07C2FBCD
:10E190000835C9FB0A07C9FB0B35DEE91AB8D1F807
:10E1A00014A1D1F84891CAFB0B4C049ACAFB08266B
:10E1B000C8F1000AC9FB0A4CC9FB0B260492D1F82E
:10E1C000C891D1F89421C2FB0B07C2FB0835C9FBEB
:10E1D0000A07C9FB0B35DEE91CB8D1F818A1D1F844
:10E1E0004491CAFB0B4C049ACAFB0826C8F1000AEA
:10E1F000C9FB0A4CC9FB0B260492D1F8C491D1F893
:10E200009821C2FB0B07C2FB0835C9FB0A07C9FBF3
:10E210000B35DEE91EB8D1F81CA1D1F84091CAFB3C
:10E220000B4C049ACAFB0826C8F1000AC9FB0A4C29
:10E23000C9FB0B260492D1F8C091D1F89C21C2FBF6
:10E240000B07C2FB0835C9FB0A07C9FB0B354FEAB0
:10E25000946444EA8C14019A22F8044C4FEA9060CA
:10E2600040EA871022F8020C049A4FEA926242EACE
:10E2700086120098A0F87C204FEA936343EA851346
:10E28000A0F87E30019B059A04330193031F00938D
:10E29000019B93420EF1400E01F580717FF4E0AED8
:10E2A00007B0BDE8F08F00BF024B03480022C3F85F
:10E2B000B8207047804F01207C2907002DE9F041EC
:10E2C0009C4B1C682368D3F8402112B10022C3F88C
:10E2D0004021A36B226C1A60A36A226B1A60236828
:10E2E00001225A601A64D3F8403594F86830D4E9B2
:10E2F0000B21012BDDB2116003D094F86330012BA8
:10E3000009D1236D626DC3EBC3036433DB089A420A
:10E310002CBF22652365002D00F0878094F86830BB
:10E3200094F863200133DBB29A4284F868301DD838
:10E33000002284F8682094F8693094F8641001335E
:10E34000DBB2994284F8693010D884F8692094F8D7
:10E350006B3043B194F86730C3F10103DBB284F84A
:10E36000673084F86B20A36D0133A365226D2368A9
:10E3700002FA05F501225A60DA60C3F840551A60C6
:10E38000D4E90F321A60B4F85C6094F8692094F80C
:10E39000631094F8683094F85E70073601FB02321F
:10E3A000F610F3007A435A4394F8653023B194F899
:10E3B0006730E16C01FB0322636A012F1344D4E947
:10E3C0000650D4E90121F6B26ED194F862401444AB
:10E3D000013EF6B2FF2E03F108032CD1BDE8F08117
:10E3E00094F8692094F86A104A4016420FD0A16C44
:10E3F00094F869C0180101EB031316EA0C0F9A6830
:10E4000014BF0B585B684FF400701A60C047760069
:10E41000F6B2013794F86120FBB29A42E0D894F842
:10E420006930DBB284F86A3078E7434B01262F4627
:10E4300043EA0608EEE713F8087C2770156000BF72
:10E4400000BF086013F8077C2770156000BF00BF8D
:10E45000086013F8067C2770156000BF00BF0860D5
:10E4600013F8057C2770156000BF00BF086013F823
:10E47000047C2770156000BF00BF086013F8037CA0
:10E480002770156000BF00BF086013F8027C27707A
:10E49000156000BF00BF086013F8017C277015608D
:10E4A00000BF00BF086093E7022F7FD194F862405D
:10E4B00002EB4404013EF6B2FF2E03F110038DD0AF
:10E4C00033F8107C2780156000BF00BF086033F868
:10E4D0000E7C2780156000BF00BF086033F80C7CFD
:10E4E0002780156000BF00BF086033F80A7C2780D2
:10E4F000156000BF00BF086033F8087C27801560F6
:10E5000000BF00BF086033F8067C2780156000BF9D
:10E5100000BF086033F8047C2780156000BF00BF8F
:10E52000086033F8027C2780156000BF00BF0860D8
:10E53000C0E700BF7C2601204002070053F8204CB2
:10E540001460156000BF00BF086053F81C4C1460D5
:10E55000156000BF00BF086053F8184C14601560C8
:10E5600000BF00BF086053F8144C1460156000BF72
:10E5700000BF086053F8104C1460156000BF00BF66
:10E58000086053F80C4C1460156000BF00BF0860B1
:10E5900053F8084C1460156000BF00BF086053F8C2
:10E5A000044C1460156000BF00BF0860013EF6B265
:10E5B000FF2E03F12003C1D110E700BF437882781A
:10E5C0001B01120202F4E06203F0300313430278ED
:10E5D00002F003021343C278120302F48052134381
:10E5E0000279120402F4E02213434279120502F484
:10E5F000801213438279120602F080721343024A9A
:10E60000C2F81835704700BF0070004010B5084AC6
:10E61000002388214FF6FF7001FB03F4A45A8442C3
:10E6200004D10133052BF7D1024810BD0248FCE7A5
:10E6300040470120742907008029070001F060434A
:10E64000B3F1005F70B502460E4663D10379324DD7
:10E65000242101FB0351496821B100684FF404747F
:10E66000C0F80843242000FB03539C6954B1D869C7
:10E6700000283FD021B113684FF40472C3F804237B
:10E68000264836E001219961DE60DC6110684FF4B4
:10E690008871FBF737FD4FF4A2711068FBF732FD6C
:10E6A00013680121C3F83465C3F83815136824BB17
:10E6B000196011791368242202FB015252681ABBB7
:10E6C000D3F81041D3F84421D3F82461144302D184
:10E6D000002EF5D02246242303FB015500231048C9
:10E6E000AB61104B002E18BF18460733002A18BF25
:10E6F000184670BD1E610124C7E7D3F8001241F02F
:10E700002001C3F80012D4E74FF404720448C3F8A0
:10E710000423EEE70448ECE7984E01200B00AD0B14
:10E720000000AD0B0100AD0B0A00AD0B10B5037876
:10E73000012B0C4602D0022B00D010BD4168027A9A
:10E7400004F11000FBF71BFF606804F11C01BDE839
:10E750001040FFF773BF000013B5104B10481B6843
:10E7600000681A680121D1600E4A128892B2002412
:10E7700030F812001A68C2F84041D2F840210192E4
:10E78000019A1A684FF48034C2F804431A68C2F838
:10E7900040051B68196002B010BD00BF5452012033
:10E7A000EC510120F0510120B0F5A07F08B524D133
:10E7B000124B13481B6800881B6801225A60114ADB
:10E7C000138801339BB2138013889BB2984204D8FC
:10E7D000BDE80840081DFCF7E9B91388DB0708D439
:10E7E0004B685A681B7AC2F86035BDE80840FFF7ED
:10E7F000B3BF081DFCF7DAF9F7E708BD5452012052
:10E80000F2510120F051012007B5019001A8FBF75A
:10E8100089F9019B03F5E073890040F8231003B0E8
:10E820005DF804FB38B505460C460846FCF766F86B
:10E830006C6020790021FFF7E7FF002038BD012937
:10E8400006D08B1E5942594143681879FFF7DCBF47
:10E850000321F9E710B5436802460C4618790021F8
:10E86000FFF7D2FF21461046BDE81040FFF7E7BF93
:10E870002DE9F34105793A4E24236B43F2180C46F7
:10E88000517F8046002968D1F3580BB1012353779B
:10E8900094E80F00242707FB056707F10C0C8CE8B0
:10E8A0000F0097F82000FF2805D0BB7F1BB9FB7F26
:10E8B000C3B1FBF75FF9226822B102F06043B3F104
:10E8C000005F06D1A36883B103F06043B3F1005F3A
:10E8D0000BD0242303FB0565224800236B7702B08D
:10E8E000BDE8F081FBF753F9E5E7D8F8003061683F
:10E8F000C3F84425C3F84815D4E90212C3F8341507
:10E90000C3F838250022C3F81821D3F81811019153
:10E910000199C3F85025C3F8402501221A61242229
:10E920006A43B258AAB9D3F81821002AFBD024238D
:10E9300003FB056595F82000FF2805D0AB7F1BB9C8
:10E94000EB7F1BB1FBF723F90748C8E7FBF712F988
:10E95000FAE74022C3F80423F6E70448BFE700BF04
:10E96000D04D01200A00AD0B0000AD0B0B00AD0B2C
:10E9700000F1804382B01A68002A14BF01200020F1
:10E9800004D000221A601B680193019B02B07047FB
:10E9900010B54FF08043D3F80443620707D54FF416
:10E9A0008470FFF7E5FF10B11E4B1B689847A30664
:10E9B00008D54FF48A70FFF7DBFF18B11A4B00201F
:10E9C0001B689847600608D54FF48C70FFF7D0FF9E
:10E9D00018B1154B01201B689847210608D54FF444
:10E9E0008E70FFF7C5FF18B1104B00201B689847C9
:10E9F000E20508D54FF49070FFF7BAFF18B10B4B42
:10EA000001201B689847A3050AD54FF49270FFF7C1
:10EA1000AFFF28B1054BBDE810401B680220184726
:10EA200010BD00BF6C4F0120704F0120744F0120BA
:10EA300040F20110814209D112F001000AD0064BC8
:10EA4000D88980B2003818BF0120704716221A609A
:10EA50004FF0FF30704700BFAC32012040F2011090
:10EA600081420BD112F004000CD0074B587848B10A
:10EA70009B78002B0CBF00200420704716221A60E0
:10EA80004FF0FF30704700BFAC32012008B5074B94
:10EA9000D3F80630B3F5966F06D14FF080434E227F
:10EAA000C3F81C25FAF724FC08BD00BF802601200E
:10EAB00010B58478182104F07F030C22E40959432F
:10EAC00002FB0411114A0A44017911720122104912
:10EAD00002FA03F07CB90C3302FA03F3C1F80433F1
:10EAE000D1F814350343C1F81435BFF36F8FBFF36A
:10EAF0004F8F012010BD023302FA03F3C1F8043333
:10EB0000D1F810350343C1F81035EEE7442F01204A
:10EB1000007002402DE9F843DDE908890C461646ED
:10EB20001F460025AE4201DC01200EE06378052B74
:10EB300004D1E37803F00303BB4208D00D4B1868FF
:10EB400010F0010001D000BE0020BDE8F88320468F
:10EB5000FFF7AEFF18B9BDE8F843FAF737BCA37862
:10EB6000DA0914BF89F8003088F8003023780135BD
:10EB70001C44D7E7F0ED00E0C208054900F00700AB
:10EB800001238340885C20EA03008854704700BF5B
:10EB9000354F012038B5144C0546FBF75FFB621971
:10EBA00092F9243092F82420072A9FBF0F4A03F5D8
:10EBB000A273002142F8231004EBD50305F00702ED
:10EBC00093F85530D340DB0705D52846FAF7C4FF44
:10EBD0002846FFF7D1FF2C4494F82400FBF730FBC4
:10EBE000FF2384F8243038BDE04E0120006000404F
:10EBF00010B504460079FF281AD00E4B6179002227
:10EC000043F8202043F82120FBF728FB6079FBF72D
:10EC100025FB2079FFF7BEFF6079FFF7BBFF207966
:10EC2000FBF7ECFD6079FBF7E9FD4FF6FF73A3807E
:10EC300010BD00BFCC44012008B5FFF7D9FF014843
:10EC400008BD00BF7C29070008B50868FFF7D0FFA2
:10EC5000004808BD7C29070037B5204C251802461E
:10EC600095F92410072913DD214491F84C309B09B4
:10EC7000032B09D1FBF7D5FA40B10321104603B0AD
:10EC8000BDE83040FBF7BABA012BF6D10221F5E717
:10EC9000CBB2072B1FD88A0002F1804202F5C04296
:10ECA0009B00D2F8100503F1804303F5C24340F006
:10ECB0000100C2F8100500221A601B680193019B35
:10ECC00095F9243054F823302BB1012303FA01F1D4
:10ECD000034BC3F8041303B030BD00BFE04E012066
:10ECE00000600040044B054A5B8B05489BB2002B3B
:10ECF00018BF1046704700BF8026012080290700FA
:10ED00007429070038B50C464942F9F753F9022136
:10ED1000F9F7D1F85C230370447038BD73B50C4625
:10ED200001210646F9F746F904F110033F2B06D8F6
:10ED3000A4F18001C9B2F9F7CDF802B070BD142179
:10ED40000DF10505F9F7C6F8294604F07F00E3B296
:10ED5000E4112A4605F8010D601C0128F5D801349C
:10ED600003F0400312D11BB97F2305F8013C951E27
:10ED7000491B3046F9F79FF801AC01462B46A342E8
:10ED800008D15D1B9DF804204255D6E7002BEFD03B
:10ED90000023EAE713F8012B62F07F0201F8012B50
:10EDA000EDE700000369272B2BD0222B29D0A3F1FC
:10EDB000620113291ED8174ACA40D2071AD54269E0
:10EDC000272A1ED0222A1CD0722B1CD1662A06D1DB
:10EDD0008269272A15D0222A13D0722B15D14369B4
:10EDE000622B0CD1806927280BD0A0F12203584256
:10EDF00058417047662BF0D14269722AE8D0002052
:10EE0000704701207047662BF6D0622BF7D143691B
:10EE1000722BE6E7110009002DE9F84F90F82E302B
:10EE2000468D934FDFF85082DA0748BF01620546EE
:10EE300048BF00F11801013E731C02D10846BDE82D
:10EE4000F88F6B6853F8364014F0030E11D1236825
:10EE5000884A934240F0038194F85130B4F938C0A5
:10EE6000B4F93C009B0706D0844502D0216404F12C
:10EE70003801013EE0E794F850305A0733D5844515
:10EE800031D0B4F94430B4F946209C45A8BF9C4623
:10EE9000B4F94830A4F82CC09842B8BF1846B4F969
:10EEA0003A3020869342A8BF1346E385B4F94A203E
:10EEB000B4F93E309342B8BF134604F12C0963867F
:10EEC0004846FCF7CCFB228A638A5343B0EB430FDE
:10EED00002D861634946CCE704F138032164E36456
:10EEE00004F14401C5E76268930724D1DFF88C91EF
:10EEF00013684B451FD1B2F91430B2F918909945F7
:10EF000019D002F114094945D16114D0B4F8169012
:10EF1000B9F1010F29D1A385B2F91630E385B2F911
:10EF200018302386B2F91A30638694F8503043F0D3
:10EF3000010384F8503094F850309A071AD4A2682C
:10EF400012F0030904D11368434516D192F80CE07E
:10EF500094F850306EF3410384F85030DAB29B07D6
:10EF600001D484450BD1E164BAE794F8503043F002
:10EF70000203DEE74FF0010EEAE7CE46E8E7D207EC
:10EF80007FF577AFB4F90C00B4F92C90B4F930C028
:10EF9000A36AB4F90EB0B4F92E2093F904E0B3F8E3
:10EFA00000A081448444B4F932005A44584493F890
:10EFB0000EB01FFA8EFE1FFA89F992B21FFA8CFC6E
:10EFC00080B2BBF1000F2ED01EFB02A2A28593F9E6
:10EFD00005E01EFB09F9B3F802E0F144A4F82E9015
:10EFE00093F9042012FB00F01A881044208693F94C
:10EFF00005205B8812FB0CFC9C44A4F832C0B4F9D9
:10F000003230B4F92E2061639342BCBF6286E3853F
:10F01000B4F92C20B4F930309342BCBF2286A385CA
:10F0200004F12C0125E71EFB09AEA4F82CE093F9AE
:10F0300005E01EFB02F2B3F802E07244E28593F9A8
:10F04000042012FB0CFC1A889444A4F830C093F9F5
:10F0500005205B8812FB00F018446086CFE7BB42B6
:10F060007FF407AF2046FFF7D7FE014601E700BF58
:10F07000440B0700680F0700500D0700B00607009B
:10F08000004870477C29070070B5084D084E64247D
:10F0900045F00105336833B94FF42070A847013CAF
:10F0A000F8D1044870BD0448FCE700BF0002070027
:10F0B000009102400700AD0B0000AD0BF8B53C4BD2
:10F0C0005B791446054603F0FF02002B6ED1394EE2
:10F0D000326019B34378023B072B1FD8DFE803F0F7
:10F0E000545250114E4C4A04CB791B068A7943EA9C
:10F0F00002434A7943EA02230A7913432E4AC2F8AB
:10F100003C36CB781B068A7843EA02434A7843EAC6
:10F1100002230A781343284AC2F83836264F0123BF
:10F12000C7F80833AB786A781B0343EA02232A78CE
:10F130001343EA7843EA42332A7943EA82336A790D
:10F1400043EAC233C7F83436FFF79EFF1B4B9842A1
:10F150002DD0002333603CB36978D7F83C26D7F82C
:10F160003836023907291FD8DFE801F01D1B1917AF
:10F17000161412100023B9E70023BAE70023BBE7F7
:10F180000023C0E70023C1E70023C2E7110EE171AD
:10F19000110CA171110A617122711A0EE2701A0C20
:10F1A000A2701A0A62702370054800E00548F8BD95
:10F1B000484F012000910240009002400700AD0B33
:10F1C0000000AD0B0B00AD0B07B5012300228DF83D
:10F1D00000008DF80130114640F201136846ADF889
:10F1E0000230ADF80420FFF769FF034BC31A584201
:10F1F000584103B05DF804FB0000AD0B07B540F2C9
:10F200000113ADF80230013200238DF800008DF8B3
:10F21000012068460A461946ADF80430FFF74EFF54
:10F22000034BC31A5842584103B05DF804FB00BFBA
:10F230000000AD0B07B500238DF80430012201A9B1
:10F240000520FFF7DBFF18B19DF804309B07F5D1CF
:10F2500003B05DF804FB000007B501328DF8000033
:10F260008DF8012040F2011300226846ADF802300B
:10F27000ADF80420FFF722FF034BC31A5842584150
:10F2800003B05DF804FB00BF0000AD0B0120704728
:10F29000004870477C290700704740F20110814206
:10F2A00017BF162202F004001A604FF0FF307047BB
:10F2B00090F8B7309FED040A002BF7EE007A08BFF4
:10F2C000B0EE670A704700BF000000002DE9F04172
:10F2D000164FDFF85C8006460C460025738D9D4274
:10F2E00001D3BDE8F081736853F83500820708D177
:10F2F0000368BB4207D190F8513064F3410380F8B2
:10F3000051300135EAE74345FBD190F82E30C3F385
:10F31000C002A242F5D064F3C30380F82E305B072D
:10F32000EFD42146FFF7D2FFEBE700BF680F0700DD
:10F33000440B07008088400040F001007047C088FF
:10F34000400040F00100704704288B6803D0052876
:10F3500008D000207047064A06489BB2002B08BF21
:10F3600010467047044800EA430040F0010070472F
:10F370007429070080290700FEFF0100F0B58BB05B
:10F380006846F7F73DFE0F4B0F4D1F680F4C104EB0
:10F390002D1A07F5806001212844FAF701FB20604F
:10F3A00070B9012105F5C840FAF7FAFA4FF4C043E5
:10F3B000206033602368074A1B681A600BB0F0BDF9
:10F3C0003760F7E73C220120000004204052012072
:10F3D000FC490120EF29780110B50A4C206840B1A2
:10F3E000094B1A68094B1B689A4203D10368084A03
:10F3F0001A6010BDFAF774FA00232360BDE81040CC
:10F40000FFF7BCBF405201203C220120FC490120F3
:10F41000EF297801806870470079400040F00100D2
:10F4200070470000004870477C2907008088400032
:10F4300040F001007047002210B5144690F82410E7
:10F44000D3B2994200D810BD00EB83030132DB6ACE
:10F450009C60F3E710B58368044643B10430FBF7C2
:10F46000DFF904F10C00BDE81040FBF7D9B910BD7D
:10F4700008B50868FFF7EEFF004808BD7C290700C3
:10F4800008B5FFF7E7FF014808BD00BF7C2907006A
:10F49000836813B10430FBF7C3B9704708B5FFF7B1
:10F4A000F7FF014808BD00BF7C29070008B50868C0
:10F4B000FFF7EEFF004808BD7C29070008B5086883
:10F4C000C36813B10430FFF7E3FF014808BD00BF74
:10F4D0007C29070010B583680446A3B10430FBF70C
:10F4E0009FF994F820309A0703D504F10C00FBF73C
:10F4F00097F994F82030DB0705D504F11400BDE836
:10F500001040FBF78DB910BD08B50868FFF7E2FFA2
:10F51000004808BD7C29070008B5FFF7DBFF01485C
:10F5200008BD00BF7C2907000E4B1A78C2F380008B
:10F53000520716D51A78110712D40B4A507880B1A9
:10F5400000F07F0203EB420303EBD01320335A7821
:10F55000D20705D45878C0F3400080F0010070470E
:10F5600000207047CC4501200830012041680A7A0C
:10F570002AB901230B72416818460A7270470020AD
:10F580007047436800221A72704700000B680248F7
:10F5900000225A60DA6070477C2907000B68024835
:10F5A0000022C3E9012270477C2907000B6802484A
:10F5B00000225A60704700BF7C29070008B5FBF79E
:10F5C0002FF9014808BD00BF7C29070008B508686D
:10F5D000FBF726F9004808BD7C290700037A1BB910
:10F5E00001230372014870470148704780290700D2
:10F5F00074290700044B054801221A70044B03F1DB
:10F6000038029A65704700BF195201207C29070013
:10F61000804F012041680A7A2AB901230B724168A0
:10F6200018460A72704700207047B0F8860070478D
:10F6300008B5074B1B78012B02D9012800D0FEE743
:10F64000044B43EA0020044B1860F9F751FE00BF59
:10F65000F6490120AF0000AD60520120F8B5274FF8
:10F66000B7F80432002B45D1002843D0D7F8F46016
:10F67000002E40D0801B48BF0F300611F108D7F88C
:10F68000F00006F00704435C0122A24023EA0203D3
:10F6900043544FEA960ED7F8E84014F80E1075461A
:10F6A000304606F003034FF0030C5B000CFA03F343
:10F6B00021EA030363550130D7F8E840850800F0DC
:10F6C0000303615D5A0041FA02F202F00302022ACA
:10F6D000EBD0801B082828BF0820813057F8203045
:10F6E0007345D7F8283288BF47F820E0734538BF04
:10F6F000C7F828E2F8BD0820FFF79AFF804F0120E5
:10F7000010B504464068FAF713FD607FFBF776F802
:10F71000A07FFBF773F8FF236377A3772069FFF7D8
:10F720009DFF00236361238310BD000008B50868B6
:10F73000837FFF2B01D0FFF7E3FF014808BD00BF27
:10F740007C29070008B50220FFF772FF08B50120E9
:10F75000FFF76EFF08B50A20FFF76AFF10B5124BDE
:10F760001B788BB1114B9A686AB1114A127852B961
:10F77000EFF3108072B60F491C680C605C684C6037
:10F780009A6000B962B610BD0B4B1A6812B902201C
:10F79000FFF74EFF1A68013A1A601B68002BF2D17E
:10F7A000BFF35F8FEEE700BF3E520120D051012032
:10F7B000904B012000E100E0B051012038B5FBF78B
:10F7C000B9F8044BD3E90045FFF7C8FF20462946A6
:10F7D00038BD00BF4852012038B505460C46FFF73A
:10F7E000EDFFC5E90001024B9B689B09236038BD12
:10F7F00010E000E0F0B585B001A9044602A8FFF7CB
:10F80000EBFF019D334BC5F57A700190002153F851
:10F81000042B12B11679A64246D001310829F6D13F
:10F8200005B0F0BDD2E90667029B991B538A548A42
:10F83000A4B2A0429BB230D2508AC5F5FA6380B21E
:10F840000129A3EB000305D94FF47A7000FB0133C3
:10F85000A3F57A734FF6FE704FF6FF71834288BFAF
:10F860000B46D189108A948980B210FA81F1B1FBDC
:10F87000F4F004FB1011906820F81130138A91897C
:10F880009BB299428BBF138AD389013301338BBF5B
:10F890009BB29BB21382D38114E0C31A4FF47A70E7
:10F8A000414311FA83F3D5E7D379002BBAD0204630
:10F8B000FAF7B7FC0038537918BF0120834201D012
:10F8C0000023D371DDE90201BDF80430C2E906016D
:10F8D0005382A5E7AC44012008B5FFF76FFF07EEA0
:10F8E000901AB8EE677A07EE900ADFED096AF8EE33
:10F8F000677AE7EE267A9FED077AC7EE877A17EEEA
:10F90000900A20F0030040F00200A0F1FF4008BD83
:10F910000000804F00007A4410B50446FFF74EFF08
:10F920002369226FC11A91429ABF9B18181A0020AE
:10F9300010BD000008B5FFF711FF014808BD00BF6A
:10F940007C29070008B5114A136913B90620FFF78F
:10F950006FFE1968586011611846C46805694669E8
:10F960008769D0F81C80D0F82090D0F824A0D0F877
:10F9700028B0D0F82CD090ED0C8B90ED0E9B90ED34
:10F9800010ABD0F808E00120704700BF804F012085
:10F9900008B50248F9F747F8FFF7D4FF4C4A0700CB
:10F9A0008968806A0909F8F78DBB000038B50A4DEF
:10F9B0000A4C286838B1F9F793FF00232B60002325
:10F9C000C4F8C43038BDD4F8F430002BF7D0D4F8E4
:10F9D000C400FFF743FEF2E744520120804F0120AC
:10F9E000174B984210B502460C4623D0154B98424F
:10F9F00023D0C10708D5431000EE103AB8EEC00A74
:10FA000084ED000A012010BD830707D101680E4B69
:10FA1000994203D10430F8F785F8F1E71046F8F77A
:10FA2000E5FE0028EFD002F1FF4222F0030300EED2
:10FA3000103AE5E79FED050AE2E7B7EE000ADFE7D7
:10FA40007429070080290700BC520700000000004D
:10FA500038B5044658B3006808B1FFF7FFFD606889
:10FA60000025256008B1FFF7F9FDA068656008B1C1
:10FA7000FFF7F4FDE0680025A56008B1FFF7EEFD93
:10FA80002069E56008B1FFF7E9FD6069002525619F
:10FA900008B1FFF7E3FDA069656108B1FFF7DEFD7E
:10FAA0000023A3612046BDE83840FFF7D7BD38BD2D
:10FAB00010B50446406808B1FFF7CAFF0023C4E947
:10FAC0000133C4E90533A36210BD000008B5FFF798
:10FAD000EFFF014808BD00BF7C29070008B5086892
:10FAE000FFF7E6FF004808BD7C29070010B5037B3F
:10FAF000DB07044602D48068FFF7B0FD0023A36053
:10FB000010BD0229F8B5044605D0042923D00129E7
:10FB10001CD100202CE05668012E10D0022E10D0EF
:10FB20000020156829182CBF0127002766B1002D79
:10FB30000ADA884238BF0021A1601160E9E78068D5
:10FB4000EFE741684868ECE7002FF5D016221A600D
:10FB50004FF0FF300CE0456845B12B7BDB0702D44A
:10FB6000A868FFF77BFD2846FFF778FD002060605E
:10FB7000F8BD2DE9F04316468BB0B207DDF848908A
:10FB8000074698463DD416F0040F0CBF00232023EF
:10FB900000930A46139B202102A8F8F723FCF305E3
:10FBA00004460DD5431C1F2B0AD80AAA144425224B
:10FBB00004F8202C0AAA1A44002102F8201C1C4632
:10FBC00016F040051FD09DF808302F2B4FF0000392
:10FBD0001BD8012202A9CDE900323846F7F762FDB1
:10FBE00009F1FF390546013C0DF10901CDE9008914
:10FBF000334622463846F7F755FD28440BB0BDE89A
:10FC0000F0832B23C4E702A9F0E702A91D46EDE724
:10FC100010B5044638B18068FFF720FD2046BDE8E6
:10FC20001040FFF71BBD10BD10B50368044613B1AB
:10FC30004068FFF713FD2046BDE81040FFF70EBDFA
:10FC40008379012B14BF4FF48070202040F0010015
:10FC500070474069FAF764BE154A38B5002104467A
:10FC6000042352F8040B844208BF42F8041C013BF1
:10FC7000F7D1A268C2F80035A07E08B1FAF7BEFD40
:10FC8000E07E08B1FAF7BAFDA0680021FAF7A6FEF7
:10FC900000250221A068FAF7A1FEE068A560FFF741
:10FCA000DDFC2069E560FFF7D9FC256138BD00BFA8
:10FCB000C446012008B5086883680BB1FFF7CCFF84
:10FCC000004808BD7C29070007B5436801291B7956
:10FCD000019301A80CBF07220322F9F723FF019B20
:10FCE000120203F5E07342F0030240F8232003B050
:10FCF0005DF804FBF7B50779284E0D460C217943D2
:10FD000004467018037A002B45D172506A6842602D
:10FD10009C4661792068DAB2914232D8E97840F3A2
:10FD20000730F9F7DDFE206840F30730F9F7ECFE05
:10FD300021686B78D1F80425194822F0030203F0FA
:10FD400003031343C1F804352168AB78D1F80825C3
:10FD500003F0030322F003021343C1F808352168BE
:10FD60002B78D1F8102503F00F0322F00F02134374
:10FD7000C1F810350C2303FB07660123337203B06F
:10FD8000F0BD920002F5A072013340F802C0825823
:10FD90000192019ABDE70348F1E700BF184E012028
:10FDA0000000AD0B0500AD0B2DE9F8431D4B1B68A2
:10FDB00007460E46154693B300239AB2954202D8E1
:10FDC0000120BDE8F883B25CFF2A03F10103F4D0FF
:10FDD000DFF85480DFF854900024FFF72BFAF0B1DD
:10FDE0000620FFF7F1F9D0B1331903F06042B2F108
:10FDF000005F14D19A0712D13A19C8F81025C8F833
:10FE000014354FF48073C8F818350820FAF748FA0B
:10FE1000484504D104F58074A542DED8D0E700201F
:10FE2000CFE700BF7C4B0120009002400000AD0BEB
:10FE30004368187909B9F9F7AABEF9F79BBE38B536
:10FE400004460D461146FFF73FFF29462046BDE810
:10FE50003840FFF7EDBF38B5044604340D46FAF7D5
:10FE600069FD204601220021FFF7E9FF002D14BFA4
:10FE700006203C20FAF754FD20460021FEF7EAFC5C
:10FE8000002D14BF40200A20FAF74AFDBDE8384093
:10FE9000FFF764BC01211030FFF7CABF70B51C46E4
:10FEA0004B1E5942594105460830FFF7C1FF049ADD
:10FEB000D5E90D1023462244934200D170BDC1F80C
:10FEC0000C056C6813F8016B2670C1F80805F3E7A0
:10FED00008B500211030FFF7ABFF012008BD00007E
:10FEE00010B50A4B82699A420ED000F11804002125
:10FEF0002046FFF79DFF0420FAF712FD204601215E
:10FF0000FFF796FF012010BD0020FCE7E448070042
:10FF10002DE9F0412DED028B012380F8993090F806
:10FF20009A3086B00446B0EE408A1BB9F7EE007AEC
:10FF300037EEC08AA36E394A934213D1DFED387A87
:10FF400068EE277A04F16800FCEEE77A17EE903A43
:10FF500099B2FAF76CFD002384F8993084ED228A77
:10FF6000012518E02F4A93420DD1DFED2F7AB4EE30
:10FF7000E78AF1EE10FACCBF0121002104F16800FC
:10FF8000FFF756FFE7E7B4F88C30B3F5807F08D170
:10FF9000002584F89950284606B0BDEC028BBDE8D8
:10FFA000F08104F108084046FBF7E8FB0546E8B19C
:10FFB000DFED1E7A94F8971094F88C20676AA06899
:10FFC0008DF8142068EE277AFCEEE77ACDED037AFF
:10FFD0009DF80C3081B18DF8153002230093012279
:10FFE00005AB0021B8474046FBF7CBFB002384F864
:10FFF0009930002DCFD0B1E701268DF8133032466D
:020000023000CC
:1000000005AB00960391B8470399676AA06800960C
:100010000A460DF113033146E4E700BF3C640700D4
:1000200000FF7F4778040700A4707D3F00007F43F6
:1000300010B5044601211C30FFF7FAFE6368002268
:100040001A7210BD10B50A4B42699A420ED000F1E7
:10005000140400212046FFF7EBFE0420FAF760FCB1
:1000600020460121FFF7E4FE012010BD0020FCE73F
:10007000E448070007B5436801A81B790193F9F725
:1000800051FD019B03F5E07350F8230000F00100DF
:1000900003B05DF804FB0000F7B5374E3318054692
:1000A00093F92430002B0F4664DA8B78C3F34003B6
:1000B000002B0BBF08240024092108218C4202D107
:1000C0002E4803B0F0BD56F82400013042D171191A
:1000D00046F8242081F8244013B9331983F84C5092
:1000E000BB785A0717D4D80736D501A80195F9F778
:1000F00019FD019B00EB8300D0F8003723F00203C9
:10010000C0F800371E49EA0805F0070001238340C4
:10011000885C03438B54BA783B78910721D5A400BF
:1001200004F1804404F5C0442D02D4F8102522F4D3
:100130004F3222F44072C4F810251B04D4F8102565
:1001400005F47C5503F440331D431543C4F81055A2
:100150000C48B6E70134B1E779782846FEF754FB3E
:10016000D0E7083C344494F8545045EA831384F8AB
:100170005430EDE70448A4E7E04E01200200AD0B47
:10018000354F01200000AD0B0B00AD0B2DE9F743FF
:10019000002406460F4600F5A0754FF48038A146AE
:1001A0002B688BB1D6F8043308FA04F21A420BD04C
:1001B000C5F800902B680193019BA30003F5A07381
:1001C00098B2D7E9003198470134042C05F10405B1
:1001D000E6D103B0BDE8F08301490248FFF7D6BF7E
:1001E000244E012000A0004001490248FFF7CEBF85
:1001F000184E0120009000407FB50222ADF8142077
:100200003B4A0023032104938DF81630C2F8F01501
:100210000121C2F8F435C2F8001519461A0102F19D
:10022000804202F5E0420133082BC2F81415C2F8EF
:100230001015F3D104A8FEF7C1F92D4B0922C3F81C
:100240001425C3F810250DF10202C3F82C26012253
:10025000C3F830261A6003F580731A68002AFCD0B0
:1002600000221A601B680193019B224B01221A6035
:1002700003F580731A68002AFCD000221A601B68FC
:100280000293029B1C4B01221A601C4A1368002B2C
:10029000FCD00023136012680392039A144ADFED26
:1002A000186AC2F80035BDF902209A42B8BFADF80D
:1002B0000230BDF9023007EE103AB8EEC77AC7EE49
:1002C000267A9FED107A67EE877AF4EE677AF1EE80
:1002D00010FA7DBF17EE903A23F0030040F00200C1
:1002E000094878BFA0F1FF4007B05DF804FB00BFEC
:1002F000007000400470004008700040147100401D
:10030000FFA66A46333353407C290700044A8B8892
:100310001278DBB29A4201D0F9F758B80120704741
:100320000830012007B5436802461B79019301A8F4
:10033000F9F7F8FB019B03F5E07350F8233013F055
:10034000010F536808D11879F9F76BFF003818BF0F
:10035000012003B05DF804FB1B79019301A8F9F7B4
:10036000E1FB019BD0F80405D84000F00100F0E764
:1003700038B500F10C0401212046FEF76BFA204647
:10038000FFF7D0FF0122054611462046FFF757FD33
:10039000284638BD10B504460434FAF7CBFA0122DA
:1003A00000212046FFF74BFD0620FAF7B9FA00219D
:1003B0002046FEF74FFA0620FAF7B2FA2046FFF77A
:1003C000B1FF04463720FAF7ABFAFFF7C7F920462A
:1003D00010BD10B504460434FAF7ACFA012200212E
:1003E0002046FFF72CFD4FF4F070FAF799FA002140
:1003F0002046FEF72FFA4620FAF792FA2046FFF73A
:1004000091FF04464FF4CD70FAF78AFAFFF7A6F988
:10041000204610BDF8B52E49D1E90023541C43F104
:100420000005C1E900452B4B1A685AB11A68012A28
:1004300015BF1A68284802F1FF32027008BF4FF456
:100440007A721A60254B1A689AB1186801280DD182
:10045000234A127852B1234A12783AB9224A1478C0
:1004600024B9224C04F13805A56510701A68013AC8
:100470001A60D1E90001002300F01F02134326D1C6
:100480001A4BD3F8B81011B311F003041FD10A6846
:10049000174B9A421BD10E1D01F12407012556F876
:1004A000040B38B1FFF73EFF00B12C436D00BE4294
:1004B000EDB2F4D191F826305C4091F8243091F8F7
:1004C00025202340134381F8253081F82440F8BDCE
:1004D0004852012034220120784B0120344701206A
:1004E000384701203947012019520120804F01204F
:1004F000441D0700F8B5134F06460A25002447F0AF
:100500000107002201213068FFF799FC4FF42070A9
:10051000B84700213068FEF79DF942F20F7130684C
:10052000FFF700FF28B9013DADB2002DE9D120460B
:10053000F8BD8C4202D80134A4B2F0E742F2107444
:10054000F5E700BFF001070007B50121019001AAFE
:100550000248F8F761FAFFF7F5F900BF7C4707009A
:1005600008B5064B1B683BB11B681A68044B9A42DE
:1005700002D00420FFF75CF808BD00BF4052012004
:10058000EF2978012DE9F0410025D0F800808D7524
:10059000836906460C46002B55D0C36A01330AD046
:1005A00001F11607D8F8103033F8150000284CD1A7
:1005B00025440023AB750023A07D19462E27F5693D
:1005C0006A5C202A01F1010121D0052A08BFE52239
:1005D000092904D1E51800B9AF756F72013304EB36
:1005E000030C8CF8092088B9A2F14105192D0BD80C
:1005F000F569082995F80CE08CBF102508251EEA3E
:10060000050F1CBF2032D2B28CF8162001330B2903
:10061000D5D130B9E2189075F269127B002A08BF73
:100620000023234400225A72F369DB7A2372F069B3
:100630001C30F8F773FF2060F0691630F8F76EFF92
:10064000E080000CA080BDE8F0817F2802D9F8F797
:10065000BBFF30B10135B5F5807F02D007F8010B43
:10066000A0E70025A4E70000034B044801221A700C
:10067000034B00221A707047384701207C2907007D
:100680001952012038B5014600680E4C40F307307E
:10069000F9F718FA0B680020D3F80022C3F800021B
:1006A0000B684FF0FF32C3F808230A680123136177
:1006B0000A790C2505FB024213720B7905FB0343F3
:1006C000187238BD184E0120114B98420CD003F11E
:1006D0000802904217D003F11002904215D018334F
:1006E000984214D1032300E000230A490022CA548F
:1006F0000949CA540379094A0C2101FB03231B7AD7
:100700002BB1FFF7BFBF0123EFE70223EDE77047EF
:1007100048220120DD510120E1510120184E012025
:1007200043687BB15A681B7AC2F86035064A0023D9
:1007300043601378013BDBB213701BB9034B18689D
:10074000FFF7C2BF704700BF18520120545201206A
:1007500008B5FFF7E5FF014808BD00BF7C29070089
:1007600008B50868FFF7DCFF004808BD7C290700D2
:1007700007B5400040F00100019001AA01210248A4
:10078000F8F74AF9FFF7DEF85C49070037B5044689
:10079000F8F77FFCC56815B91620FFF7E9FF01AB34
:1007A000002201212046A847013001D10198F4E739
:1007B000014803B030BD00BF7C29070037B50446AF
:1007C000F8F767FC01ABC568002204212046A84762
:1007D000013002D10198FFF7CBFF014803B030BDD3
:1007E0007C2907000868FFF7E9BF10B504460068D8
:1007F000FFF7E4FF2046BDE81040FEF72FBF086872
:10080000FFF7DCBF38B5044600F10803456800F186
:100810000C0101220068A847A36813B11846FFF72E
:10082000A7FF00B92073207B38BD08B5838803F08B
:100830003003302B02D11E20FFF79AFF08BD0000C5
:100840001FB50223009303ABF8F728FC039B23B1E9
:100850000B2B08D01846FFF78BFF400040F001003B
:1008600005B05DF804FB0148FAE700BF7C290700EA
:10087000FFF7E6BF084BD3F8183182B04BB1074BF6
:10088000074800221A601B680193019B02B0F9F728
:100890008BB902B0704700BF0030024018310240EF
:1008A000D04D012010B50446C068FEF7D7FE0023E6
:1008B000C4E901330148E36010BD00BF7C29070093
:1008C000074B1A78C2F38000520708D51B781B0724
:1008D00004D4044B187900F00100704700207047E1
:1008E000CC45012080260120FFF7EABF08B5FFF7BD
:1008F000FBFF034A034B00280CBF1046184608BDF7
:10090000742907008029070038B50546FEF792FCD8
:1009100010B90024204638BD0620FEF755FC0446D9
:100920000028F6D015F00302F4D1044B0C20C3F8D4
:100930001C55C3F82025F9F7B3FCEBE70090024003
:1009400008B5436813211888F9F7ECFD004808BD85
:100950007C290700436843B119880548054B4FF6C9
:10096000FF72914218BF184670470148704700BF98
:10097000742907008029070073B5104D4FF46A24CD
:100980004FF00106200B2E70F8F776FF08B9F8F744
:1009900085FF04F58054B4F5722FF3D1084B019311
:1009A00001A901224FF46A20F8F788FF012201A96A
:1009B0000448F8F783FF02B070BD00BF3D5201202C
:1009C00031304442FC1F0F0010B54FF6FF72044651
:1009D000FF210120F8F778FD38B1033424F0030437
:1009E000044B083404449C4202D9FFF7C5FF024877
:1009F00010BD00BFFB1F0F0004A00E0008B5FFF7DD
:100A0000BBFF014808BD00BF7C29070010B50446A4
:100A1000406818B1F9F704FF00236360004810BD77
:100A20007C29070008B583680BB1FFF715F9014869
:100A300008BD00BF7C29070008B5837FFF2B01D0CC
:100A4000FEF75EFE004808BD7C29070008B590F857
:100A50002330FF2B01D0F9F7F1FE014808BD00BF9C
:100A60007C29070007B520B90648F7F7DCFFFEF739
:100A700069FF0B680348019301AA0121F7F7CCFF36
:100A8000F5E700BFC44A0700C28B4FF6FF739A42D6
:100A90000AD04368188A172838BF1720033880B255
:100AA000400040F0010070470020F9E74FF01023AC
:100AB000D3F80C220379D20703D5A3F10902012A46
:100AC0000DD95909012203F01F0302FA03F3054A65
:100AD00052F8212013420CBF012000207047002053
:100AE000704700BFEC490120084BD3F8183182B0A1
:100AF0004BB1074B074800221A601B680193019B0A
:100B000002B0F9F751B802B0704700BF00F00240E0
:100B100018F10240F44D012008B5C36813B1043048
:100B2000FEF7B6FC004808BD7C29070038B54368CD
:100B3000024618681B790624C0F800451C4CC0F812
:100B40008815342505FB0343022483F82D40002338
:100B5000C0F84435C0F84835012303628360D0F8FB
:100B600050311BB9D0F82431002BF8D04FF4A871C4
:100B7000F9F778F801234361D0F80431002BFBD05A
:100B80004FF48271F9F76EF8D0F824316BB14FF45D
:100B90009271F9F767F8D0F8C434C0F8C43400246F
:100BA0005068F9F755FA204638BD0124F8E700BF30
:100BB000304E01202DE9F04F89B005469DF8487070
:100BC00016465FFA81F81C464BB94146FFF7AEFF67
:100BD000002814BF0020132009B0BDE8F08F426840
:100BE000137912680621C2F800151C4A342101FB52
:100BF0000323002F4FF0020183F82D10914614BFFC
:100C0000002320234FF0000A4FF6FF77A74228BFAA
:100C10002746CDE9047ACDE9066A69688DF80CA00B
:100C200008798DF80D804FF0340C0968019303AA00
:100C300000FB0C90F9F754F8094B9842834603D116
:100C4000E41B019B3E44DFD16868F9F701FA58467E
:100C500009B0BDE8F04FF9F7B3BD00BF304E012039
:100C60000000AD0B2DE9F04700248AB0CDE9044423
:100C70005F4B60486049012225461E6846B1D0F8A6
:100C80000463164204D01D601E680196019E144341
:100C900004338B424FEA4202EFD1584B1A687AB1C3
:100CA00000221A601B680293029B4FF0A04344F09D
:100CB0000044D3F810350493514BD3F81035059305
:100CC00014F0FF0F1AD04F4F01260025344210D0E8
:100CD000AB0003F1804303F5C043D3F81005D3F80C
:100CE000101557F8253023B1C1F30141C0F3052099
:100CF00098470135082D4FEA4606E7D1002C70DAF7
:100D000008AF002308937B604FF0FF33CDE9063333
:100D10003C4EDFF8EC904FF0010896F9543096F80D
:100D20005420013322F0C0045BD00AAB03EBD401A2
:100D300002F0070A11F8103C23FA0AF3D8074FEA29
:100D4000D40C4ED53319920993F9243056F8235018
:100D50004DB9032A45D117F80C0008FA0AF30343EA
:100D600007F80C3001E0032AF5D003A80394F8F744
:100D7000D9FE039B11F8181C03F5E07321FA0AF160
:100D800050F82330C907C3F3014307D5022B28D1FC
:100D9000032A1CD02DB34FF0000A1CE0032B20D1F6
:100DA000032AF7D102212046F9F728FA8DB94FF02E
:100DB000A0430499D3F81025D9F81035914213D0E7
:100DC0000492089ACDE90532099B0793A5E71146DD
:100DD000E9E74FF0010A11462046A847BAF1000F93
:100DE000E5D10AB0BDE8F08705999942F9D0E7E767
:100DF0000061004000600040206100407C610040D4
:100E000000030050E04E01202DE9F04F0025DFF8EF
:100E1000A0B085B004460E4690464FF4803700F5EA
:100E2000A079AA46D4F804333B4210D059F82530B3
:100E30006BB1C4F84873C4F8087349F825A059F891
:100E400025300193019B5BF82630E8B298470135C5
:100E5000A8454FEA4707E5D1D4F80433DA070ED5A1
:100E6000D4F800315BB10023C4F80031D4F800316C
:100E70000293029B0E4B042053F826309847D4F877
:100E800004339B0711D5D4F8043173B10023C4F89F
:100E90000431D4F804310393039B054B53F82630F7
:100EA000052005B0BDE8F04F184705B0BDE8F08F4C
:100EB000604F0120024803220021FFF7A5BF00BFB9
:100EC00000B00040024804220121FFF79DBF00BF8F
:100ED00000100140024804220221FFF795BF00BF25
:100EE0000040024010B4C3685A8B9B8B1344828E1F
:100EF000541C1A4443798486042B04BFC36B43F803
:100F0000221017215DF8044BF6F7ECBF38B50D46FB
:100F10000121F7F74FF82946BDE83840FFF7E2BF57
:100F20008968806AFFF7F2BF38B50D460121044693
:100F3000F7F740F8142D09D0152D09D0132D09D13C
:100F400010212046BDE83840F6F7C4BF1121F8E76C
:100F50001221F6E7BDE838400149FFF7C3BF00BFE3
:100F600048290700F0B54468164D2668A468A142D8
:100F700028BF2146002455F83470B94209D305EB47
:100F8000C4046168C6F824152AB9003B18BF0123C0
:100F900005E00134EFE7002B14BF0323022342686E
:100FA000022B126809D0032B09D0012B14BF002398
:100FB0000223C2F854350120F0BD0423F9E70623CB
:100FC000F7E700BF3CE9060070B543681E7A0446A7
:100FD00086B901251D7290F8313090F83020C16A31
:100FE0004068FFF7BFFF04F11C003146FEF720FF09
:100FF000284670BD0020FCE738B50D4B044604259B
:10100000002253F8041B8C4208BF43F8042C013D16
:10101000F7D1A36801225A60E068E57784F8205090
:10102000FEF71CFB2069E560FEF718FB256138BD63
:10103000C446012038B5084B1B6800250446C3F898
:1010400000550079F9F7DAFB60792571F9F7D6FBDD
:101050000248657138BD00BF442201207C29070089
:10106000830710B5014611D102680E4B9A420DD18B
:101070000D4B0340062B07D1C008F6F7E1FA407884
:10108000400040F0010010BD8068F9E70846F7F71E
:10109000C3FB43691BB1BDE8104005201847184643
:1010A000F1E700BF484E0700070080FF38B5154B39
:1010B0009842044623D0144DA84201D1012038BDE6
:1010C000124B98421BD0C20704D5430814BF01201D
:1010D0000020F4E7F7F7A0FB43693BB12146042069
:1010E000984718B1431B58425841E8E72046FFF79C
:1010F000B7FF0028E2D0013818BF0120DFE7002049
:10110000DDE700BF74290700802907007C2907005C
:1011100010B504460846FFF7C9FF2071004810BD0E
:101120007C290700D1E9023249685B1A1344002A7E
:10113000CCBF03F1FF330133042893FBF2F303D058
:10114000052807D000207047054A0648002BC8BF75
:101150001046704723EAE370400040F001007047FA
:10116000802907007429070010B5104A11F07F0488
:101170004FEAD1100BBF012341F480715365C2F8CF
:101180001815BFF36F8FBFF34F8F094B03EB440369
:10119000034493F8212042F0020283F8212093F8BF
:1011A000212042F0010283F8212010BD007002408E
:1011B000CC450120F8B5069D3C264FF461676E438F
:1011C0005F434D1E144B33F8155002290446154455
:1011D00003D9F8F74DFA00B10135A4F2CD726FF4DE
:1011E000C863E1184FF4C870B1FBF0F101EB920154
:1011F0000A4BA4F26D726420B2FBF0F20798891AD0
:101200000D44074903FB0404214439440548314493
:1012100000FB0510F8BD00BF080107008033E101A5
:1012200080569C50805101002DE9F04190F82E30FD
:10123000448D264E264FDFF89C806FF30003054651
:1012400080F82E30013C631C01D1BDE8F0816B6851
:1012500053F83400830726D10368B34230D1B0F984
:101260003830B0F93C2093421FD090F851108907D4
:101270001BD0838790F8503023F0070380F850305C
:10128000836813F0030105D1DFF84CC01A6862458A
:1012900008BF1973436813F0030204D1196841456C
:1012A00001D19A821A83013CCDE790F8501049078A
:1012B00001D49342DED1436C8363836CC363D9E76B
:1012C000BB42F0D1FFF7B0FFEDE700BF680F0700AA
:1012D000440B0700B0060700500D070010B5044688
:1012E000406808B1FFF7A0FF002384F85830FEF7EC
:1012F00065FAC4E9020110BD062837B50C4619D1BC
:101300008D680D4B2B40062B12D1E808F6F798F9A3
:10131000007830B901A92846F7F7BAFC0199F6F729
:101320009DF923795840400040F0010003B030BDE2
:101330006868EEE70020F9E7070080FF38B504464B
:10134000F8F7FCFF236906480122002583F82120D5
:101350005D602169F8F7A0F80248256138BD00BF3B
:10136000A97503007C290700F7B504460D46F8F778
:1013700085FA58B34E4E0127200B3770F8F77CFAE8
:1013800010B1002003B0F0BDF8F788FA0228F8D0B9
:101390004FF40072294620463770F8F76BFA0028A0
:1013A000EFD1F8F77BFA0228EBD04FF4007205F585
:1013B000006104F500603770F8F75CFA0028E0D1AE
:1013C000F8F76CFA023818BF0120DBE74FF08053C2
:1013D0001A69B4FBF2F302FB134363B9354B0222E3
:1013E000C3F80425C3F80845D3F80024D007FBD57B
:1013F0000022C3F804252F4B0122C3F8042514F062
:10140000030351D04FF0FF32C3F10400019201AA4F
:101410002946E61A1A44054411F8017B02F8017BBB
:10142000A942F9D1019A234FD7F80014C907FBD577
:101430003260BFF35F8F03F6FC7304449908DFF852
:1014400074C02E1F04EB8101224656F8047FDCF89D
:10145000000410F00100FAD042F8047BBFF35F8F64
:101460009142F2D199071AD023F003024FF0FF36D0
:10147000A118019604F0030401AE2A4434441D442B
:1014800012F8013B04F8013B9542F9D1019B094C4C
:10149000D4F80024D207FBD50B60BFF35F8F054B58
:1014A0000022C3F804256DE74FF48053C6E700BF60
:1014B0003D52012000E001402DE9F043DFF8A48017
:1014C000DFF8A49085B005460C46002701266B8DF9
:1014D000BB4217D895F82E30DB070ED5002E3BD037
:1014E000B5F918302380B5F91A306380B5F91C308E
:1014F000A380B5F91E30E380002686F0010005B018
:10150000BDE8F0836B6853F8370082070FD103689A
:10151000434513D1B0F93C20B0F93830934214D090
:10152000836B0193C38FADF80820ADF80A3076B114
:10153000019B2360029B6360002606E04B45F6D1C9
:1015400001A9FFF7B9FF0028F1D10137BFE701A9D1
:101550002046FAF735F8EFE705F118012046FAF7CB
:101560002FF8CAE7680F0700440B0700F0B543687F
:1015700053F8314014F0030785B005462CD1236899
:10158000204A93422AD1B4F93C30B4F938209A4227
:101590001EBFADF80830E38FADF80A3094F8503034
:1015A0001CBFA26B01926FF3041384F850304FF00C
:1015B000000314BF01263E46A3626EB195F82E309B
:1015C000DB0718D4019BAB61029BEB6195F82E30D1
:1015D00043F0010385F82E3005B0F0BD0A4A93426E
:1015E000FAD101A92046FFF767FF39460646204693
:1015F000F9F7AEFFE1E701A905F11800F9F7E0FFFF
:10160000E4E700BF680F0700440B070070B5438D87
:10161000013B4385436803EBC10304465E680D4606
:10162000FFF7A4FF618D6368A94209D8002243F83F
:101630003120618D636803EBC10330465A6070BD91
:10164000013503EBC50393E8030003E90300E9E771
:101650007FB5D0F8246105460C46002E5CD04FF4CF
:101660009271F8F74FFD02238DF80030D0F88034E6
:10167000C0F880340393D0F83C350293E3680193BB
:101680000023C4E906336846D4E900139847D5F827
:1016900044317BB14FF4A2712846F8F733FDA369BA
:1016A00043B10023C4E90633E268D5F83C1520466F
:1016B000F8F730FDD5F82031ABB14FF490712846E2
:1016C000F8F720FD0123EB60636963B1D5F84C2581
:1016D00002920023A2688DF8003063610192D4E980
:1016E000001368469847D5F858319BB14FF4AC7158
:1016F0002846F8F707FD636963B1D5F84C250292D7
:101700000023A2688DF8003063610192D4E90013D0
:101710006846984704B070BDD0F81031002BB6D0A1
:101720004FF48871F8F7EEFCA169D0F83C35994286
:10173000ADD1E369E26873B1D0F8003223F0200341
:10174000C0F80032E369A3612369E360E6612046E3
:10175000F8F7E0FC9BE7A361F9E7000001490248C4
:10176000FFF776BF984E0120002000400149024853
:10177000FFF76EBFBC4E0120008002402DE9F84FFC
:101780001F460379156891F800800E469BB3B2F8A6
:101790000AA0B2F80CB050465946F9F77DFD5946FB
:1017A00081460AF12100F9F777FD0BF1210104468A
:1017B0005046F9F771FDB8F1100F4FEA1541C5F326
:1017C0000723EDB22CD100F00700054409F007090A
:1017D000FF2D894428BFFF2504F00304B9F1FF0F52
:1017E00028BF4FF0FF091C44FF2C28BFFF24240210
:1017F00044EA09442543B8F1100F27D1EA0CC5F398
:10180000C40343EAC223C5F3852543EA4515337A69
:10181000ADB20BB16DBAADB23D6001233B7151E089
:10182000FF2242FA08F2104055FA80F509EA02094F
:10183000FF2D51FA89F928BFFF251440B9F1FF0F98
:1018400028BF4FF0FF0953FA84F4CDE77379002BDA
:101850003FD02846F9F744FDC8F1080840FA08F0DF
:101860002A0C3860E8B28242144638BF04468242ED
:101870001346C5F3072128BF03468B4228BF0B46FA
:101880008C422CBFC3EB0403C3EB0103DBB2102B70
:10189000347903D8002CC0D13C60BEE72846F9F764
:1018A00033FDB378181A80B200F10A039BB2142BEF
:1018B00005D900B210F1DB0F01DBDB2806DD1CB11E
:1018C00000233B60BDE8F88F0123FAE7002CF9D133
:1018D000F6E733795BB1B8F1080F08D82846F9F775
:1018E000FFFCC8F1080840FA08F0386095E70023CB
:1018F00094E7000079B3F8B5041F174E04EB810597
:10190000032754F8040F030719D1D6F8F43098428E
:1019100015D3D6F8F820904211D2C01A48BF0F3024
:101920000011D6F8E8C0810800F003031CF801E0BC
:101930005B004EFA03F202F00302012A02D0A54234
:10194000DFD1F8BD07FA03F343EA0E030CF80130C8
:10195000F5F798FDF3E77047804F0120F8B52E4C5E
:10196000B4F8043200220133A4F80432C4F8002190
:10197000251D04F1D406032755F8040F020719D1D9
:10198000D4F8F430984215D3D4F8F820904211D20C
:10199000C01A48BF0F300011D4F8E8C0810800F029
:1019A00003031CF801E05B004EFA03F202F00302AD
:1019B000012A1FD0AE42DFD1D4F82C02030718D180
:1019C000D4F8F430984214D3D4F8F820904210D2CE
:1019D000C01A48BF0F300011D4F8E840810800F069
:1019E0000303655C5B0045FA03F202F00302012A7F
:1019F00009D0F8BD07FA03F343EA0E030CF80130EF
:101A0000F5F740FDD6E7032202FA03F31D436554C0
:101A1000BDE8F840F5F736BD804F012003071CD123
:101A2000124BD3F8F420904217D3D3F8F810884221
:101A300013D230B4801A48BF0F300011D3F8E840F9
:101A4000810800F00303655C5B0045FA03F202F0D5
:101A50000302012A02D030BC70477047032202FA09
:101A600003F31D43655430BCF5F70CBD804F0120D6
:101A700010F00F021DD11849D1F8F430984219D353
:101A800010B4D1F8F840A0420FD2C31A48BF0F33A8
:101A90001B11D1F8E840990803F00300615C400095
:101AA000014101F00301012906D010465DF8044B05
:101AB000704700221046704701329918880801F0DB
:101AC0000301205C490040FA01F101F00301022901
:101AD000F2D01201E9E700BF804F012021F00F0191
:101AE0002DE9F843384A394C0F1AFF00A2FB0732A0
:101AF0004FEA5228A1EB881C4FEA8806C4E93DC191
:101B0000073600EB080310F00301C4E93B834FEAFA
:101B1000D609C4F8E80042D0B7F5037F36D3424671
:101B2000002104F005FBD4F8F03013F003012DD1AF
:101B3000760906D0B6001846324604F0F9FA034694
:101B4000334419F0020F1CBF002223F8022B19F0B6
:101B5000010F01D000221A70202200211C4804F03D
:101B6000E7FAD4F8EC20D4F8F430501E03EB8213DB
:101B700001210022C4F82802C4F8FC30A4F8042291
:101B8000C4F82C2284F80612BDE8F883B9F1000FDE
:101B9000E2D04A461846002104F0CAFADCE7D20A2D
:101BA000054604D097003A4604F0C2FA3D4418F0C6
:101BB000020F1CBF002325F8023B18F0010FB2D022
:101BC00000232B70AFE700BFF32C23FA804F0120D6
:101BD0008851012008B510F00103024663D03D286A
:101BE0004FEA600307DC0C2B17DC022B4ED0052BD1
:101BF0004ED0012B4ED02D49002301EBC30040688D
:101C000082424BD151F83300C008F5F737FD037815
:101C1000002B014608BF002130E00D3B112BEAD814
:101C200001A050F823F000BF951C0300F71B030030
:101C3000F71B0300F71B0300991C0300F71B0300AD
:101C4000711C0300F71B0300F71B0300811C03003A
:101C5000F71B0300F71B0300F71B0300F71B030030
:101C6000F71B0300851C0300F71B0300891C0300FE
:101C70000F480388322BBED8F7F74CFB084608BD47
:101C80000C48F6E70C48F4E70C48F2E70C48F0E79C
:101C90000C48EEE70C48ECE70C48EAE70133172B59
:101CA000ABD10021EAE71946E8E700BF143207008C
:101CB0008E9A07000C9D0700A693070052AE0700FE
:101CC000EA8F070000A60700E09007006E8F07006C
:101CD000836813F9012B002AFBDB13F9012B002A7F
:101CE000FBDB043313F9012B002AFBDB1888704758
:101CF000136810B514463BB92B2905D1FFF7E8FF4F
:101D0000C00040F00600206010BD136810B51446F6
:101D100043B92B2907D14068FFF7DAFFC00040F034
:101D20000600206010BD162904BF43681360F9E760
:101D3000024B1A690260186100207047804F012031
:101D400040EA0103F0B59C0709D0431E0A449142C2
:101D500000D1F0BD11F8014B03F8014FF7E722F075
:101D60000303051F9608CC18A1420DD1910744BF6B
:101D700034F8021B20F82610034448BF0233D20770
:101D800044BF22781A70E4E751F8047B45F8047FD9
:101D9000EAE713B504460193104629B9224601A982
:101DA000FFF7CEFF02B010BD01AB23441444A242A2
:101DB000F8D013F8011D02F8011BF8E738B54568A3
:101DC0009542044628BF15462A460068FFF7B8FF2B
:101DD000236862682B44521B2360626038BD000098
:101DE0002DE9FF47334B1B6806460C46154623B9C1
:101DF0000027384604B0BDE8F087FDF71BFA074618
:101E00000028F5D014F003081ED00DF10C0909F0DC
:101E10006043B3F1005FEBD1274B0420C3F80465A6
:101E2000C3F80895C3F80C05F8F73AFA234B984223
:101E3000DED1C8F10408204642464946FFF780FF3C
:101E400044444644A5EB080504F06043B3F1005F49
:101E5000CED1A307CCD1DFF8608025F00309C8F804
:101E600004650420C8F80845C8F80C95F8F718FA76
:101E7000124B98428246BBD1B5EB0902B9D003ADF3
:101E800005F06043B3F1005FB2D104204E440192EB
:101E9000C8F80465C8F80855C8F80C05F8F700FA42
:101EA0005045A5D1019A294604EB0900FFF748FFE8
:101EB0009FE700BF7C4B0120009002400000AD0B6B
:101EC00010B50422ADF5027D0DEB02010446FFF7CB
:101ED00087FF78B101AA042312F8011BFF2909D159
:101EE000013B9BB2002BF7D14FF4007202A92046B0
:101EF000FFF776FF00200DF5027D10BD30B5C1B0B3
:101F00000C464FF4807269460546FFF769FFA0B1A1
:101F10004FF4807269462046FDF746FF68B14FF4E2
:101F200080726946A818FFF75BFF30B14FF48072EA
:101F30006946A018FDF738FF00B9002041B030BD58
:101F40002DE9F041194C236801332BD0184BDFF8F1
:101F500064801B681E680120A6F580560025074690
:101F6000D8F8002007FA05F3134209D130B12068F0
:101F700006EB452100EB4520FFF7C0FF00F0010014
:101F80000135082DECD170B12068FEF7BDFC0025AD
:101F900021687019294405F50075FFF7AFFFB5F505
:101FA000805FF5D10120BDE8F08100BFF849012034
:101FB0007C4B0120004A01202DE9F84F2E4D2B6863
:101FC0000133074606D1002F53D1FDF7EFFC012066
:101FD000BDE8F88FDFF8A490DFF8A4A000244FF04C
:101FE0000108D9F8002008FA04F3134211D1E600E1
:101FF00006F1080BDAF8C430286899594FF480725A
:1020000000EB8610FFF7ECFE0028E1D00436B34564
:10201000F0D10134082CE4D12868DFF86490DFF8AF
:1020200064A0FEF771FC4FF000081FE0D9F8C4303F
:10203000286899594FF4807200EB8610FDF7B4FEC2
:1020400057B9DAF800303BB9D9F8F43023B1D9F8F0
:10205000C4309859FDF702FB0436B442E6D108F1CA
:102060000208B8F1100F04F10804ACD04FEA88065A
:10207000DCE73846ACE700BFF8490120004A012000
:10208000804F01204452012008B5074BD3F8C430DB
:1020900033B9FFF755FF054B4FF0FF321A6008BD0B
:1020A0000120FFF789FFF6E7804F0120F849012062
:1020B00008B50A4B4FF47A721A60FFF7E5FF084B38
:1020C000D3F8C43033B9FFF73BFF064B4FF0FF3274
:1020D0001A6008BD0020FFF76FFFF6E734220120E9
:1020E000804F0120F849012008B5FFF7E1FFF7F71D
:1020F000FFF800002DE9F84F0346002940F0B180B9
:10210000421E0C4600F2BD1002F8014F8242FBD184
:10211000834A1268106883F8BE41A0F58050440AD3
:102120001FBFFF2283F8BF2183F8C02183F8C1219C
:102130004FF0010202BF83F8BF4183F8C04183F82A
:10214000C14183F8C221002C40F0838083F8C34151
:1021500083F8C44183F8C541012283F8C62183F87E
:10216000CA410022440C400E83F8C72183F8C821DD
:1021700083F8C92183F8CD2183F8CE2183F8CF21BC
:1021800083F8D02183F8D12183F8D22183F8D32199
:1021900083F8D42183F8D52183F8D62183F8D72179
:1021A00083F8D82183F8D92183F8DA2183F8DB2159
:1021B00083F8DC2183F8DD2183F8DE2183F8DF2139
:1021C00083F8E02183F8E12183F8E22183F8E32119
:1021D00083F8E42183F8E52183F8CB4183F8CC012F
:1021E00083F8E62183F8E72183F8E82183F8E921E1
:1021F00083F8EA2183F8EB2183F8EC2183F8ED21C1
:1022000083F8EE2183F8EF2183F8F02183F8F121A0
:1022100083F8F22183F8F32183F8F42183F8F52180
:1022200083F8F62183F8F72183F8F82183F8F92160
:1022300083F8FA2183F8FB2183F8FC2183F8FD2140
:10224000552283F8FE21AA2283F8FF210846BDE823
:10225000F88FFF2283F8C32183F8C42183F8C521B6
:102260007AE7013A2E4FDFF8C080DFF8C0904E1EAB
:1022700004465518AE4201D10021E7E73B681868D3
:10228000A0F5805CB6EB5C2F01D30121DEE7D9F825
:10229000002008EA462393424FEA46203BD100281B
:1022A0000346B8BF00F2FF135B125A4202F0070266
:1022B00003F007031B4958BF5342DBB201220968F0
:1022C0009A40D2B20A4226D0DFF864A0DAF8C410ED
:1022D000B9B14FEA430B4FF4807251F82B102046EE
:1022E000FFF72EFDDAF8C4100BF101034FF48072F2
:1022F00051F82310A018FFF723FD04F500740136F0
:10230000B8E74FF4007221460CEB4320FFF768FD5D
:102310000028F2D1B9E74FF400722146F6E700BF7A
:102320007C4B0120004A012000F0FFFFF84901200A
:10233000804F012010B58389C288044600689BB293
:1023400002FB0300FFF7FCFCA389A1889BB20133C9
:10235000B3FBF1F201FB12339BB2A38163899BB201
:10236000994215BF6389A38901339BB216BF9BB203
:10237000E381638110BDF8B5037A04460E46154625
:1023800033B9428983889B1A9BB29D4228BF1D4660
:102390000027BBB29D4201D82846F8BD31462046F1
:1023A000FFF7C8FFE38801371E44F2E738B504465B
:1023B000154632B90378012B02BF104B8022C3F8B7
:1023C0008420E38922899BB29A4204F1040001D15E
:1023D000237B73B1FFF7AEFF75B901252378012B7D
:1023E00002BF064B80225A6035B9BDE83840F6F787
:1023F000EDBF002DF9D1F1E7012038BD00E100E08B
:102400004378023B0A46032B14D8DFE803F0022985
:102410001820144B19786FF30001197019786FF3B5
:102420004101197019786FF38201197019786FF3EF
:10243000C30119700C4B01461868FFF7B7BF094B71
:102440001978C9070CD5197841F00801F1E7054959
:102450000B78DB0704D50B786FF3C3030B70E9E748
:10246000704700BFCC450120004601201FB5002366
:10247000CDE9013301218DF8050001A803938DF802
:102480000430FFF7BDFF05B05DF804FB012813B56C
:10249000044600F0A18002284DD1634BD3F80024FC
:1024A0001205FBD54FF40062C3F80024BFF36F8F11
:1024B000BFF34F8F5D4B1B68082B0AD15C4B5D4A05
:1024C0001868002840F0828049F275311960106068
:1024D0001960F7F7B3FA48B1554B574A1868002806
:1024E00077D149F275311960106019604F4B1B6844
:1024F000082B09D1514B40F2E3721A6040225A6016
:10250000BFF36F8FBFF34F8F474C4D498022C4F804
:102510001C25C4F804134B49C1F884214A60F7F71D
:10252000ABFA0028FBD00123C4F80435BFF36F8F4A
:10253000BFF34F8F48E0002846D13B4BD3F800252E
:10254000002A41D14FF40062C3F80024BFF36F8F1B
:10255000BFF34F8FF7F772FA48B1354B364A186818
:10256000032128BB49F275301860116018602F4BA9
:102570001B68082B09D12E4B2E4A1868C021C8B9F8
:1025800049F27530186011601860274B0124C3F8B8
:102590000045BFF36F8FBFF34F8FF7F76DFA98B910
:1025A000F7F76CF940B102B0BDE81040F7F756BA42
:1025B0001160DCE71160E8E7234B18601B680193AA
:1025C000019B4FF080431C6002B010BD00231360DC
:1025D0007FE70023136089E7134BD3F80025002A17
:1025E000F2D00022C3F80425BFF36F8FBFF34F8FE3
:1025F00014498020C1F88400D3F80013C3F80813ED
:10260000C3F80025BFF36F8FBFF34F8FF7F736F98D
:1026100038B1F7F725FA022002B0BDE81040FFF705
:1026200025BF0A4B1C60F6E7007002403001001025
:1026300000EC064014EC064014ED06400078024021
:102640000514800100E100E00001004004000040AA
:1026500037B5264D402385F827330DF103000023BD
:102660008DF80330F6F7E4FE9DF80330EBB101205E
:10267000F6F7D8FE0120F6F7D3FE0120F6F7D4FED8
:1026800001A8F6F7D3FE1A4B1A7862B10020187031
:10269000019BDA0701D5FFF7F9FE019B9B0702D5E5
:1026A0000220FFF7F3FE03B030BD124C227882B94E
:1026B0004FF08043C3F88025C3F87825286810F0D0
:1026C000010004D1E02385F80033F7F71DFA012358
:1026D0002370094B094A1A604FF080434FF460722F
:1026E000C3F80423D3F838340193CCE700E100E0C9
:1026F00038220120DC510120744F01208D24030079
:102700001FB50024CDE901448DF8040007208DF8A1
:1027100005008DF8081001A8194603928DF80940AC
:10272000FFF76EFE04B010BD1FB5124B93F8C0202A
:10273000BAB1114A5268C2F3080272B10023019380
:1027400008238DF805300D4B0121CDE9023001A899
:10275000FFF756FE05B05DF804FB93F8C020002A91
:10276000FBD1012283F8C0200260BFF36F8FBFF35B
:102770004F8FEFE7442F012000ED00E029270300F1
:10278000F8B5104D104E00F59473182455F8233009
:102790004443142202FB0052DDB20C4B3159C2F803
:1027A000001703EB8000C2F80457FFF7BDFF335951
:1027B00037192B443351FB8815FA83F39BB2FB8006
:1027C000F8BD00BF00700240442F01202870024075
:1027D00010B4104B182101FB00314A8A0B8ACC68D7
:1027E0009B1A0A7D9BB2934228BF13461422424390
:1027F00002F1804202F51C32C2F80046C2F80436EB
:102800002344CB60044B5DF8044B03EB8000FFF7DF
:102810008BBF00BF442F012004700240F8B504466E
:10282000164600F07F001822214D02FB00F7E30955
:102830000C2202FB0372AF18A9500022BE80FA805E
:102840002F46D0B9CEB91B4AD2F88014C1F3C011BB
:102850008B4212D01848FFF767FF95F8C0304BB98C
:10286000F7F702F900231A4621461846FFF748FFFA
:102870000120F8BD85F8C060F4E7ABB9182202FB6F
:102880000072527A12B1FFF77BFFF1E7094A30B9C3
:102890000123D364BFF36F8FBFF34F8FE8E700F5D9
:1028A000947042F82030F5E7FFF792FFE0E700BFB1
:1028B000442F0120007002405070024010B50C46B9
:1028C000204611461A46FFF7A9FF60B1064B04F0F7
:1028D0007F0103EB410303EBD41191F8213043F066
:1028E000010381F8213010BDCC450120F7B54B79AB
:1028F000082B06460C46174602D0002003B0F0BD58
:102900008B79062BF9D1CB79502BF6D1114D097863
:1029100005F12E03019305F12F03009302231A46BC
:102920002144FCF7F7F828B90B4B1B68DB07E4D50B
:1029300000BEE3E7A37885F82D3017233B8095F898
:102940002F101F232A463046FFF7B8FF0028D5D1A5
:10295000EAE700BF6C440120F0ED00E070B4104ADB
:10296000104B4FF40B6444431519E97801F07F00D4
:1029700003EB400303EBD11393F8210010F00100A7
:102980000CD16E8BAB8A9B1B9BB23F2B06D904F5F7
:1029900003642244402370BCFFF790BF70BC7047B3
:1029A00080260120CC450120F7B54B79022B074644
:1029B000154602D0002003B0F0BD8B79022BF9D16F
:1029C000CB79062BF6D8244EB378002B3ED18B78EA
:1029D00033700C7809230C44138005E023782A888F
:1029E00013442B8023781C446378242BF6D0052BCA
:1029F00011D12046FCF75CF828B9184B1B68DA07A0
:102A0000D8D500BED7E7A378737023782A881344FB
:102A10002B8023781C446378042B12D163790A2B12
:102A20000FD10F4B217801930133009302231A46F3
:102A300021443846FCF76EF80028DED02B88173387
:102A40002B800020FFF78AFF0120B4E7034B1B68AF
:102A5000DB07AFD500BEADE780260120F0ED00E03A
:102A60008226012008B5084B1B6899420AD1074B02
:102A7000002058839883D883FFF770FF044B03F13D
:102A800028029A6508BD00BF7C4F012080260120E6
:102A9000804F012008B5074A93788B4208D1102354
:102AA0001832FFF70BFF20B9BDE80840F6F78EBCDF
:102AB000002008BD083001202DE9F7434B79032B96
:102AC00080460D46914604D00024204603B0BDE860
:102AD000F083204E74783746002C35D10A781144A3
:102AE000B16291F801C0BCF1210F0AD1AC5C721C3B
:102AF0000236019221442A790096FCF70BF804462D
:102B000028B9154B1B68DA07DED500BEDDE7AB79C7
:102B1000012B04BFEB79FB7000233B71AB783B705A
:102B2000BB6AB3F80730FB802B79C3EBC3031233C6
:102B3000A9F80030B9780029C7D0084A10234046C8
:102B4000FFF7BCFE0028C0D1034B1B68DB07BBD5D9
:102B500000BEB9E708300120F0ED00E02030012090
:102B600038B50C4CA2788A42054611D19AB222B1EE
:102B700004F59871201DFFF7FEFB074AA17840235A
:102B80002846FFF79BFE20B9BDE83840F6F71EBC8B
:102B9000002038BDAC320120DC3301202DE9F047A4
:102BA0004B79012B0746914602D00020BDE8F08703
:102BB0008B79012BF9D1CB79002BF6D10C782546F6
:102BC0000C446378242B27D0042BEED16379012B9E
:102BD000EBD1A379032BE8D1E379002BE5D1224A8D
:102BE00092F801A091785AEA010A90463AD1A37866
:102BF000137026783544ADB226442379534510D856
:102C0000A9F80050194A98F8021040233846FFF7F7
:102C100055FE0028CAD10BE023781D44ADB21C44F8
:102C2000CFE77378052B18D13046FBF741FF28B961
:102C30000F4B1B68DB07B8D500BEB7E7B378DA09DE
:102C400014BF88F8013088F8023033780AF1010A9D
:102C50001D44ADB21E445FFA8AFA33781D44ADB20A
:102C60001E44CAE71B70FFDEAC320120DC330120BA
:102C7000F0ED00E010B5154A0446507BF6F7EAFB8C
:102C8000936892F82F1068B99362012382F82C3070
:102C900042F2077382F83E0093872046BDE8104059
:102CA000FEF762BA926B9B1AB3F5805F28BF4FF4B0
:102CB0008053074A9BB22046FFF700FE20B9054B20
:102CC0001B68DB0700D500BE10BD00BF6C440120AF
:102CD0006C340120F0ED00E010B40A4C08680B469B
:102CE0004968224603C20022C4E9022293F9003057
:102CF0005DF8044B93421146ACBF80201046FFF7AD
:102D00008DBD00BF302F012013B5124B9889D98992
:102D100093F90040421A92B2402A28BF4022002C68
:102D20000EDA884212D099680B480192FFF708F832
:102D30000949019A802002B0BDE81040FFF76EBD3E
:102D400088424FF0000003D10021F4E78020FBE728
:102D50000149F0E7302F01208C450120F8B5184DCE
:102D60000C46074608684968AA602E4603C600213B
:102D7000E981E1888B4228BF0B46AB81E18879B1BC
:102D800043B13AB90F4B1B68DA0701D40020F8BDF4
:102D900000BEFBE73846FFF7B7FF58B10120F6E762
:102DA00094F90030002B0A46ACBF80200020FFF7CA
:102DB00035FDF2E7034B1B68DB07E7D500BEE6E70E
:102DC000302F0120F0ED00E037B50B7803F0600301
:102DD000202B05460C4621D14B78FE2B06D0FF2B2D
:102DE0001CD1FFF779FF012003B030BD01238DF81E
:102DF00007300B4B1BB1AFF300808DF807009DF837
:102E000007000028F0D0431E8DF807300DF10702AF
:102E1000012321462846FFF7A1FFE4E70020E3E76E
:102E2000000000000A7802F06002202A38B509D1BB
:102E30000F4A8C881578A54204D14C78212C03D8F0
:102E40001F2C0DD8002410E0222CFBD14B881371CD
:102E500003F00104FFF740FF3CB9FBF717FE03E066
:102E600007230632FFF77AFF0124204638BD00BF52
:102E700080260120F0B50B7803F01F05012D85B0E9
:102E800006460C4601D000201AE04A4A8F8892F884
:102E900000C0FFB2BC4517466AD0474B1B68DB0732
:102EA000F1D500BEEFE76378062BECD163881B0AEF
:102EB000212B07D1926A002AE5D01378FFF74EFF45
:102EC00005B0F0BD222BDED1D3883C4AFFF746FF88
:102ED00035E063881A0A012ADFD1DAB2384B0021C3
:102EE00018461D7A954210D10C22E388019302FB0B
:102EF00001011A4649683348FEF722FF019B002B67
:102F0000CBD0304A21463046E0E70131042903F1B5
:102F10000C03E6D100235B68FFDEE388102BB2D8F8
:102F2000294AEFE76088294B000A78711BB1AFF39B
:102F300000800028A7D021463046FFF7CDFE0120B3
:102F4000BEE7234A0123DDE73B79C3F101038DF896
:102F50000F300DF10F020123D4E760881D4B0138BB
:102F600018BF01203871002BE5D0AFF30080E2E7F5
:102F700013F0600397D0202B85D16378013B0A2B97
:102F800081D801A252F823F0D32E0300432F03006F
:102F9000492F0300872E0300872E0300872E03008E
:102FA000872E0300872E03001B2F0300252F03000D
:102FB0005B2F030008300120F0ED00E0501E0700F9
:102FC000E423012010300120203001200000000007
:102FD0000D30012000000000F7B50E46144600F148
:102FE00008054FF0FF37042C2246314628BF042243
:102FF00001A80197FEF7A4FE012201A92846F6F7D1
:103000005DFC042C04D9043CA4B204360435EAE780
:1030100003B0F0BDF7B50288112A04460D464FF003
:10302000000344D0262A40D0102A64D13349882096
:103030004FF6FF760A4600FB03F77F5AB74203D0EC
:103040000133052BF7D104232D4E88204343D1189B
:10305000A088D6F8CC70D0522A48C865C1E918714A
:103060000020294F81F85A00A1F876008F6603F1FD
:1030700060011144C6F8CC1004F10801A86151F8B0
:10308000080F6C334968134403C36846F7F74EF9D9
:10309000BDF80030228A9A4202D8628A9A4203D24C
:1030A000A0886946F7F73CF90023EB6020E0134A5B
:1030B00081881746882000FB03F6B65A8E4203D05B
:1030C0000133052BF7D1042388265E43B9190E4836
:1030D000F6F7E2F94FF6FF73BB530023CA6D81F890
:1030E0005A3008498A421EBF5360217A1172AB617F
:1030F000012003B0F0BD1846FBE700BF40470120A8
:10310000804F01207C2907000169030038B503883E
:10311000362B0C4615D1B1B182888B899A4212D1D7
:10312000C388CB81C5894A68954228BF154600F1FE
:1031300010012A462068FEF703FE0120A5602074D6
:1031400038BD0020FCE70120FAE700002DE9F04F30
:1031500015464268DFF860A01368DFF86080DFF88A
:1031600060B087B081460E4601930DB901201BE087
:10317000D9F80420019BD768AF4228BF2F4653459A
:1031800015D13A4631464046FEF7DAFD4246D9F8B7
:103190000400002402A9CDE90227CDE90444FBF78D
:1031A00067FB584505D0204607B0BDE8F08F324692
:1031B000EDE73E44ED1BD8E700F00240000001209F
:1031C0000000AD0BF8B51C464B1E5942174659413D
:1031D00005461430069EFCF72BFE012F17D126441E
:1031E00005F11C07B44200D1F8BD012221466868F0
:1031F000FFF7ACFF01213846FCF71AFE0120F7F774
:103200008FFB00213846FCF713FE0134EAE76868BB
:1032100032462146BDE8F840FFF798BFF0B5ADF55E
:10322000805D81B0044617461E460D4649B9B2F589
:10323000805F06D11946FEF797F80DF5805D01B065
:10324000F0BD4FF4805221466846FEF779FD3146C5
:103250003A460DEB0500FEF773FD69462046EAE7A6
:10326000F8B544680C44C4F30B0116461D46641AB5
:103270000DB90120F8BDC1F58057AF4228BF2F46D8
:1032800033463A462046FFF7C9FF0028F2D0ED1B2F
:103290003E4404F580540021EAE72DE9F04184B072
:1032A00002AF0C463A6A054619460CBB5300D81DBE
:1032B00020F007006E46ADEB000D02A84FF0800C29
:1032C0000DF1090E94420BD10122A98B0092024606
:1032D0006868FDF76FFCB5460837BD46BDE8F0816C
:1032E00011F8048000F814C00EF814800134E9E7E6
:1032F00002F1080020F007006C46ADEB000D402005
:10330000531C8DF808000DF109007B60FEF718FDD5
:103310000122A98B009202AE7B6868683246FDF7F5
:1033200049FCA546D8E7F8B54589ADB204460E4636
:1033300055B143899BB29A428ABF45891546ADB2C1
:103340000027BBB29D4201D82846F8BDE389E28838
:1033500021689BB202FB03113046FEF7F1FCE389C2
:10336000A1889BB20133B3FBF1F201FB12339BB294
:10337000E3816389013B9BB26381E38801371E448B
:10338000DFE700002DE9F0474F4C23780F469046C9
:10339000002B40F0938000252846BDE8F0871909EE
:1033A000A1F1080CBCF1030F01D90E2922D184F838
:1033B000241184F829610135A8453FD094F82801EB
:1033C0007B5D94F8241100285ED10222042984F840
:1033D000253184F82821E2D1F72B06BF052384F894
:1033E000243184F8281194F8282194F829319A423C
:1033F000E1D11BE00F2941D1F02B02D184F82461E7
:10340000D7E703F0FD01F12905D1032384F8242136
:1034100084F82931CFE7F22B03D1032384F8243138
:10342000C7E7052384F8243184F82921274804229A
:103430005146FEF7A0FF03283DD8A8BB6278244B75
:1034400002F07F0103EB410303EBD21393F8210059
:1034500010F00106A0D11F494022A1F5AE70FFF780
:1034600062FF0346002897D01A4A61783046FFF77A
:1034700025FA002890D1F5F7A9FF8DE70F2384F8EE
:103480002431A4F82601CFE72218042982F8243138
:1034900000F10102D2B284F82821A4D1F72BA2D1E5
:1034A000043084F82401BFE70B4B1B68DB077FF572
:1034B00072AF00BE6FE784F828917CE700250426F0
:1034C00004F5927AA94677E7AC320120C032012098
:1034D000CC4501201C340120F0ED00E0F8B50E468B
:1034E000154612B900252846F8BD1F4C94F82E3118
:1034F00004F59577CBB904223946A018FFF713FFDE
:103500000028EFD094F82A3103F00F00052828D0C6
:103510000F2826D003F00B03022B04D00C3801280F
:1035200094BF0223032384F82E3194F82F3194F8AA
:103530002E21D21A954228BF154601332A46F91882
:103540003046FEF7FDFB94F82F3194F82E212B44E2
:10355000DBB29A4284F82F3104BF0023A4F82E3145
:10356000C1E70123DFE700BFAC32012070B5164D83
:10357000164BAA7802F07F0103EB410303EBD21351
:1035800093F8210010F0010601D0002070BD402208
:1035900005F5076105F12000FFF7C5FE044688B177
:1035A000FDF78EF90028F0D0A978234605F50762CB
:1035B0003046FFF783F928B9054B1B68DB07E4D5D4
:1035C00000BEE3E72046E1E780260120CC4501204C
:1035D000F0ED00E02DE9F8431D46284BDA788A42E9
:1035E0000F461C463BD09B788B423ED1A378BB4212
:1035F00026D0012040E0638BA28A9BB29A4206F556
:10360000036101D1237E13B14046FEF793FE637937
:10361000FF2B06D096F83018994202D10020FFF710
:1036200021FA0136B145E6D1154B2BB1638B9BB224
:1036300013B10020AFF300800020FFF78FF9D5E72A
:10364000FFF794FF002DD4D005F03F0555EA0003A5
:10365000CFD1A1781A461846FFF730F9C9E71E46C0
:1036600003EB050903F11008DCE7064B186810F0BE
:10367000010001D000BE0020BDE8F88380260120B3
:1036800000000000F0ED00E0814210B410D28B1871
:1036900098420DD2531E194403449A1A9A4202D1F9
:1036A0005DF8044B704711F8014903F80149F5E74B
:1036B0005DF8044BFEF744BB38B504461546626816
:1036C0008A42084603D929448A4201D8606038BD3D
:1036D000A368521A18441944FFF7D6FF6268521BB8
:1036E0006260F4E72DE9F04F2DED028B83B00C46BC
:1036F0000092F2B901F10C05D4F800A00AF102031E
:10370000EB1808EE103A574606464FF000094FF006
:10371000610B33780BB1292B0DD1B9F1000F58D0C3
:10372000002D56D02368013BA3EB090305F80930AF
:103730004FE00025E0E73F2B00F0298113D8243B20
:10374000DAB20A2A19D822680A2B16D8DFE813F051
:10375000AF01150015001500D900150042017201D6
:103760001500150075005E2B00F0998115D85B2BB4
:1037700006F1010169D05C2B28D02768002D59D0B3
:103780007B1C23600123EB5523685A1C226032788E
:10379000EA546368013363603BE07C2BEDD1B9F1FF
:1037A000000F00F06181002D00F061812368013B72
:1037B000A3EB090305F80930226818EE100AA2EB02
:1037C0000A0205EB0A01FFF75FFF50E1737833B996
:1037D0000026304603B0BDEC028BBDE8F08F2768B1
:1037E00043F02000642807F1010205D023F0040310
:1037F00043F02003732B0ED1CDB105232260EB558E
:1038000023685A1C22607278EA546368013363604B
:103810000E4601367DE755B101232260EB557078E5
:103820002668F3182360F5F71EFDA855EDE7BB1CCD
:103830002360EAE7BB1C2360ABE7531C17462360F9
:10384000002DA6D00223AB54A3E7276872787B1C17
:103850005E2A236015D10DB10423EB55B11C2368FA
:10386000013323606368013363600E464FF0000844
:1038700031785D290AD1002DCBD0EB1983F8018076
:10388000C7E7002DEBD00323EB55E8E700299FD0D5
:1038900023685C2903F1010225D10193711C05B352
:1038A00070782260F5F7DFFC019BE8544B782D2BF4
:1038B00003D18B785D2B18BF02310E46236816F8B2
:1038C000010B5C2803F1010215D101938DB14878F9
:1038D0002260F5F7C8FC019BE854013608F10108A5
:1038E000C6E72260E2E722600DB13278EA54314641
:1038F000DCE72260F1E722600DB10A78EA540E4657
:10390000EBE773783F2B174627D1B3783A2B24D1B6
:10391000002302369846701C009A01932146FFF757
:10392000E1FE064600283FF453AF0278292A7FF4CF
:103930004FAF019B002B3FF46CAF23682DB35A1C93
:1039400022607E22EA5423684FEA48085A1C08F194
:103950000108226005F803801BE7A36803F1010852
:10396000C4F8088075B1531C23607E23AB542368D0
:103970005A1C22604FEA4802EA54636801336360CC
:103980000123C8E702322260F7E7023353E72268D7
:10399000BA423FF41DAF2DB1B81CD21BE91928441F
:1039A000FFF772FE23680233236073783F2B07D141
:1039B0000DB16223EB55013635B9636801332CE054
:1039C000002DFAD005F807B02368EA19023BDF1B87
:1039D0005770F2E7BA423FF4FBAE2DB1B81CD21BD0
:1039E000E9192844FFF750FE2368023323603DB1F4
:1039F0006022EA542368EA18C3F1FE033B44537083
:103A000023680233236073783F2B09D10DB1622301
:103A1000EB55013645B96368023327686360F8E601
:103A2000002DF8D005F807B02368EA19023BDF1B28
:103A30005770F0E7BA423FF4CBAE73783F2B08D112
:103A40000DB105F802B001363DB92768023727608D
:103A50009FE6002DF9D06223AB542368EA18C3F126
:103A6000FE031F445770F0E7002D7FF4A5AE2368D6
:103A7000DA1C226015B12B4460229A70D4F80090B1
:103A800009F101032360002DC5D005F80AB02368B1
:103A900005EB0A02023BA3EB0A035370BBE7226863
:103AA000531C2360002D88D05023AB5485E7531C52
:103AB0002360002D81D05123F7E700002DE9F04F5E
:103AC0002DED028B0D4608EE103AD1B01646834616
:103AD000002802F012830968F9F722F9031E029305
:103AE000C2F20F832B6803442B60DBF80080B8F12F
:103AF000000F0BD1584618EE101AF9F7F2FF6FF0CD
:103B0000060051B0BDEC028BBDE8F08FDBF804700D
:103B1000002FEFD098F8004098F81C20002C3CD1E2
:103B2000032A4FF009010CBF4FF011094FF0200993
:103B300039A8CDE93934CDE93B49F9F797F8386030
:103B400098F81C30032B0CBF0521032139A8F9F785
:103B50008DF807F1180A7860DBF8BC379C420CDB63
:103B60004FF0000ADBF8C4379A4580F2C7809023F3
:103B700003FB0A740023039391E0AAF110030121CF
:103B800039A80393F9F772F8039B43F8040B5345E4
:103B9000F5D101340AF1100ADEE7032A4FF00801DB
:103BA0000CBF4FF009094FF01109399339A80023D0
:103BB000CDE93A33CDF8F090F9F758F8386098F835
:103BC0001C30032B0CBF0121022139A8F9F74EF854
:103BD0007860C5E70C2139A8F9F748F80921A062F7
:103BE00039A8F9F743F80821E06239A8F9F73EF857
:103BF000206398F80030002B0CBF0421092139A85C
:103C0000F9F734F80121606339A8F9F72FF8A063B8
:103C1000002855D0022139A8F9F728F80121E063DE
:103C200039A8F9F723F80521206439A8F9F71EF817
:103C30000521606439A8F9F719F80023E364A0644A
:103C4000032139A8F9F712F80321206539A8F9F7FB
:103C50000DF80321606539A8F9F708F8E36BA06552
:103C60002BBBC4E90A336363E36DC3F1140323661A
:103C700098F80030002B3FD1012139A8F8F7F6FF62
:103C80006066012139A8F8F7F1FF0121A06639A883
:103C9000F8F7ECFF039BE066013303934834DBF84D
:103CA000BC37039A9A4295DB0AF1010A5AE7022BC4
:103CB00004D1236C13B90823E365D5E70723FBE799
:103CC000C4E90F00052139A8F8F7D0FF0521606489
:103CD00039A8F8F7CBFF0521A06439A8F8F7C6FF8B
:103CE0000421E06439A8F8F7C1FF0321E06539A891
:103CF000F8F7BCFF2066BBE70020C1E73B68CBF8C4
:103D0000D8372B684B442B60029B03EB09043368C4
:103D10001B1B3360DBF8B827DBF8B03772B1002B20
:103D200059D1DBF8CC2733689A4264DD584618EE47
:103D3000101AF9F7D6FE4FF0FF30E2E6002B4AD119
:103D40000123CBF8B037D5F80080D6F800A0A8EB57
:103D50000404474651463846F9F7D7FE002807EBDA
:103D6000000324DB395C227891421BD159786278B8
:103D7000914217D1A1789A784A4012F0FC0F11D1E4
:103D80008F0748BF03F1FF33A3EB0803002BCBF8E9
:103D9000B4370FDA584618EE101AF9F7A2FE6FF092
:103DA0000200AEE60330DF1CAAEB000AD2E74FF0B8
:103DB000FF33EBE7029ADBF8C4171A449144DBF8AF
:103DC000C027DBF8C83702FB09F2D2004B4392FB55
:103DD000F3F2CBF8B827DBF80030DBF8B4273BB1BF
:103DE0005B69003B18BF01231344CBF8CC3798E73D
:103DF0004FF0FF33F8E7DBF8DC07DBF8D8370BF1DF
:103E00001C01984208913EDBC11A1A46089B1944CE
:103E10001846FFF739FC089BDBF8D807DBF8CC27FE
:103E200029681844FDF78CFFDBF8CC17DBF8D8279E
:103E30000A44CBF8DC272B680B442B603368DBF893
:103E4000CC279B1A3360DBF8DC37DB0011930BF5D2
:103E5000FC6319934FF0FF3310930023CDE9053332
:103E60000293DBF8C437029A9A4282F24E81902381
:103E700053431793059B0493199B1493179B139318
:103E80004FF0000AE4E3089B296803441846FDF755
:103E900057FFDBF8CC17DBF8DC270A44CBF8DC272C
:103EA0002B680B442B603368DBF8CC279B1A5846F1
:103EB00018EE101A3360F9F714FE6FF0010020E6D7
:103EC000B8F1000F00F0A382DBF804300393002B5D
:103ED00000F09D82DBF80840002C00F09882089BDF
:103EE00023930023CDE92433069A119B9A18D31DFE
:103EF00048BF02F10E03DB102693069B1BB1194647
:103F000023A8F8F7B3FE029B98F800609022534371
:103F1000482202FB0A32039B1A44536BD16B002EDA
:103F200040F03E819D4810F8135000EB43030229F6
:103F30005F785CD1D2F84080B8F1000F0DD0049BBF
:103F400004EB0308294623A8F8F790FE0136082E53
:103F500008F8010BF6D14FF00308059B3E2606FB3F
:103F60000A3608EB48031E4426440DF18C09294605
:103F70004846F8F77BFE2946F0754846F8F776FE86
:103F8000294630764846F8F771FE08F10108B8F185
:103F9000060F707606F10306E9D1049BE618394650
:103FA0004846F8F763FE394686F829004846F8F790
:103FB0005DFE394686F82A004846F8F757FE08F1B4
:103FC0000108B8F10C0F86F82B0006F10306E6D1C4
:103FD000029A7C235A433E2303FB0A231C440023FA
:103FE00084F83D3084F83C3084F83B301AE0029B82
:103FF000002B4BD13E2303FB0A44029EA1460DF148
:104000008C0829464046F8F731FE01360B2E09F898
:10401000010BF6D139464046F8F728FEA055013687
:10402000152EF7D1029A90235A43482303FB0A2303
:10403000039A1A44936A149A1360239A089BD31A1A
:10404000259AC2EBC302D31002F007020A92069A25
:1040500014980A99C2EBC3020A4450F8041B149046
:10406000881A0390089818440E901198002BA0EB22
:1040700002021A9202DB884280F2D081584618EE82
:10408000101AF9F72EFD6FF007003AE54FEA0A1310
:10409000039A083302EB0308D658D6B13E2303FB3C
:1040A0000A430622109813F8011B1954013AF9D15A
:1040B000D8F80430D3B9049B062604EB030929463B
:1040C00023A8F8F7D3FD09F8060001360B2EF6D128
:1040D0001FE0049B04EB0309294623A8F8F7C6FD5B
:1040E0000136062E09F8010BF6D1E1E7029D3E23C9
:1040F00003FB0AF37C20E21800FB0533234491798B
:104100009971D179D971117A1972517A5972927A59
:104110009A72D8F808302BB33E2303FB0A430B33C3
:104120000B22109813F8011B19540132102AF8D1F0
:10413000D8F80C3023B33E2303FB0A43103310227C
:10414000109813F8011B19540132152AF8D1029A5C
:104150007C235A433E2303FB0A231C44002363753C
:10416000A3755FE7049B0B2604EB0309394623A8DC
:10417000F8F77CFD09F806000136102EF6D1D7E7D6
:10418000049B102604EB0308394623A8F8F76EFDBC
:1041900008F806000136152EF6D1D8E7A8D006009B
:1041A000D8F8206016F0010603D0BAF1010F00F034
:1041B000A580B3F5C87F6CDA1811052290FBF2F2E6
:1041C000279202EB8202821A28920020C3F3810216
:1041D00003F0030329922A9302460346022940F082
:1041E000C280029D4FF0900C0CFB05FC4827039DFC
:1041F00007FB0AC72F443F6C002F08BF012102EBC9
:104200004202854F114417F82120399207EB8101B2
:104210004A783A928A783B92CA783C92A6B1BAF12F
:10422000010F11D127AE04F1FC0239A904F58677FC
:1042300056F804CB42F804CB51F804CBC2F80CC0BA
:10424000BA42F5D1C4F8F8000299902251434822AD
:1042500002FB0A1203990A445366D36B022B40F007
:10426000CC80176C002F00F0A980049B0026E71873
:10427000279923A8F8F7FAFC0136062E07F8010B58
:10428000F6D103230127059A4FF03E0909FB0A25C1
:104290008CE0B3F5FA7F12DAA3F5C8739810052203
:1042A000B0FBF2F2279202EB8202821A03F00303C0
:1042B0000020289229932A90034601228EE7A3F535
:1042C000FA730322B3FBF2F202EB42001B1A0298CC
:1042D000039D27924FF0900C0CFB00FC0027482018
:1042E000CDE9297700FB0AC028442893006C10B15F
:1042F000CDE928233846012302226FE7B3F5B47FC6
:1043000003F001004FEA630210DA242792FBF7F36F
:1043100007FB13220627279392FBF7F307FB1322D1
:104320002893002329922A93032257E7F32A0CDCCF
:10433000B43A13112793C2F38103289302F00302C6
:10434000002329922A93042248E7F43A0323B2FB7C
:10435000F3F3279303EB4303D21A00232892CDE90A
:10436000293305223AE7002149E727AB23A853F870
:1043700027100791F8F77AFC0799307523A8F8F70A
:1043800075FC0799707523A8F8F770FC08F101080F
:10439000B07539AA08EB090352F82710884506F1D1
:1043A0000306E2DB0137042F3FF412AE03EB4306B2
:1043B0002E44994626444FF00008EAE73B4662E760
:1043C00027AB23A853F82610F8F750FC08F8010B88
:1043D000013755F826108F4207EB0903F0DB013651
:1043E000042E0DD1029A7C235A433E2303FB0A2359
:1043F0001C440023A375637514E600231E4639ADE3
:104400009946049B09EB0308A0440027E1E7069BBB
:104410000A934FF0FF331AE631D00600DBF8004074
:10442000002C00F0B581DBF804300693002B00F07F
:10443000AF81DBF80830002B00F0AA81DBF80C001C
:10444000002800F0A581039B002BC0F2A181029BF4
:10445000616B90255D434822069B02FB0A551D4473
:10446000AB6B002B00F02081EB6B022B40F01C812A
:104470002B6C002B40F00081EB6D0322013393FB8A
:10448000F2F301EB4303B3F92E2002EB42024FF4A7
:104490001071029B90245C43482303FB0A43069C53
:1044A0002344DC6A6300B3F5107FA8BF4FF4107398
:1044B0009342D4BF3A933A9200EB8A020793169242
:1044C00002F590528B42D4BF3B933B913C930799AA
:1044D0000023399311604FF4106202FB0A020F921D
:1044E00039AA0D920A9A0B920C930E9A139B08927A
:1044F000069A4033D3181B930D9B1C680C9B013309
:104500000C930D9B53F8045F0D932D1B002D40F36E
:104510006F82039B002BC0F23B810C9A1B9B089976
:1045200053F82260B44B03EBC6031B7909930B9B32
:1045300009985B4213F007031EBF11F8017BC3F11A
:10454000200207FA02F20F9F08BF1A4607EB840405
:10455000002840F0BB80231D002244F8202043F8AF
:10456000202002308542F7DC13460B9A08991A4442
:1045700001EBE20102F007020B92039A0891D31AB1
:1045800003930C9B032BB7D1039B002B40F3B28208
:10459000029B079D90225A43482303FB0A23069A55
:1045A0001A444FF00009D36E944A52F82300944AFB
:1045B00052F823600B9B5B4213F0070317BF11F8FF
:1045C000014B0899C3F1200204FA02F20F9C04EB9C
:1045D00085040694039CC6F12006A4EB0305079C02
:1045E0000796884EC4F50F74304408BF1A464F46EC
:1045F00001340990BC4200F30182169B03F59052EE
:1046000013681F4417600023B7F5107FC0F274824F
:10461000039A0B9B134403F007020692089A02EBDD
:10462000E303139A48321392049A3E3204920E9A8C
:104630009B1A00F1AD800E9A1A4408920A9AC2EBB6
:10464000C303069A13441A9AD31A11930AF1010A62
:10465000DBF8BC37DBF800809A45FFF631ACB8F1E7
:10466000000F40F05182584618EE101AF9F739FA47
:104670006FF00900FFF745BA23785BB9029C9023DD
:10468000634302FB0A32069B1A44D36D013331F9AE
:104690001320FCE6B1F93630B1F934209A1AB1F999
:1046A0000C3003EB4202F2E6029A90235343482473
:1046B00004FB0A34069B1C44E36D246E013331F97C
:1046C00013202344013331F91310E2E64E4F57F81B
:1046D00026C04E4F07EB4C0011900398A0EB030E41
:1046E0000998012840F0948037F81C6006F00F0606
:1046F0004FF00008C6F12006BEF10F0F51DD0F4646
:10470000C3F1180017F802CB49780CFA00F0C3F196
:10471000100C01FA0CF101430A431033AEF1100EF4
:10472000394604F1080722FA06F0119C013034F8EA
:104730001000040B10F0F00F02FA04F2A3EB103398
:1047400018BF02F00044C0F3031C1EBF520003F167
:10475000FF3344EA0C0C10F4706FC0F303241FBF46
:1047600003F1FF3302F000402043520008BF20460F
:1047700043450DDB023D002D47E902C03C4635DCD8
:10478000A3EB0803039A7344D31A002B80F2318100
:10479000584618EE101AF9F7A4F96FF00800FFF761
:1047A000B0B90EEB03000028F2DDBEF1000FC1BF6F
:1047B00011F8017BC3F1180C07FA0CF73A43BEF16C
:1047C000080FC1BF11F8017BC3F1100307FA03F30F
:1047D0001A434FF00047431E47FA03F31A404FF0C5
:1047E0000B0800F10B034FF0000E9AE70A2B07F1BC
:1047F000080798DC80E700BFB8B30700C4DC0700F7
:10480000BCDC0700CCDC0700B8B4070038B50700F3
:104810000998871E012FBBD8BA48119F50F836C09F
:10482000002012900CF101001590CCF1200018909E
:10483000BEF10F0F2ADD8846C3F1180618F8029B57
:10484000497809FA06F6C3F1100901FA09F1314372
:104850000A431033AEF1100E41460A2BE8DDB7F8DB
:10486000008008F00F08C8F1200622FA06F601368B
:1048700037F816605FEA16392FD107EB4607A3EB2E
:10488000080302FA08F226463446E6E70EEB030672
:10489000002E7FF77DAFBEF1000FC1BF11F8018B75
:1048A000C3F1180908FA09F842EA0802BEF1080F34
:1048B000C1BF11F8018BC3F1100308FA03F31A43C7
:1048C0004FF00040731E40FA03F30B201A40129081
:1048D00006F10B034FF0000EBFE7C6F30318B8F163
:1048E0000F0FC6F30326A3EB090302FA09F23746BA
:1048F00027D10998032827D1159803EB0E09002E1C
:1049000018BF0130484580463FF742AF9845A9EBB4
:10491000030E56DCBEF1000F0ADA734403F1FF3ECA
:104920004FF0004040FA0EFE02EA0E024FF0000E79
:10493000189822FA00F808F10F08A3EB0C0302FA0A
:104940000CF2B8F1000F05D002F0004949EA08085E
:104950005200013B0F2E21D10998032843D115980D
:1049600003EB0E0948453FF713AF15989842A9EBA2
:10497000030E30DCBEF1000F08DA73445E1E4FF008
:10498000004040FA06F632404FF0000E189822FA26
:1049900000F70F37A3EB0C0302FA0CF227B102F079
:1049A000004637435200013B12988342FFF6F0AEB7
:1049B0002646023D002D46F8088B676015DD119FE5
:1049C00062E711F801EBC3F118000EFA00FE42EAAB
:1049D0000E0208339AE711F8016BC3F11807BE40C5
:1049E00032430833C1E73746D9E7129A9B1AC9E622
:1049F0000023039A93427FF7B8ADC9E60F2D57DD28
:104A00000E46C3F1180016F802CB49780CFA00F0F4
:104A1000C3F1100C01FA0CF101430A431033103DAD
:104A20003146069E1036079822FA00FC099810F8C5
:104A30000C004FEA101C02FA0CF210F00808A3EB6D
:104A400010131FBF02F0004803F1FF33520048F07B
:104A5000010810F0040E1FBF02F0004E03F1FF33F7
:104A600052004EF0010E10F0020C1FBF02F0004C7D
:104A700003F1FF3352004CF0010C10F001001FBF96
:104A800002F0004003F1FF3340F0010052004B45BB
:104A9000FFF6B3AD0437A74246E9048E46E902C0EB
:104AA0000696BFF6A7AD092B06F11006BBDCA1E503
:104AB000E81800287FF7A1AD002DC1BF11F8016BE8
:104AC000C3F1180C06FA0CF63243082DC1BF11F8D9
:104AD000015BC3F1100305FA03F31A434FF00045DD
:104AE000431E45FA03F31A404FF00A0900F10A0386
:104AF000002596E7002780E50F9A42F82730013716
:104B000082E500BFB8B30700DBF80470002F3FF464
:104B1000AAADDBF808300793002B3FF4A4ADDBF817
:104B20000C90B9F1000F3FF49EADDBF810A0BAF184
:104B3000000F3FF498AD09F590530A93029B179A22
:104B40007C246343503216931744079B169A1344F0
:104B50000C93002354460B93DBF8BC370B9A9A4214
:104B60004EDBD8F82030002B40F06881D8F8203098
:104B70005A10039240F0AA81D8F82030D90740F1AA
:104B8000A68209F5905298F8005010685B100493C3
:104B9000DAF83033002D40F09783002B40F0DB81B2
:104BA000DAF84443D8F83420DAF82C530993013466
:104BB000013532F91410049EAB4A079FA0EB010A9D
:104BC0001C2000FB0622059E0A923E36BE190E9658
:104BD000049FA64E002206EBC70603920F96AC4236
:104BE00003DABAF1000F00F3CF81079C0598553422
:104BF000201814909D4C049804EBC00015905FE2BF
:104C00000B9B4FF4106202FB0393139357F8143C71
:104C1000022B46D157F8106C002E46D098F8003081
:104C20000322002B03920CBF08260626002339938B
:104C3000BB69D8F8202001335B00129357F8203C61
:104C4000520818BF023B9A1C17920C9A0E92C3F19D
:104C5000D00300220992154604921493B54226D13E
:104C60000023C4F81833399AC4F81C33C4E9C83394
:104C7000C4F82833039BC4F82C230B2B4BDD099875
:104C8000F8F738FC0A9B013898600B9B01330B93B3
:104C90000A9B04330A930C9B3E33183448370C9319
:104CA0005AE70D2303931626C0E70396BEE76B1C55
:104CB0000F93D8F8343003EB4502B2F9021033F900
:104CC00015208B1A0E9A0D9312F8013B0E927A69F9
:104CD00022B1674A691C0A4412F8012C04981399FE
:104CE000134401EB8001129A149802FB03030D9AFE
:104CF0000846F8F70BFC049A0D9B1344049300B18B
:104D00003995099B049A034309930A9B1B689A42AD
:104D1000A6DA0F9DA2E7039B3B93CDE939330C9BA9
:104D200014331893039B0F9301330F9A0393D8F80E
:104D30003430159703EB42030026B3F93010B3F972
:104D40002E20039B8A1A189903EB4303CB18149364
:104D5000930004990E93139B03EB8105179B0D950C
:104D6000C3F1D20351461A93159850F8043B15909D
:104D7000149810F801CB14901A9800EBC303129802
:104D800000FB0C330D98CDE91B12F8F7BFFBDDE9F2
:104D90001B1220B10DF1E40C0F9B4CF82630099B3F
:104DA00003430993DDE90D3001360344032E0D93CF
:104DB0000144D9D1049902EB4203194403465344F8
:104DC00004911E460AEBC20100239A4205F10C052C
:104DD00026DC0A9B049A1B689A4202DA039B0D2B7D
:104DE000A0D10A9B1A46049B136057F8103C002B75
:104DF00014BF02230123C4F81833399BC4F81C33B1
:104E00003A99C4F820138B423B9AC4F82423B8BFC4
:104E10000B469342ACBFC4F82833C4F828232EE7CE
:104E20005AF8230045F80C0C56F8040B45F8080C0A
:104E300051F8040B45F8040C0133C6E741F208238E
:104E400059F80330002B06DD41F20C2359F80330EA
:104E5000002B3FF78BAE09F59053064C19686FF0A5
:104E60004040002310E000BF70B1070060B10700B0
:104E70009C610700010000C059F82320B2F1404FA7
:104E800019DC49F8234001338B42F5DB41F204235E
:104E9000674D59F80300002209F510636FF0404494
:104EA0008242BFF663AE1968B1F1404F09DC1D6064
:104EB00001320433F4E7B2F1804FA8BF49F8230070
:104EC000E1E7B1F1804FA8BF1C60F1E7D80737D503
:104ED000DAF83023D8F834304ABBDAF84423013208
:104EE00033F912300022A9F1040103921546164647
:104EF000AB427FF741AE51F804CFD1F800490CEB3B
:104F00000407ACEB04040F60C1F80049B44687EA1B
:104F1000E77CACEBE77C039840EA0C000390374653
:104F200084EAE477A7EBE4773A430135E0E7DAF87F
:104F3000402303EB4203B3F9303003EB4303D1E7E3
:104F400041F2042309F5905259F8031013688B427B
:104F5000B8BF0B46C6E7013B012B10D8DAF828236F
:104F6000DAF8401301320992D8F8342002EB4102FA
:104F70004B1CB2F930102C4601EB41011BE60995A0
:104F80002B462C46294616E60E9E365D072E2746F2
:104F900023D10498274E56F830C00F984068D8F8AF
:104FA00034600C9006EB470E36F91760BEF902E04C
:104FB0000B91AEEB060001340D9009EB8107002642
:104FC0000D980B99B0423144AAEB060E03DD56450D
:104FD0000AD14FF0000EF24601E60A9850F826C0BA
:104FE0008669A6EB0C00DAE757F8041B0C9880FBE7
:104FF00001E18900C7F8FC184FF0000E81EAE17E5C
:10500000AEEBE17E57F8041C42EA0E028CFB01E194
:10501000890047F8041C4FF0000E81EAE17EAEEBF8
:10502000E17E039941EA0E0103910136C8E700BF12
:10503000010000C060B10700149803EB430606446A
:10504000002516F8014B072C40F0D58004989D4CA4
:1050500054F8304027A840F825401598446839A8EE
:1050600040F825400135032DEBD1D8F834400791A5
:10507000013304EB430504EB4C0CB5F92E50BCF99D
:105080002E40281B0B9039980C9027980D903A9839
:105090000E9028980F903B98129000272998139013
:1050A00009EB8104BC46079807EB470101440B98C4
:1050B000B84205DDBAF1020F04F10C0400F3A5803B
:1050C000099883429C4602DABAF1020FB4DCD8F8A0
:1050D0002030E3B10398F8F70DFA41F208230138C4
:1050E00049F803001046F8F705FA41F20C2301389D
:1050F00049F8030041F2042209F5905159F80230B1
:1051000008688342B8BF03460B6049F802300023A9
:105110000393039ADBF8BC379A42C0F21182029AD9
:10512000DBF8C847544318EE102A5C4302EB4404F2
:10513000DBF80C20002A00F0D787DBF8142003925C
:10514000002A00F0D187DBF81850002D00F0CC8742
:10515000022B02F5D85303F11803079340F03A8667
:1051600005F1800302F5D85907EE903A174600265C
:1051700005F5085809F11C09079B1B68009306F008
:10518000010A3846D8F8002053462946F7F79EFE14
:10519000D9F80030009317EE901A07F51060D8F890
:1051A00000205346F7F792FED8F800304FF488619C
:1051B00001FB0A3104EBC61005EB8101F8F718FE7C
:1051C000D8F800300136A3EB0A0303F00703122ED0
:1051D000C8F8003007F18007CED1029B013302935B
:1051E000059B7C330593199B08331993109B7C33E3
:1051F0001093FEF736BE0A9850F8247027A840F89E
:1052000025700A988469E41B29E754F80C1C0C9853
:1052100080FB01518900C4F8F418654681EAE17504
:10522000A5EBE17554F80C1C0D9880FB01618E0014
:1052300044F80C6C614686EAE671A1EBE67154F81D
:10524000086C0E9880FB06E6B000C4F8F8086646C5
:1052500080EAE076A6EBE07635430F9854F8086CC8
:105260002A4380FB0656B60044F8086C654686EA79
:10527000E675A5EBE67529430398129D08432E4673
:1052800054F8041C86FB01518900C4F8FC186546DB
:1052900081EAE175A5EBE175139954F8046C2A4392
:1052A0000D4685FB0616B60044F8046C614686EA96
:1052B000E671A1EBE67101430391AAF1030A0137FC
:1052C000F1E600BF60B10700079A0499D2F8F82010
:1052D00001EB4202A04901EB82120992079A0024D5
:1052E00002F1FC0102F5867C4FF0010E51F8042B0F
:1052F00039AD0EFA02F2CE6805EB8407013A0025BB
:10530000B54251DB002EA8BFA4198C45EED1012176
:10531000002B40F08580D8F834200393CDE94E115E
:10532000DAF84413DAF82C430B9401310DF1E40E52
:1053300032F911701A46059B03F13E04079B234482
:10534000C51B0C930498854B03EBC0030D930B9B7B
:105350008B42FFF6BCAE0C9B5C5C5EF821309C423D
:105360000E4625D17D4B049853F830300A930D9B9F
:105370005B680793D8F8343003EB460433F91630F2
:10538000B4F90240E41AAC4201F10101A8BF2C4675
:1053900009EB87064FF0000C64451CDC002CA8BF0D
:1053A0003F192D1BD3D192E647F8042B0135A7E70F
:1053B000631C5B1014F00104099814BF4FEA830CBE
:1053C000A44650F80C000A901CB99B000998C358D9
:1053D000CFE70023FAE756F8043B079880FB03A3C6
:1053E0009B00C6F8FC384FF0000A83EAE37AAAEB88
:1053F000E37A56F8043C0A9842EA0A0280FB03A3C7
:105400009B0046F8043C4FF0000A83EAE37AAAEBDB
:10541000E37A039B43EA0A0303930CF1010CBBE715
:105420000AF54773169C0A93079B4591553423440C
:1054300004991C46494B002203EBC1030392944696
:105440000D930A9B1846996950F8043B0C93D8F8C1
:1054500034300A9003EB41034D1C1E8E032316FBD0
:1054600003C60C9BAB4207DA0CF1010CBCF1030F35
:1054700004F10104E5D12AE605EB45032F4614F8B3
:1054800003E039AB53F825108E451FD1334B0499F7
:1054900053F831300B930D9B5B680793D8F8343089
:1054A00003EB47030135B3F93010B3F92E3009EBA4
:1054B0008607C91A4FF0000E714507F10C071ADC78
:1054C00021EAE17101EB41010E44CAE70EF101034B
:1054D0001EF001014FEA6303099814BF4FEA830EDF
:1054E0008E4650F80E000B9019B99B000999CB58C5
:1054F000D3E70023FAE757F80C3C079880FB03A397
:105500009B00C7F8F4384FF0000A83EAE37AAAEB6D
:10551000E37A57F80C3C0B9842EA0A0280FB03A39B
:105520009B0047F80C3C4FF0000A83EAE37AAAEBB1
:10553000E37A039B43EA0A0303930EF1010EBBE7F0
:10554000DBF8003063B9584618EE101AF8F7C9FABC
:105550006FF00A00FEF7D5BAA8B1070060B10700E6
:10556000DBF804200D92002AEDD0DBF80C20049229
:10557000002AE8D0DBF81450002DE4D05A6B1B78D9
:105580000398002B0CBF08230623122132F9133095
:10559000029A93FBF1F30C9390235A43482303FBA5
:1055A00000230D9A1344DA6B022A00F0E380049A78
:1055B00000F5906352F8236040F226239E42CFBF4D
:1055C0002023073696FBF1F14B1C0B930B9B5A1EC5
:1055D000039BDFF8A49407924FF4106A0AFB03FAC6
:1055E000049B534414930799002900F3CB80DDE911
:1055F000033101EB830000F59054122123680D9EC6
:105600004A4308329A42B8BF1A462260113292FBCE
:10561000F1F31593039B05EB83030A9303F5D8532A
:1056200041F608321B681A930A9B9B58169341F661
:1056300010320A9B9B581793039B4FF0480909FBB4
:1056400003F1029B90225343CC183444246C002C69
:105650000C9C08BF00240C9441F2082400591290BD
:1056600003984FF4906404FB005404F590501B9091
:1056700005EB0A0013901298C0F1070009901298E8
:1056800006280998C8BF002007EE100A139800F5F5
:1056900008600F9014983C300E90CDE91E911B9835
:1056A0000790CDE920230020049082460B9B5345B0
:1056B00000F3228123EAE377149A1E9B079703FBEA
:1056C00007291B9B242404FB0733149303EB0408D2
:1056D000139B03EB87030B93A8F1240307EE903A87
:1056E000079A159B934200F32382BB42A3EB07006A
:1056F0004FF02404149B04FB00F4AEBF06460024C4
:1057000000263E4423441C46B046354600271A9BDB
:10571000AB4200F30183B342B8BF33461E460022BA
:105720001F2E40F34583049B002B00F05183002281
:10573000049B002B80F247830A9B0299039803F590
:10574000D853C3F8008090235943482303FB001328
:105750000D99194441F60830CB6B0A990B5041F66C
:1057600010300C9B0B50531E41F618328B50039B8C
:105770000133CDE41A6C1AB10C9B0B935A1E27E728
:105780000B9225E75C6CB04E214686FB0171AF4E53
:105790009F6C304686FB07C7C91B49005964AA4E57
:1057A000996C86FB017180FB04740C4464009C645A
:1057B0001C6CA74E214686FB017100F1AF6000F51D
:1057C000A430DF6C9F3080FB07C7C91B49001964F8
:1057D000D96C86FB017180FB04740C446400DC64AA
:1057E000DC6B9C48214680FB01719B4E1F6D86FB44
:1057F00007C7C91B4900D963196D80FB017186FB7E
:1058000004740C4464001C6500F189609C6B00F515
:10581000FA20214600F50D7080FB01718F4E5F6DFF
:1058200086FB07C7C91B49009963596D80FB01714D
:1058300086FB04740C4464005C655C6B214689FB48
:105840000171874FD3F858C087FB0CECA1EB0C011A
:1058500049005963996D89FB01C187FB04C40C445D
:1058600064009C651C6BDFF814C221468CFB01713F
:105870007C4FD3F85CE087FB0E8EA1EB0E01490054
:105880001963D96D8CFB01E187FB04C40C446400EF
:10589000DC65DC6ADFF8E8C121468CFB0171724FE0
:1058A000D3F860E087FB0E8EA1EB0E014900D962B0
:1058B000196E8CFB01E187FB04C40C4464001C6678
:1058C0009C6ADFF8C0C121468CFB0171674FD3F899
:1058D00064E087FB0E8EA1EB0E0149009962596EC0
:1058E0008CFB01E187FB04C40C4407996400013977
:1058F0005C660791483376E6219A1F9B13440D9A04
:105900001344D3E90F731BB10C9B5345C8BF002749
:10591000DDE916325245C8BF002398460F9BA3F518
:1059200008631893129B062B2FAB7CDC079A0E9C06
:10593000002602F124003246A168099D2941891AF6
:1059400062682A418E1B521A5E6243F8042950F89D
:10595000041D2941016007998142A4F10804EBD19B
:10596000309B5B103093279B27A85B102793F7F79A
:105970009DFE30A8F7F79AFE57EA080400F08480ED
:1059800039AE424607983146F7F766FF209B384804
:1059900003FB07004AAB00241D93364B1C9300F118
:1059A000480922460DF1BC0E3146A0461C9DDEF88A
:1059B000243055F804795EF804691C9587FB03C30D
:1059C000079DC3EBA60C03EBA60345F8223050F865
:1059D00022608CFB06361D9D51F8223059F8047D5B
:1059E000334455F804691D959B008CFB0757189D9F
:1059F0003E44D701B600EB516FF07F0505FB02F77F
:105A00000F9DEE51474683EAE377A7EBE3774346E2
:105A100086EAE673A3EBE67301321F43092A44EAE0
:105A20000704C3D16DE00E9800242246A0F1480679
:105A30008168891A426808380C1B521A86425C62D7
:105A400043F80429F4D18BE7F053C26DAA0025BEB8
:105A5000E4EBDC70736E8D794A3FE3D77611B7E8DB
:105A60002FFEE4F3C7A3C1FAC6BD2EFE5DC286FFBA
:105A70005CD60700B0FC0600B7206D7F407EE47F57
:105A800063B2FC7F94C6FF7F079FA04EDFF884922D
:105A900020460DF1BC0CA646DCF8242059F8043948
:105AA0005CF8041983FB0282A2EBA103D7F8008003
:105AB00002EBA10247F8042BC8F1000156F8082BAD
:105AC000C91A81FB025203EB820256F8043C81FBA7
:105AD00003534142189D6A500F99C8EB83030B5042
:105AE000714682EAE271A1EBE271724683EAE372E7
:105AF000A2EBE3728038114310F5906F44EA010481
:105B0000CAD117EE103A524607991898F7F72EFFA8
:105B1000049B204303430493079B243307930F9B69
:105B200004330F930E9B48330AF1010A0E93BDE52F
:105B3000DDE9163107988142C8BF00231A46129B3F
:105B4000062B13DC17EE901A4B4609F1480418682F
:105B5000099D2841186058682841586051F8040B85
:105B6000083328419C4241F8040CF0D127A948464B
:105B70000E92F7F725FE2DA909F10400F7F720FE94
:105B800033A909F10800F7F71BFE0E9A17EE900AE9
:105B900039A9F7F761FE29AA0E920B9A5C490020F9
:105BA00002F5C07639AB27AD0F901F9653F8046B02
:105BB0000446B60086EAE674A4EBE67416609E68B6
:105BC0001894B600044686EAE674A4EBE674C2F8BC
:105BD000806151F8046BD5F80CE01B9486FB0EAE87
:105BE0005E6904460EEB860686EAE674A4EBE6746C
:105BF000DDF838E0C2F800631C94DEF80CA08C6875
:105C000084FB0A6A1E6A04460AEB860686EAE67484
:105C1000A4EBE674C2F880641D94AEF104044E69EE
:105C2000DEF800E00E9486FB0EAED5F824A051F805
:105C3000044C84FB0A6ADE6AD6440EEB86060446F0
:105C400086EAE674A4EBE674C2F80066D5F800C0F4
:105C50000E6A1E94043586FB0CEC0E9C8E68D4F8FC
:105C600028E086FB0EAE9E6BF4440CEB8606844661
:105C700086EAE67CACEBE67C189CC2F88067A64618
:105C80001B9C4EEA040A1C9C4AEA040A1D9C4AEA30
:105C9000040A1E9C4AEA040A0F9C4AEA0C0A44EAD7
:105CA0000A040F941F9C803294427FF47FAF2D9B97
:105CB0009B1048F8243C2E9B9B1048F8203C2F9BBF
:105CC0009B1048F81C3C33A9A8F1180351F8042B89
:105CD000921043F8042B4345F8D117EE103A079A77
:105CE0000B9817EE901AF7F741FE0F9B03431846E7
:105CF000049B03430493079B013307930B9B0433DB
:105D000009F1480908F124080B93E5E4E0130700C2
:105D10007CD70700B0FC0600DDE91631A942C8BFF8
:105D200000231A4639A92046F7F796FD139B03EB8B
:105D3000850105F00103099304F1200345F3000AEE
:105D400039A8A4F1040E4FF0000C0B9303684FEA3E
:105D50008309C1F800903B4689EAE973A3EBE97334
:105D6000079343688AEA83031A46099B1A4449EA5F
:105D700002094CEA090CC1F88020B94682EAE279AE
:105D8000A9EBE279079B4EF8047F43EA0902049BE2
:105D9000134304930B9B734500F1080001F58071D8
:105DA000D4D1BCF1000F18BFA84624340135AEE4AD
:105DB000139B03EB86000023D9010133122B4250C1
:105DC000FAD10136ACE4049B5B0001320493AFE4EA
:105DD0002022B1E405F508531E344FF0000A049365
:105DE0000AF001030993079B049A1B680398009328
:105DF0002946099B126800EBCA10F7F767F8049B65
:105E000009991A684FF4886303FB012305EB8307A4
:105E10004FF0000C55F82310FA6D4FF000736046F8
:105E2000C1FB003C6FF07301C2FB013C4FF455799C
:105E30007968BA6DC1FB093CB549C2FB013C41F62A
:105E4000D478B9687A6DC1FB083CB249C2FB013C09
:105E500046F2B860F9683A6DC1FB003CAE49C2FB3E
:105E6000013CAE4A3969C1FB023CAD49FA6CC2FB48
:105E7000013C7969BA6CC1FB003C45F28401C2FB6C
:105E8000013CB9697A6CC1FB083C40F22C71C2FB41
:105E9000013CF9693A6CC1FB093C7421C2FB013C2D
:105EA0004FEA936343EA8C1324F81E3C07F58053B2
:105EB0004FF0007219684FF4D0700023C1FB00232B
:105EC00041F2040141F67C007958C1FB002341F204
:105ED000080149F2FC707958C1FB002341F20C0122
:105EE00090487958C1FB002341F210018E4879583F
:105EF000C1FB002341F214016FF0B3007958C1FBDC
:105F0000002341F218014FF412707958C1FB0023AD
:105F100041F21C016FF013007958C1FB00234FEAD6
:105F2000926242EA8312A4F11E030A93DFF8FCC1D5
:105F3000628004F122030B93DCF844E0D7F85C9113
:105F4000D7F80031DCF840104FF000720020C3FB9E
:105F500001204FF00073D7F800610021C6FB0E311D
:105F6000CEF1000EC9FB0E20DCF84060C9FB063103
:105F7000D7F80461DCF84C90D7F858E1B046DCF86B
:105F80004860C8FB0620C8FB0931C9F10009CEFBF7
:105F90000920DCF84860CEFB0631D7F80861DCF850
:105FA0005490D7F854E1B046DCF85060C8FB0620A6
:105FB000C8FB0931C9F10009CEFB0920DCF85060AB
:105FC000CEFB0631D7F80C61DCF85C90D7F850E1D5
:105FD000B046DCF85860C8FB0620C8FB0931C9F19F
:105FE0000009CEFB0920DCF85860CEFB0631D7F85B
:105FF0001061DCF86490D7F84CE1B046DCF86060E2
:10600000C8FB0620C8FB0931C9F10009CEFB0920F5
:10601000DCF86060CEFB0631D7F81461DCF86CE088
:10602000D7F84891B046DCF86860C8FB0620C8FB8A
:106030000E31CEF1000EC9FB0E20DCF86860C9FB02
:106040000631D7F81861DCF874E0D7F84491B0460F
:10605000DCF87060C8FB0620C8FB0E31CEF1000EE4
:10606000C9FB0E20DCF87060C9FB0631D7F81C6153
:10607000DCF87CE0D7F84091B046DCF87860C8FBEB
:106080000620C8FB0E31CEF1000EC9FB0E20DCF855
:106090007860C9FB06314FEA926242EA80120A98A0
:1060A00020F8022F0A904FEA936343EA81130B9A78
:1060B00022F8023D84420B920CF1400C07F58077E8
:1060C0007FF43AAF049B099A1B680AF1010A9B1AF4
:1060D000049A03F00703BAF1120F136004F14004AD
:1060E0007FF47EAEFFF779B8584618EE101AF7F72E
:1060F000F8FC6FF00B00FDF704BD6FF00400FDF736
:1061000000BD6FF00500FDF7FCBC0020FDF7F9BCF9
:10611000D4F8FFFF7CAFFFFF3CB6FDFF789404008E
:10612000C44902004CE803002464FFFF9CD8070028
:1061300000F0030370B553EA010406D0024403469D
:10614000934213D003F8011BFAE722F003039608E9
:10615000034405469D420AD1910742BF002120F821
:1061600026100233D20701D500221A7070BD45F8FF
:10617000044BEFE770B53122002106460E480F4D63
:10618000FFF7D6FF1022FF210D48FFF7D1FF1022A5
:10619000FF210C48FFF7CCFF0B4814220021FFF72A
:1061A000C7FF00246B680BB1304698470134042CBC
:1061B00005F11C05F6D170BDCC450120C8D1060003
:1061C000CD450120DD450120302F01202DE9F04F84
:1061D000B94B8BB01B780293002B00F0D882B74FDD
:1061E000B74DB84B1C682378012B02BFB64B8022F9
:1061F000C3F88420B4F80E801FFA88F8B8F1000FB5
:1062000018D0638A628961689BB202FB031107A8F8
:10621000FBF796FD638A2189DDF808809BB2013384
:10622000B3FBF1F201FB12339BB26382E389013BC2
:106230009BB2E3812378012B02BFA34B80225A60DB
:10624000B8F1000F00F0A1829DF81D30013B072B33
:1062500000F2528201A252F823F000BF7D620300D7
:106260007D620300AD670300E3610300E3610300A7
:1062700087620300BF660300C76703009DF81C0028
:10628000FFF778FFADE7914C9DF820B023789DF89B
:106290001C6043F001030BF06000237060284FF096
:1062A00000032B61A14605D13B68D90740F1288145
:1062B00000BE25E140280FD1854B002B00F0208146
:1062C000844B03B12B6108A93046AFF300808046B0
:1062D000B8F1000F85D113E10BF01F0BBBF1010FDB
:1062E00000F05B81BBF1020F00F07681BBF1000F83
:1062F000DAD10028D8D19DF82130092BD4D801A2B9
:1063000052F823F08565030075650300A962030058
:1063100065650300A96203002D630300ED640300BB
:10632000A9620300636303007D6303000AAB13E902
:1063300003000022C5E9022285E80300664BD3F87A
:106340000014D3F800040143C3F80014C3F8582123
:106350004FF48002C3F80423237843F00203237030
:106360003FE72378C3F380038DF81A3001230DF142
:106370001A0208A93046FCF7F1FC32E79DF82230FA
:1063800003932378C3F380025B077CD4039B002B29
:1063900079D023785149049223F0600343F020031D
:1063A00023704B780B2B03BF0B788846C9184FF02E
:1063B00000084B78042B05D03B68D8077FF574AFF5
:1063C00000BE71E7DFF820B14FF0000A5FFA8AF3F0
:1063D0000193049BADF81A300DF11A02DBF8083076
:1063E000059130469847059900285DD08A7809EBD9
:1063F00002035878FF28DFD101985870B8F1000FD8
:106400001DD098F802309342D6D198F804004A790A
:106410009042D1D198F805008A799042CCD198F871
:106420000600CA799042C7D1023398F8032003EBE3
:10643000090E002001305FFA80FC944530D3BDF88E
:106440001AC0BCF1080FB7D90A464FF000085078BF
:10645000052809D192F802E0019B0EF07F0009EBBC
:10646000400000EBDE104374107808EB00031FFAC5
:1064700083F8C4450244EAD8194B6144994290D349
:10648000184B00221A70039B1A1E237818BF012292
:1064900062F38203237008A93046FCF71DFCA0E6D6
:1064A000019B0EF8013BC5E70AF1010ABAF1040F9E
:1064B0000BF11C0B8AD17FE734300120F0ED00E0B6
:1064C000302F01200046012000E100E0CC450120F2
:1064D000000000000000000000700240F58107008D
:1064E000C682070030220120C8D10600BDF8223044
:1064F000190A032928D010D8012918D0022920D040
:10650000B44B01225A65BFF36F8FBFF34F8F5A65AB
:10651000BFF36F8FBFF34F8F63E60F29F0D1AE4B00
:10652000002BEDD0AFF300804388024601E0AB4A78
:10653000122308A93046FCF711FC00287FF451AE65
:10654000DEE7A74ADA23F4E7DBB2EE2BD8D00B2B39
:106550003FF6AAAEA34A52F82320002A3FF4A4AE85
:106560001378E6E7BDF82230012BC9D1237843F038
:1065700010038FE7BDF82230012BC1D123786FF3D0
:10658000041387E72378C3F38012DB0803F00203C8
:106590001343ADF81A300223E9E69DF824300F2B9F
:1065A000AED81C446378032BAAD88F4A1C2101FB68
:1065B000032330461A692A61DB6808A99847002836
:1065C0007FF40FAE9DF8203013F0600398D19DF852
:1065D00021200A2A94D1C7E69DF8241011F0780CE6
:1065E0007FF462AE01F07F0304EB430404EBD114AB
:1065F0004FEAD11E94F811A05A0000285DD19DF8F1
:10660000210001282FD003284FD000287FF44CAE62
:1066100094F82130C3F34003ADF81A300DF11A029B
:106620005B4608A93046FCF799FBBAF1FF0F12D080
:10663000BAF1030F3FF638AE6B4B1C2202FB0A3A4D
:1066400008A9DAF810302B613046DAF80C30984798
:10665000002818BF80469DF8203013F060037FF4B7
:1066600037AE2B6134E6BDF82200C8B953B1594B9F
:10667000C3F8181541F48071C3F80C15BFF36F8F80
:10668000BFF34F8F9144CE449EF821306FF3410306
:106690008EF821309EF821306FF300038EF8213000
:1066A00008A93046FCF718FBBFE7BDF82230002BE5
:1066B000F6D13046FAF758FDF2E7E046B5E79DF827
:1066C00020104A4B01F07F0403EB440303EBD1138A
:1066D0004FEAD11C93F821206FF3000203F1200050
:1066E00083F82120002C48D12B789DF81C80099E2E
:1066F000BCEBD31F0FD02EB13B68DB077FF571AD2C
:1067000000BE6EE53A4B002B3FF46BAD2946404688
:10671000AFF3008065E595F90030002B07DBA86832
:1067200000283FF45EAD33493246FBF709FBAA6807
:10673000EB8932443344AA60EA889BB29A42EB81E7
:1067400001D03F2E15D82B696BB995F90030002286
:10675000002B1146B4BF20468020FCF75FF80028CC
:106760007FF43FADC8E72946404698470028ECD162
:10677000C6E64046FCF7C8FAF1E75B7C032B09D973
:106780001D4B1B68DA0700D500BEFCF7EFFE0BB00F
:10679000BDE8F08F144A1C2000FB03239DF8212044
:1067A0005C699DF81C00099BA0471AE50E4E002469
:1067B000B36913B19DF81C0098470134042C06F10D
:1067C0001C06F5D10DE5089B002B3FF40AAD099896
:1067D000984706E50070024000000000C6820700EE
:1067E000EC810700BC720700C8D10600CC4501202F
:1067F000000000008C450120F0ED00E0024840223E
:106800000021FFF795BC00BF6C44012002484022E4
:106810000021FFF78DBC00BF6C440120054B002216
:106820005A831A609A831A71DA835A859A85DA85AF
:10683000704700BF8026012008B5134B4FF40B6250
:1068400000211846FFF774FC4FF44241C18001213A
:1068500001810821FF22017300F1300142710161C1
:1068600000224FF482310346428342818283416198
:10687000C283027600F58660C3E908015A8583F871
:1068800028209A85DA8508BD8026012002482C221E
:106890000021FFF74DBC00BF083001200020FFF7AA
:1068A000F5BF0000044B0022DA811A601A825A8276
:1068B000DA831A845A847047AC3201200E4B10B52B
:1068C0004FF4D87200211846FFF732FC00F1240281
:1068D000034642600948986003F1A404C3E90540F7
:1068E00000220121DA8119731A8219775A82DA8318
:1068F0001A845A8410BD00BFAC3201208000010010
:1069000030B50388A3F110021F2A89B00C4606D8BF
:106910008188228891421AD1242B16D907E0A3F14D
:1069200050021F2A0FD88188228891420FD1503BF4
:106930009AB2072A0BD8072B09D8DFE803F06108C1
:106940007808084E0846242B32D8102B01D8002096
:10695000B5E0113B132BFAD801A252F823F000BF87
:10696000CB6903004F6A0300616A0300C36A030036
:106970004F6903004F6903004F690300CB690300AF
:10698000A56A0300076B03004F6903004F6903000A
:106990004F6903004F6903003D6A03004F6903001C
:1069A000BD690300CB690300CF690300CB69030015
:1069B0003A2BBCD14389A1F8763006E000238088C9
:1069C000ADF800306946F3F7BDFC012077E0002206
:1069D00020881146F3F7B8FCF7E7B4F87610C388BF
:1069E00041B9172B38BF1723B3F5007F194628BFCD
:1069F0004FF400712088A4F87610F3F7A1FDE4E7C6
:106A000022884FF6FF739A42A1D094F85A30022B95
:106A10009DD183684E4A23F07F43934297D101234F
:106A200084F87830F8F7CAFEC4E920018FE7002324
:106A300020881A461946F2F743FDC6E7012500F102
:106A4000080184F874502088F3F76AFCBDE750F819
:106A5000083FE36643682367002384F87430B4E793
:106A600004F10803502200211846FFF761FB04F1EE
:106A700024030021049304F14003CDE90531A378F8
:106A800000908B424FF6FF72A4F858202088314ABC
:106A900003916B4618BF0A46CDE901110791F3F740
:106AA00045FD92E7037A84F85B309BBB638BA4F8C7
:106AB00058300120022384F85A3084F8790009B054
:106AC00030BD028AA0780121F2F7FEFCA0B1C28895
:106AD000502A11D104F1080500F108012846FBF7FE
:106AE0002FF92246002332F8400B2946F3F720FD08
:106AF000638BA4F8583068E7002320881A461946AB
:106B0000F3F716FD61E7037A03F00F02012A05D8B7
:106B10001F2B03D8002384F85A3056E7B4F85820C6
:106B2000A0780221F2F7D0FC38B9002320881A4659
:106B30001946F2F7C5FC0223EDE7C28800F108010F
:106B400003232088F2F7BCFC0028F4D0EDE700BF57
:106B5000022901007A5C07002DE9F04FA84BA94AF1
:106B6000D3F80003002385B01C4601251E4605FA14
:106B700003F1084209D052F8237037B10C4342F8B0
:106B80002360BFF36F8FBFF34F8F0133192BEED10B
:106B9000E7071AD500221146930003F1804303F55D
:106BA0001C330132082A59609962F5D1944B59621D
:106BB0009964954BC42200211846FFF7B9FA402288
:106BC000027502720120FBF751FCA60202D50320D8
:106BD000FBF74CFC650213D5894ED6F8005405F43A
:106BE0004073E805C6F8003405D50420FBF73EFCE9
:106BF0000123C6F82C35A90502D50520FBF736FC84
:106C0000824B814E234033B196F8C030002B40F0C8
:106C1000D380F2F729FF22023BD5794BD3F880E4E9
:106C2000D3F88424D3F88814D3F88C74D3F8905410
:106C3000D3F894045FFA81FCD3F89814D3F89C3409
:106C40001EF07F0F5FFA8EF8D2B2FFB2EDB2C0B283
:106C5000C9B2DBB201D1052A1BD04FF0000EADF84E
:106C600006E08DF80D004FF4C06E8DF80E1001A8EF
:106C70000121ADF804E08DF808808DF809208DF829
:106C80000AC08DF80B708DF80C508DF80F30FBF7A3
:106C9000B7FB5D4FDFF86891B84600254FF0010A59
:106CA0004FF0140B05F10C030AFA03F32342E9B287
:106CB0001BD00BFB05930020D3F80827182303FBF8
:106CC0000563D2B2587298F808C094457DD1DB882C
:106CD000B8F804209BB29A4277D9002D70D1C9F838
:106CE0004CA0BFF36F8FBFF34F8F0135082D08F114
:106CF0001808D7D1464B2340002B5AD0404BD3F82D
:106D00006C84C3F86C84BFF36F8FBFF34F8F14F4A0
:106D1000806407D0D3F88044D3F880341B06C4F3D2
:106D2000C0145FD54FF0000ADFF8DC9000254FF06B
:106D3000140B0123AB4013EA080FE8B201D1ADB93F
:106D4000A4B12F4B0BFB0533D3F80416182303FB18
:106D500005635A8A11FA82F292B25A825A8AB9F8B3
:106D6000101092B2914240D9FBF732FD0135082D47
:106D700009F11809DDD1002401254FF0180904F1AB
:106D8000100305FA03F313EA080FE0B203D15CB96C
:106D9000BAF1000F08D009FB0462B988D3889BB20E
:106DA00099422BD9FBF7ECFC0134082C07F11807AA
:106DB000E5D105B0BDE8F08F002386F8C0302AE7A2
:106DC00005F5947349F823008BE7182303FB05634B
:106DD0000020DA88A8F80420DA88012392B2FBF7B1
:106DE0008FFC82E74FF0010A9EE75A8A40F080014B
:106DF000012392B20020FBF783FCB7E75572D3E77B
:106E00000070024000710240442F0120FCFB1F0073
:106E1000000400012DE9F041D0F88020044662B161
:106E20003148002350F833108A424BD100EBC300A5
:106E3000F9F74AFC0023C4F880302C4B94F8B37067
:106E40001A6804F11406964204BF00221A60002555
:106E500004F18808AF423ADC94F8B470002504F1DC
:106E6000A608AF4239DC04F1B000F4F727FE04F1C4
:106E7000B100F4F723FE04F1B200F4F71FFE636AD9
:106E800093B13046F6F754FEA06B18B1F4F706FE46
:106E90000023A363E06D18B1F4F700FE0023E3655F
:106EA000606A08B1F4F7FAFD6C2200213046FFF762
:106EB0003FF9A068F4F7F2FD0023C4E90033A360B2
:106EC000BDE8F0810133042BACD10020B0E708EB22
:106ED0000500F4F7F3FD0135BCE708EB0500F4F716
:106EE000EDFD0135BDE700BF482201207C260120D1
:106EF000FFF790BF08B5FFF78DFF014808BD00BF41
:106F00007C2907002DE9F04F90F85EC08DB0BCF1F0
:106F1000010F04460191164604D10DB0BDE8F04FB3
:106F2000F6F73DBE90F86490019B476994F86310B2
:106F300002FB09F9BCF1020F03EB4909E26C436A59
:106F400090F8650006F1070A40F0C68040B194F859
:106F500067C05008CCF1010C0CFB00F003EB4003C0
:106F60004FEAEA0A4FEACA080629C6EBCA0A5FFADC
:106F70008AFA2FD0C1F10501C9B24FF400608840F0
:106F80000890402088400990012000FA01F10A9100
:106F900018460021FFF7CCF894F8633006FB03F2A3
:106FA00094F8643053435B000793730006934FEAF1
:106FB00048030B9300EB4A0A07F10C034FF0000B58
:106FC00094F860105FFA8BF2914200F283800DB06A
:106FD000BDE8F08F20211025CDE909154FF40041BF
:106FE0000891D5E739F810200492019A32F810E0A0
:106FF0001EEA010218BF33F80C2C1EEA0C0F1CBF4E
:1070000033F80A5C2A431EEA070F18BF33F808EC6E
:10701000049D18BF42EA0E02294218BF33F806EC5D
:10702000049D18BF42EA0E021CEA050F18BF33F890
:1070300004EC049D18BF42EA0E022F421CBF33F835
:1070400002EC42EA0E0238F802EF42EA0E02A8F819
:107050000020013082B29642C4D8059894F863208B
:107060004FEA4C0C08B9052A12D849007F000B9A48
:107070009244029A013202929DF8082005920598E6
:1070800094F8632082420CD9AAF102080020E1E7BB
:1070900001274FF40061EAE7DDE909C708990022FA
:1070A000E9E7069A01991144069A01919144039ADD
:1070B0000132039294F864109DF80C209142EBD8B1
:1070C000079A01991144079A019191440BF1010B20
:1070D0000C3375E70022ECE748B1B2FBFCFC94F8F6
:1070E0006700C0F1010000FB0CF003EB80034FEAE6
:1070F000EA0A4FEACA080629C6EBCA0A5FFA8AFA00
:107100002DD0C1F10501C9B24FF40060884007904D
:10711000402088400890012000FA01F109911846AA
:107120000021FFF705F800EB8A03029394F863301F
:1071300006FB03F294F8643053435B00069373003C
:1071400005934FEA88030B9307F11803002794F87F
:107150006010FAB291427FF63AAF00226BE0202134
:107160001020CDE908104FF400410791D7E7019AAC
:1071700039F8108032F810B01BEA010218BF53F83A
:10718000182C1BEA0A0F1CBF53F8145C2A431BEA95
:107190000C0F1CBF53F8105C2A4311EA080F1CBFE8
:1071A00053F80C5C2A431AEA080F1CBF53F8085C1A
:1071B0002A431CEA080F18BF53F8045C5EF8048FDA
:1071C00018BF2A4348EA0202CEF80020013082B2FA
:1071D0009642CCD80A9894F863204FEA4A0A08B934
:1071E000052A16D849004FEA4C0C029A0B98024423
:1071F0000292049A013204929DF810200A920A9891
:1072000094F8632082420ED9029A0020A2F1040E63
:10721000DDE74FF0010C4FF40061E6E7DDE908AC73
:1072200007990022E7E7059A01991144059A01910F
:107230009144039A0132039294F864109DF80C2053
:107240009142EBD8069A01991144069A0191914412
:10725000013718337BE707B503461430B3F88620AF
:1072600099680190FFF74EFE019803B05DF804EBBA
:10727000F6F735BD10B50244904201D1002010BD93
:1072800010F8014B11F8013B9C4202D3F4D90120C4
:10729000F5E74FF0FF30F2E72DE9F84F80460D4655
:1072A000F0F7DCF9134B5C6907460CB920461EE089
:1072B000E36804F1100B0BEB83095E464E45B246C2
:1072C00001D32468F1E756F8040B0378BB42F5D1EB
:1072D0004378AB42F2D12A4641460230FFF7CAFF5B
:1072E0000028EBD16068AAEB0B0A00EBAA00BDE80E
:1072F000F88F00BF804F0120884237B504460D4605
:1073000008D1F1F773FA28B9A10766D12268374B83
:107310009A4262D1364B9C4202D1002003B030BD6C
:107320009D42FAD0E20704D5EB07F6D423462C465B
:107330001D46304B2F4A2340062B02EA050205D09A
:10734000A00733D120682C4988422FD1062A46D085
:10735000A907E2D1286828498842DED1062B05D149
:10736000E008F0F76DF901786B6806E0062A6168BD
:10737000FAD1E808F0F764F9037811B10BB199423A
:10738000CBD169462046F1F783FC01A90446284683
:10739000F1F77EFCDDE900239A420146BDD120468B
:1073A000FFF768FFB0FA80F04009B7E7062AB4D0CB
:1073B000AB0703D12A68104B9A42AED02046F1F7B2
:1073C0002BFA8369002BA8D02A4621460220984731
:1073D0000028A2D0094CA04204E001209EE7062B21
:1073E000C4D1AC4214BF0020012097E7744F0700BE
:1073F0007C290700070080FF40560700802907000E
:10740000F8B51746044600EB81060025B44203D1C7
:10741000680040F00100F8BD54F8040B3946FFF74E
:107420006BFF0028F2D00135F0E7000007B50191AD
:107430000549F1F7A8FDD0E90210019A03B05DF803
:1074400004EBFFF7DDBF00BFF85207000A46083023
:1074500050F8041CFFF7D4BF022838B50D46144677
:1074600013D1930701D00A4838BD1268094B9A42DC
:10747000F9D1A168A868FFF73FFF0028F3D022796F
:107480002B799A42EFD10448EEE70020ECE700BFE9
:1074900074290700FCED0600802907002DE9F0475C
:1074A0009942DDF820A0804691461E4613D3BAF1DA
:1074B000010FA1EB030416BF25460025002408EBAD
:1074C0000507324649463846FFF7D4FE20B1A542AB
:1074D00001D05544F3E700273846BDE8F08770B582
:1074E0000446022C049E1546184610D1B24226D1FD
:1074F000024608461146AE42324628BF2A46FFF7EA
:10750000B9FE022C0ED1B0FA80F0400970BD2CB14A
:10751000032C05D032462E461546E9E70124EAE75A
:107520000424E8E700280ADB0BD1AE4203D02CBFCD
:1075300001200020EAE7601E18BF0120E6E70020D6
:10754000E4E70120E2E72DE9F74F9DF830600746B8
:107550008A469046994600244C4502D386F001069F
:1075600019E018F804B00134002508EB0401554572
:1075700001D35C44F0E77B5D0135002BF9D09B45DE
:107580000DD85A46781901930091FFF773FEDDE993
:10759000001320B92EB1304603B0BDE8F08F002EA5
:1075A000F9D01D44E3E700002DE9F04F03881B2BC1
:1075B00089B005460C460ED1057A012D4FF000002A
:1075C00006D1486081F821503548F1F765FF28461B
:1075D00009B0BDE8F08F1D2B60D1F8F7EFF804F18A
:1075E000080602460B46CDE90623A98CA3892F7A0B
:1075F00095F80A80ADF816103046039395F91BA054
:10760000D5F82090F2F71FFF039B1331181A81421F
:1076100007F0010B4FEA5808C7F3C00734DAE369F3
:107620009A4531DBA36943B101220092BDF81610DF
:1076300062694846FFF787FF30B359460FB14BF0F8
:1076400002013046F2F7EDFE082206A93046F2F7B5
:1076500096FF5FFA8AF13046F2F7E3FE062205F163
:107660000B013046F2F78BFF41463046F2F7D9FE68
:1076700002220DF116013046F2F781FF9DF8162027
:1076800049463046F2F77BFF61680020F2F754FE6E
:10769000012308B184F82130184699E7002097E7C4
:1076A000A9750300034600201A5C02B97047013037
:1076B000FAE700002DE9F04F814689B01446002614
:1076C0000B461D4613F8012B82B9A94211D30B7842
:1076D000002B00F03A81013120234FF000080A46C8
:1076E00012F8015B7DB94FF00A0C2AE0252AE8D197
:1076F000EBE76F1AD9F80430D9F800003A469847FA
:107700003E442946E3E72D2D03D148F001081146F8
:10771000E5E72B2D02D148F00208F8E7202D02D131
:1077200048F00408F3E7212D02D148F00808EEE7FD
:10773000302D21D148F040082B46E8E70CFB052509
:10774000303D0F4611F8012BA2F130000928F5D980
:107750002E2A41D17A782A2A10D000204FF00A0C24
:107760000F4611F801BBABF13002092A09D80CFB16
:1077700000BBABF13000F3E70025B4E754F8040B8D
:10778000023720EAE07B3A786C2A08BF013797F885
:1077900000A0BAF1000F00F0D880BAF1780F6AD8D3
:1077A000BAF1570F1BD8BAF1470F61D8BAF1440F9D
:1077B00061D9073424F00704F4E802010593EFF7D8
:1077C000F1FDCDE9005B00EE100A059B42465146F3
:1077D0004846F8F7CEF962E04FF0FF3BD3E7AAF155
:1077E0005802202A47D801A151F822F02979030034
:1077F00077780300777803007778030077780300C1
:1078000077780300777803007778030077780300B0
:107810007778030089780300AB7803000D790300C3
:10782000B3770300B3770300B377030077780300DF
:107830007778030077780300777803007778030080
:107840007778030077780300777803003F790300A7
:10785000BF78030077780300E378030077780300AC
:10786000FB78030077780300777803002979030019
:10787000BAF1500F63D0D9F80430D9F800000122D2
:107880003946984701360BE054F8042BCDE9003512
:1078900043463AB12F4904224846EFF703FF064416
:1078A000791C0DE72C490522F6E754F8042B8DF8D6
:1078B0001C20CDE900350122434607A9ECE707A9C2
:1078C00054F8040B0593EFF7DEFEBBF1FF3F059B79
:1078D000014601D1DDF81CB0CDE900355A464346DA
:1078E000DAE7BBF1FF3F54F8041BF5D108460593D6
:1078F000FFF7D8FE059B8346EEE7CDE9023561230D
:107900000093CDF804800A23002207E0CDE9023578
:1079100061230093CDF804800A23012254F8041B4C
:107920004846EFF71DFFBAE7AAF1170ACDE902357D
:10793000CDF804805FFA8AF300931023E4E7CDE9E1
:107940000235CDF804806123F6E7304609B0BDE882
:10795000F08F00BF3A9B06003F9B06000EB403B5B4
:1079600003AA52F8041B0192FFF7A4FE02B05DF8CF
:1079700004EB03B07047000013B5044608460191BC
:10798000FAF7A6F9019B04490246204602B0BDE879
:107990001040FFF7E3BF00BF459B060010B504464B
:1079A0008868FAF795F902460B4620460249BDE879
:1079B0001040FFF7D3BF00BF5B9B06004A68014938
:1079C000FFF7CCBFE59B060030B4064B0D68064CB4
:1079D0000A4606498D420CBF2146194630BCFFF7C6
:1079E000BDBF00BF8C9B0600799B06007C5607003C
:1079F000CA880149FFF7B2BF9E9B06000A460149AB
:107A0000FFF7ACBFAB9B06004A680149FFF7A6BF72
:107A1000B39B060013B5044608460191F0F733FF07
:107A2000019B04490246204602B0BDE81040FFF722
:107A300095BF00BFC29B06004A680149FFF78EBF91
:107A4000CD9B060007B5094B8B4214BFD321A32160
:107A50004FF4997301910093054940F25B1340F292
:107A6000B112FFF77BFF03B05DF804FBA8FB060033
:107A7000DC9B060007B5074B8B4214BFB321D7210F
:107A800000918623044940F2FF12FFF767FF03B01D
:107A90005DF804FB18050700DF9B060007B5084BDF
:107AA0008B4214BF4FF49671D5210091882305496C
:107AB00040F2FF12FFF752FF03B05DF804FB00BF76
:107AC00078050700DF9B060007B5084B8B4214BF03
:107AD0004FF4AE71822100914FF49C73044940F23F
:107AE000FF12FFF73BFF03B05DF804FBFC05070046
:107AF000DF9B060010B586B0044603AB084604AA17
:107B000005A9F3F703FA039B0093054940F20633F6
:107B100040F2CA222046FFF721FF06B010BD00BF89
:107B2000DF9B06000B4B994207B50FD00A4B9942D9
:107B300014BFCD21722100914FF4A273074940F286
:107B4000CA22FFF70BFF03B05DF804FB40F24711B8
:107B5000F1E700BF4025070010250700DF9B060066
:107B60001FB50C46114602AA0092094A0192CDE9BE
:107B700002041A466846FFF79DFD24B1DDE9023292
:107B80001AB903F8012C04B010BD00221A70FAE7EC
:107B9000BD1D03000CB407B504AB53F8042B0193CF
:107BA000FFF7DEFF03B05DF804EB02B070470000A2
:107BB0000FB407B504AA054852F8041B0192FFF759
:107BC00079FD03B05DF804EB04B07047CC330700D7
:107BD00038B505460846FFF765FD044618B102466C
:107BE0006B6828689847204638BD00002DE9F047AB
:107BF0008CB0044600AF08460E46F1F7ADF950B31D
:107C00002A4B1B6823B11B681A68294B9A4222D160
:107C100007F10802391D3046F0F70AFF7B68D3B13F
:107C2000E8468AB069462348DFF89490F1F772FB82
:107C300007F118012048F1F76DFB07F10C011F480F
:107C4000F1F768FB69462046FFF7C2FF7D68033DF8
:107C5000002D0DDAC54602223146204608F0DEFC32
:107C600017492046FFF7B4FF3037BD46BDE8F0871F
:107C7000BA6802EB850307F118015B6852F825200A
:107C80002046FFF76BFEBB684FEA850A53449A68AB
:107C90002AB949462046FFF79BFF033DD8E707F185
:107CA0000C012046FFF75AFEF7E700BF40520120C3
:107CB000EF297801C6A4070032990700DC96070077
:107CC0006EA6060010B594B0044602A80191EFF725
:107CD000C1FB38B90199204602F0D2FFEFF7B2FBA1
:107CE00014B010BD02480399FFF780FF0020F7E7AA
:107CF000CC3307002DE9F04F6A4ED6F80031D6F8A4
:107D0000EC8085B0002B6AD000254FEA88024046FF
:107D1000C6F80051002A50D00024D6F8E870A10817
:107D200004F00303795C5B0041FA03F303F00303FF
:107D3000032B32D001349442EFD3D6F80031002B1C
:107D4000E6D18046D2B34FF0000E75464FF00309DE
:107D50004FF0020B04E0012B4FD0013595422DD29C
:107D6000D6F8E810AF0805F00304C85D640040FAD7
:107D700004F303F00303022B01EB950C32D0032B29
:107D8000E9D10BFA04F420EA0400C855D6F8EC80D7
:107D90004FF0000E4FEA8802DFE72046EFF772FB54
:107DA000D6F8EC000134B4EB800F4FEA8002B4D374
:107DB000D6F80031002BABD1C3E78046202200214A
:107DC0003948FEF7B5F9B6F8042208F1FF33013A55
:107DD000C6F82832A6F8042205B0BDE8F08F4FEAB5
:107DE0008802AFE7BEF1000FB7D009FA04F420EA29
:107DF0000400C855D6F8EC80CCE7D6F8F0104FEA6E
:107E0000D50A05F0070811F80A3043FA08F2D2073C
:107E100001EBD50128D5D6F8F4002A01825800EBF1
:107E200005100090AAB100230022CDE90223F0F74B
:107E3000F3FCC369019013B3009802AA0C21984780
:107E4000029810B10399FFF73DFFD6F8F0105144A6
:107E50000B78012202FA08F823EA08030B70D6F81F
:107E6000E830D85D03EB070C09FA04F420EA0400BB
:107E70008CF80000D6F8EC804FF0010E8AE7019AEA
:107E8000906B0028E4D01A460430662113F0FCFB06
:107E90000028D5D0426802ABDDE900010AF0BCFF42
:107EA000CEE700BF804F01208851012030B58BB054
:107EB000F9F754FD6846EFF7A3F8244C0546042172
:107EC0002348F9F717FD2268224B9A420BD16068CC
:107ED000F9F7A4FD606AF9F7A1FDE06DF9F79EFDE1
:107EE000A06BF9F79BFDD4F8C03033B11A4A934226
:107EF00015D1D4F8CC00F9F791FD18480A21F9F70B
:107F0000F9FC1748AA21F9F7F5FC1649491B89081D
:107F10002846F9F7EFFCFFF7EDFE0BB030BD124A33
:107F2000934204D1D4F82801F9F778FDE1E70F4A2C
:107F30009342E2D1D4F8CC00F9F770FDD4F83401C3
:107F4000F9F76CFDD4F83C01D5E700BF084A0120E1
:107F5000545001205C660700B8080700BC210120CE
:107F60004047012000000420CC1B0700A4090700A3
:107F70002DE9F04F0F3089B005090791049200F008
:107F80009480DFF8CC82D8F8F420002A00F0048135
:107F9000B8F80432002B40F08880D8F8FC3098F80C
:107FA00006129B1A049A81F0010148BF0F33002A80
:107FB00001914FEA231315BF032100214FF0FF3930
:107FC0004FF00109082D2A46039328BF08224B00D1
:107FD000059302F18103029106930324069B58F84E
:107FE00023E0049B002B65D1D8F828A27646D8F868
:107FF000E8B00022B64553D8564551D8B9F1FF3FF5
:108000001BF80610019B4FEA860059D0B9F1010F09
:108010006FD0002B00F09180029B5C000323A340F3
:10802000194000294AD101329542FCD8029B0344F1
:108030000499002940F0B3805C1C072DA4EB0204D6
:108040002CD805EB030105F1810605F182004FEA0A
:10805000910148F8261048F820101FD005F1830040
:10806000062D48F8201019D005F18400052D48F898
:10807000201013D005F18500042D48F820100DD0F4
:1080800005F18600032D48F8201007D005F1870080
:10809000012D48F8201001D1C8F824121D4685E0B2
:1080A000954240F2D280019BB3B10023184609B03B
:1080B000BDE8F08FD8F82862B24698E70022B0E712
:1080C000002B51D103235F0004FA07F70F4208D0B9
:1080D000039F1A18BA425CD2FFF7E8FE012301930E
:1080E0007CE70132AA42A2D2013B5F1CEBD14E4495
:1080F00080E7BBB1002303E001330022042BF6D05C
:108100005F0004FA07F70F42F6D1013295428ED98B
:108110000133F3E7039F1A189742DDD90133002298
:10812000042BE4D05F0004FA07F70F42F2D10132CA
:1081300095427FF67CAF0133F2E7029BDDF814C075
:1081400004FA0CF70F420AD00133042B4FF000025F
:10815000CDD04FEA430C04FA0CF70F42F4D10132B0
:1081600095427FF664AFEBE703235F0004FA07F75D
:108170000F4208D0013B00225F1CB8D05F0004FA18
:1081800007F70F42F6D1013295427FF650AF013B1F
:10819000F2E7013B0022A8E70820F7F749FA591E49
:1081A0008908D518C8F82812013D1C46A00804F01B
:1081B000030359001BF8006001238B40611C33430B
:1081C0008D420BF8003010D302278808D8F8E860F9
:1081D00001F0030316F800C05B0007FA03F3013156
:1081E00043EA0C038D423354EFD2D8F8F45004998B
:1081F000260105EB041329B1D8F8FC10994288BF79
:10820000C8F8FC3013F003014FEA021218D0002125
:108210001AB11846FDF78CFF0346079A002A3FF46F
:1082200045AF0022AA51E108D8F8F0000122455CD0
:1082300004F0070402FA04F444EA0502425435E764
:108240009008002AE9D08200E3E74FF0FF33EFE621
:10825000804F01200A460021FFF78ABE2DE9F34135
:1082600000240E460746194630464FF6FF739046E7
:108270000094224603F04CFD21461020FFF7EAFF50
:108280000F4DA04218BF05462F60AC602EB90D4CB3
:10829000EC60284602B0BDE8F081B71CBF00214663
:1082A0003846FFF7D7FF04460028F0D0064BA7F169
:1082B0000802C0E9003641460830F9F741FDE7E71A
:1082C000984F01206C290700F45607002DE9F04F64
:1082D0000D4687B0002100AF064610209046FFF7FC
:1082E000B9FFB5F800A00AF1010A04460021504682
:1082F000FFF7B0FF4CB92346224621463046FFF730
:10830000ADFF1C37BD46BDE8F08F07F1080968B91D
:10831000C4E90200184B2360D4E90210EFF79EF97C
:10832000002360604A46BC600121E7E701233B72FD
:10833000124B7B602B88C7F80CA00733EB46DB0899
:10834000ABEBC3039D464FF0000A6946C7E904A0A2
:108350002846C7F80090F0F7DDFF424669463846E8
:10836000FFF7A8F9D7E9043202F803A03B69A3603C
:108370007B69E360DD46CDE740560700B95705004D
:108380000EB403B503AA52F8041B0192FFF79EFF37
:1083900002B05DF804EB03B0704708B519B9F0F707
:1083A00042FBF7F7CFFAFFF7EBFFFAE7014608B514
:1083B0000148FFF7F2FF00BF9C450700136870B546
:1083C00093B90468E56B4034AB4200D170BD54F8FA
:1083D000046BB14201D00133F6E7591CF6D00233E9
:1083E00050F823301360F1E70148FFF7DFFF00BFCB
:1083F000AEAB070007B5436802461B790093684699
:10840000F1F790FB536801461B79019301A8F1F73E
:1084100089FB019B03F5E07350F82330DA0702D59E
:108420000948FFF7C3FF009B03F5E07351F82300F1
:10843000C0F38100012805D0C31E5842584103B043
:108440005DF804FB0220FAE78696070008B50148AC
:10845000FFF7ACFFAAA40700014608B50148FFF7E3
:108460009CFF00BF104A070007B5064A1368526810
:1084700001A95B1A9A4202D80348FFF7EDFF03B047
:108480005DF804FB804F0120788907002DE9F74F44
:10849000DDF8308004460D4617469B46FFF7E4FFA3
:1084A0004FF002094FF0010A20784F2803D87B686B
:1084B000AB4240F2A880512804F1010600F0A580EB
:1084C0000ED8052807D848B1831E032B23D8DFE830
:1084D00003F027292945502800F091803446E3E72E
:1084E000622868D011D8602860D06128F6D1A61C17
:1084F0005B466478CDF800803A4629463046FFF75F
:10850000C5FF30B946FA84F6E8E77E2861D07F28B7
:10851000E4D1012047E02A7863789A4273D1A61CFF
:108520000135DBE7637804341A461AB9033818BFFB
:1085300001200BE0297814F802CC8C450BD814F8F4
:1085400001CC8C4507D3C21E5042504158B319FB91
:1085500003A31E44E4E70234013AE6E7637843F0FC
:10856000200164294FEA5312C3F340102B7806D13F
:10857000303B092B15D9D04300F0010011E07329DD
:1085800004D1202B0DD0093B042BF3E723F020016D
:108590004139192905D9A3F13001092901D95F2BE6
:1085A000E9D10028BBD103B0BDE8F08F94F9016098
:1085B0000236264492E794F90100CDF80080A61C0B
:1085C0005B463A4629463044FFF760FF0028A0D1B9
:1085D00084E7A61C6478444580DA24B2CDF8008094
:1085E0005BF824904BF824505B463A4629463046C7
:1085F000FFF74CFF00288CD14BF82490D3E73B6861
:10860000AB423FF46BAF0020CDE77B68F8E700009A
:1086100008B50148FFF720FF608F070070B50546D9
:108620000C468E18B44200D170BDD5E900039847BE
:10863000431C01D1FFF7ECFF04F8010BF2E738B55A
:1086400004460025D4E900039847421C01D1FFF7F6
:10865000DFFF00F07F0343EAC5150306F2D4284686
:1086600038BD000008B50148FFF7F6FE8CA10700F1
:1086700008B5084B00201A4613F8011B29B901233D
:108680001354054B03EBC00008BD01300428F3D19F
:10869000FFF7E8FFDD5101204822012008B501481D
:1086A000FFF7DAFEA0A4070008B50148FFF7D4FEE3
:1086B00036A5070008B5037A0BB9FFF7F5FF08BD2B
:1086C00008B5037A0BB9FFF7EFFF08BD08B5037FC4
:1086D0000BB9FFF7E9FF08BD08B50148FFF7BCFE7D
:1086E0001A92070008B50148FFF7B6FE5E8607003C
:1086F00008B5F7F7A7FC08B9FFF7F4FF004808BD75
:108700007C29070008B5F7F7EBFB08B9FFF7EAFF8C
:10871000004808BD7C29070008B50148FFF79CFE0A
:10872000C28E070008B50148FFF796FE14A50700A2
:1087300008B5064BD3F8C0302BB1054A934202D09E
:108740000448FFF789FE014808BD00BF084A012020
:10875000E4480700A290070008B5064BD3F8C030E4
:108760002BB1054A934202D00448FFF775FE014839
:1087700008BD00BF084A0120E448070024A4070000
:10878000014608B50148FFF708FE00BF4047070053
:10879000014608B50148FFF700FE00BFB44B0700D3
:1087A00008B50148FFF7F4FF6A99070070B5054660
:1087B00008466E680EB9FFF7F3FF7468A9688C422B
:1087C0000DD9641AB368944228BF1446194422464E
:1087D000F9F7B6FAAB682344AB60204670BD0024BD
:1087E000FBE70000402808B567D00DD800F0FD0079
:1087F0003C2809D1782907D8612908D8422968D0AE
:108800004839CBB2092B3CD96248FFF7C1FF623926
:108810001629F9D801A353F821F000BFD38803002B
:1088200009880300B58803000988030079880300DC
:10883000098803008B8903007988030009880300F5
:108840000988030079880300098803000988030068
:108850000988030009880300B5880300098803001C
:1088600009880300098803000988030009880300B8
:1088700009880300D38803000121042002B111609C
:1088800008BD0929C0D801A353F821F08B89030042
:1088900079880300098803000988030079880300A8
:1088A0000988030009880300098803000988030078
:1088B000B588030001210820E0E77829A4D86129C0
:1088C00009D85129A0D847293CD8012959D0422993
:1088D0009AD1012155E06239162995D801A353F8A0
:1088E00021F000BFD38803000988030087890300B3
:1088F0000988030041890300098803009189030066
:1089000041890300098803000988030041890300A5
:108910000988030009880300098803000988030007
:108920008789030009880300098803000988030078
:10893000098803000988030009880300D38803001D
:1089400004219AE7483909293FF65EAF01A353F89D
:1089500021F000BF91890300818903000988030089
:10896000098803008189030009880300098803003E
:1089700009880300098803007D89030008219AE71C
:10898000042108467AE70821FBE70121022075E768
:108990000221F6E75E85070070B50D4601790446B1
:1089A00001F07F01164640200022FFF71BFFE2681E
:1089B0002A60A36843436B60237903F07F03AB60B5
:1089C0002168094B99420BD194F90430002B01DB4B
:1089D000B30707D46368C3F3172300FB03202860A1
:1089E000002070BD0120FCE77053070008B5036943
:1089F000002219794020FFF7F5FE400040F0010009
:108A000008BD000008B50148FFF7C2FE388D070019
:108A100008B50148FFF7BCFEC684070008B5014849
:108A2000FFF7B6FE1E8F070008B50148FFF7B0FE3E
:108A3000B290070008B50148FFF7AAFE6EAD070027
:108A400008B50148FFF7A4FE808C070008B501486F
:108A5000FFF79EFE4499070008B50148FFF798FE0E
:108A6000508D070008B50E4B98424FF0804314D04C
:108A70000C4A904209D00C4A904202D00B48FFF7B2
:108A800087FE5722C3F81C2505E00022C3F81C25E9
:108A9000074B084A1A60084808BD0022F2E700BFE9
:108AA0003C2507004025070010250700FAA907000C
:108AB00060520120AF0900AD7C29070008B50148CC
:108AC000FFF766FE1E89070008B543680BB9FFF77C
:108AD000F5FF08BD13B50446FFF7F6FF0DF10700DB
:108AE000F1F766FC04F10C00F1F7ADFC04469DF8CB
:108AF0000700F1F7B9FC600040F0010002B010BDC2
:108B000013B50446FFF7E0FF0DF10700F1F750FC45
